:100000000C94A90A0C94D60A0C94D60A0C94D60A1D
:100010000C94D60A0C94D60A0C94D60A0C94D60AE0
:100020000C94D60A0C94D60A0C94D60A0C94D60AD0
:100030000C94D60A0C94D60A0C94D60A0C94D60AC0
:100040000C94D60A0C945D740C94D60A0C94D60ABF
:100050000C94D60A0C94D60A0C940B7D0C943C900C
:100060000C94D60A0C94E4450C94D60A0C94D60A47
:100070000C94D60A0C94D60A0C94D60A0C94D60A80
:100080000C94D60A0C94D60A0C94D60A0C94D60A70
:100090000C94D60A0C94D60A0C94D60A0C94728D41
:1000A0000C94D60A0C94D60A0C94D60A0C94D60A50
:1000B0000C94D60A0C94D60A0C94D60A0C94D60A40
:1000C0000C94D60A0C94D60A0C94D60A0C94D60A30
:1000D0000C94D60A0C94D60A0C94D60A0C94D60A20
:1000E0000C94D60A084AD73B3BCE016E84BCBFFDB8
:1000F000C12F3D6C74319ABD56833DDA3D00C77FF8
:1001000011BED9E4BB4C3E916BAAAABE0000008090
:100110003F05A84CCDB2D44EB93836A9020C50B91F
:10012000918688083CA6AAAA2ABE000000803F4803
:10013000617264636F6465642044656661756C74A4
:100140002053657474696E6773204C6F61646564D5
:10015000002044002049002020204D333031205021
:10016000005049442073657474696E67733A0020C7
:100170005A0020590020204D323036205800486F58
:100180006D65206F666673657420286D6D293A0071
:10019000204500205A002058002042002054002012
:1001A000204D323035205300416476616E636564C2
:1001B000207661726961626C65733A20533D4D69C6
:1001C0006E20666565647261746520286D6D2F739D
:1001D000292C20543D4D696E2074726176656C2027
:1001E000666565647261746520286D6D2F73292CB6
:1001F00020423D6D696E696D756D207365676D6533
:100200006E742074696D6520286D73292C20583D0B
:100210006D6178696D756D205859206A65726B2023
:10022000286D6D2F73292C20205A3D6D6178696DE2
:10023000756D205A206A65726B20286D6D2F7329A9
:100240002C2020453D6D6178696D756D2045206AD3
:1002500065726B20286D6D2F7329002054002020BB
:100260004D323034205300416363656C65726174B4
:10027000696F6E3A20533D616363656C65726174AA
:10028000696F6E2C20543D726574726163742061D5
:100290006363656C65726174696F6E002045002050
:1002A0005A0020590020204D3230312058004D6135
:1002B00078696D756D20416363656C657261746901
:1002C0006F6E20286D6D2F7332293A002045002073
:1002D0005A0020590020204D3230332058004D6103
:1002E00078696D756D2066656564726174657320EB
:1002F000286D6D2F73293A00204500205A0020599F
:100300000020204D393220580053746570732070DE
:10031000657220756E69743A004572726F723A00A8
:100320006563686F3A005072696E74657220737409
:100330006F707065642064756520746F20657272DB
:100340006F72732E2046697820746865206572721A
:100350006F7220616E6420757365204D39393920C4
:10036000746F20726573746172742E202854656DE9
:10037000706572617475726520697320726573654A
:10038000742E205365742069742061667465722030
:1003900072657374617274696E6729005072696E58
:1003A0007465722068616C7465642E206B696C6C76
:1003B00028292063616C6C656421006F6B005265B5
:1003C00073656E643A20002200556E6B6E6F776E17
:1003D00020636F6D6D616E643A2022005A204F6673
:1003E00066736574203A20007A5F6D61783A200068
:1003F0007A5F6D696E3A20005A204F6666736574A5
:10040000005A204F6666736574206F6B00486F74E6
:10041000656E64206F6666736574733A007A5F6D0B
:1004200061783A20007A5F6D696E3A2000795F6DDD
:1004300061783A2000795F6D696E3A2000785F6DCF
:1004400061783A2000785F6D696E3A2000205A3A50
:100450000020593A0020436F756E7420583A2000EE
:1004600020453A00205A3A0020593A00583A0046AE
:1004700049524D574152455F4E414D453A4D61728B
:100480006C696E20312E302E322B20446576656CDF
:100490006F706D656E742046726F6D204172636877
:1004A00069766520534F555243455F434F44455F3E
:1004B00055524C3A68747470733A2F2F6769746898
:1004C00075622E636F6D2F4D61726C696E46697235
:1004D0006D776172652F4D61726C696E2050524F5D
:1004E000544F434F4C5F56455253494F4E3A312E6D
:1004F00030204D414348494E455F545950453A4696
:10050000616C636F6E2045585452554445525F43A9
:100510004F554E543A3220555549443A3632366199
:10052000376632302D656534352D313165352D39DD
:100530006365392D356535353137353037633636B6
:100540000A0020423A0020453A00543A0020573A27
:100550000020453A00543A002042403A0020403AF8
:1005600000202F003A00205400202F0020423A00A3
:10057000202F006F6B20543A000A0A005374616EFA
:100580006461726420446576696174696F6E3A20B3
:10059000000A004D65616E3A20000A002020207A92
:1005A0003A200000793A2000783A20003F537065E5
:1005B000636966696564206E756D626572206F6639
:1005C000206C65677320696E206D6F76656D656E52
:1005D00074206E6F7420706C61757361626C652E2F
:1005E0000A003F537065636966696564205920702D
:1005F0006F736974696F6E206F7574206F662072F7
:10060000616E67652E0A003F5370656369666965B0
:1006100064205820706F736974696F6E206F7574F1
:10062000206F662072616E67652E0A003F53706509
:100630006369666965642073616D706C65207369B8
:100640007A65206E6F7420706C61757361626C6581
:100650002E0A0046756C6C20737570706F72742072
:1006600061743A20687474703A2F2F336470726921
:100670006E74626F6172642E636F6D2F666F727538
:100680006D2E7068700A004D3438205A2D50726FEC
:100690006265205265706561746162696C69747924
:1006A00020746573742E20202056657273696F6EF6
:1006B00020322E30300A003F566572626F7365201B
:1006C0004C6576656C206E6F7420706C617573611B
:1006D000626C652E0A002569206D696E2C202569E3
:1006E00020736563000A00205A3A200020593A20FE
:1006F0000020583A20004265640020643A2000201F
:10070000623A200045716E20636F656666696369B1
:10071000656E74733A20613A2000486F6D65205809
:100720002F59206265666F7265205A005A207072D8
:100730006F6265206F75742E2062656400486F6D6E
:100740006520582F59206265666F7265205A00FF38
:10075000FFFF00004D4300004D43000048430000F0
:10076000A0400000A0400000004000000000000089
:100770000000000000000000000000000000000079
:10078000000000004D4300004D43000048430A00B4
:10079000207A3A200020793A200020783A2000423E
:1007A0006564005072696E7465722073746F707046
:1007B00065642064756520746F206572726F727352
:1007C0002E2046697820746865206572726F7220E9
:1007D000616E6420757365204D39393920746F203E
:1007E000726573746172742E202854656D70657221
:1007F00061747572652069732072657365742E204B
:100800005365742069742061667465722072657323
:1008100074617274696E6729004E6F204C696E6551
:10082000204E756D62657220776974682063686513
:10083000636B73756D2C204C617374204C696E650D
:100840003A20004E6F20436865636B73756D2077A7
:10085000697468206C696E65206E756D6265722CB6
:10086000204C617374204C696E653A2000636865A2
:10087000636B73756D206D69736D617463682C2093
:100880004C617374204C696E653A20004C696E654A
:10089000204E756D626572206973206E6F74204CF6
:1008A000617374204C696E65204E756D6265722BA4
:1008B000312C204C617374204C696E653A20004DD8
:1008C000313130002020506C616E6E657242756669
:1008D00066657242797465733A20002046726565D8
:1008E000204D656D6F72793A20004D617220323271
:1008F000203230313600436F6D70696C65643A2088
:1009000000286E6F6E652C2064656661756C7420BE
:10091000636F6E6669672900207C20417574686F7B
:10092000723A20004D61722032322032303136204E
:1009300031373A35323A313100204C6173742055E9
:100940007064617465643A200020312E302E322BA1
:10095000004D61726C696E0020536F66747761722E
:100960006520526573657400205761746368646F15
:1009700067205265736574002042726F776E206F36
:100980007574205265736574002045787465726EC5
:10099000616C20526573657400506F776572557095
:1009A000007374617274002200656E717565696E02
:1009B000672022002200656E717565696E672022CE
:1009C0000020746F6F206C6F6E672065787472758D
:1009D00073696F6E2070726576656E746564002051
:1009E000636F6C6420657874727573696F6E2070C4
:1009F000726576656E7465640045303A20005A3A37
:100A00002000593A2000583A20004D53312C4D53C4
:100A1000322050696E730A0024F404D9201BC40CE0
:100A20005C0E9804C4095F0265077101F405F900C2
:100A3000FB04B30048048700C10369005803550054
:100A400003034500BE023A008402310053022A002B
:100A50002902250004022000E4011C00C80119003D
:100A6000AF011700980114008401130071011000F8
:100A70006101100051010E0043010D0036010B0011
:100A80002B010B0020010B00150109000C010900CE
:100A900003010800FB000800F3000800EB0007005A
:100AA000E4000600DE000600D8000600D2000600C2
:100AB000CC000500C7000500C2000500BD00040011
:100AC000B9000400B5000400B1000400AD0004004A
:100AD000A9000400A5000300A20003009F00040079
:100AE0009B000300980003009500020093000300A0
:100AF000900003008D0002008B00030088000200BC
:100B00008600020084000300810002007F000200D2
:100B10007D0002007B0002007900020077000100E6
:100B200076000200740002007200010071000200F1
:100B30006F0002006D0001006C0002006A000100FD
:100B40006900020067000100660001006500010005
:100B50006400020062000100610001006000010009
:100B60005F0002005D0001005C0001005B0001000D
:100B70005A0001005900010058000100570001000F
:100B80005600010055000100540001005300000010
:100B9000530001005200010051000100500001000B
:100BA0004F0001004E0000004E0001004D0001000A
:100BB0004C0001004B0000004B0001004A00010006
:100BC0004900010048000000480001004700010002
:100BD00046000000460001004500000045000100FD
:100BE00044000100430000004300010042000000F7
:100BF00042000100410000004100010040000100EE
:100C00003F0000003F0001003E0000003E000100E8
:100C10003D0000003D0001003C0000003C000000E1
:100C20003C0001003B0000003B0001003A000000D6
:100C30003A000100390000003900010038000000CE
:100C400038000000380001003700000037000100C4
:100C500036000000360000003600010035000000BC
:100C600035000000350001003400000034000000B1
:100C700034000100330000003300000033000100A5
:100C8000320000003200000032000100310000009C
:100C90003100000031000100300000003000000091
:100CA000300001002F0000002F0000002F00000086
:100CB0002F0001002E0000002E0000002E00010079
:100CC0002D0000002D0000002D0000002D0001006F
:100CD0002C0000002C0000002C0000002C00010063
:100CE0002B0000002B0000002B0000002B00010057
:100CF0002A0000002A0000002A0000002A0001004B
:100D0000290000002900000029000000290000003F
:100D10002900010028000000280000002800000031
:100D20002800000028000100270000002700000024
:100D30002700000027000000270001002600000017
:100D4000260000002600000026000000260001000A
:100D500025000000250000002500000025000000FF
:100D600025000000250001002400000024000000F0
:100D700024000000240000002400010023000000E3
:100D800023000000230000002300000023000000D7
:100D900023000000230001002200000022000000C8
:100DA00022000000220000002200000022000100BA
:100DB00021000000210000002100000021000000AF
:100DC000210000002100000021000100200000009F
:100DD0002000000020000000200000002000000093
:100DE0002000000020000000200001001F00000083
:100DF0001F0000001F0000001F0000001F00000077
:100E00001F0000001F0001001E0000001E00000067
:100E10001E0000001E00000024F4D43050C38E20B9
:100E2000C2A24017828B7011127A910D816CD90A7F
:100E3000A861E108C7586607615143061E4B5D056E
:100E4000C145A7041A411104093D980371393103C2
:100E50004036DB0265339102D4305402802E1D02ED
:100E6000632CEE01752AC501B028A001102781016D
:100E70008F2564012B244B01E0223401AC211F019A
:100E80008D200D01801FFC00841EED00971DDF00EA
:100E9000B81CD200E61BC600201BBC00641AB200BE
:100EA000B219A8000A19A0006A189900D117910078
:100EB00040178B00B516840031167E00B3157900FB
:100EC0003A157300C7146F0058146A00EE136600D9
:100ED0008813630025135E00C7125B006C12570075
:100EE00015125400C111510070114F0021114B0017
:100EF000D61049008D1047004610440002104200F1
:100F0000C00F4000800F3E00420F3C00060F3B0028
:100F1000CB0E3800930E37005C0E3500270E3400E0
:100F2000F30D3200C10D3100900D3000600D2E0028
:100F3000320D2D00050D2C00D90C2B00AE0C290014
:100F4000850C29005C0C2700350C27000E0C2600B0
:100F5000E80B2400C40B2400A00B23007D0B23000E
:100F60005A0B2100390B2100180B2000F80A1F0032
:100F7000D90A1E00BB0A1E009D0A1D00800A1D0022
:100F8000630A1C00470A1B002C0A1B00110A1A00E6
:100F9000F7091A00DD091900C4091900AB09190085
:100FA000920917007B091800630917004C09160005
:100FB00036091600200916000A091500F508150063
:100FC000E0081400CC081400B8081400A4081400A9
:100FD000900813007D0812006B08130058081200D7
:100FE00046081200340811002308110012081100ED
:100FF00001081100F0071000E0071000D0071000F2
:10100000C0071000B0070F00A107100091070E00E5
:1010100083070F0074070F0065070E0057070E00C7
:1010200049070E003B070D002E070E0020070D009C
:1010300013070D0006070D00F9060C00ED060D0064
:10104000E0060C00D4060C00C8060C00BC060C0020
:10105000B0060C00A4060B0099060C008D060B00D0
:1010600082060B0077060B006C060B0061060A0077
:1010700057060B004C060A0042060A0038060A0012
:101080002E060A0024060A001A060A0010060900A5
:1010900007060A00FD050900F4050900EB05090033
:1010A000E2050900D9050900D0050900C7050900B6
:1010B000BE050900B5050800AD050800A505090035
:1010C0009C050800940508008C05080084050800AC
:1010D0007C050800740508006C050700650508001C
:1010E0005D050700560508004E0507004705070087
:1010F0004005080038050700310507002A050700EC
:10110000230507001C050600160507000F0507004C
:101110000805060002050700FB040600F5040700A9
:10112000EE040600E8040600E2040700DB04060003
:10113000D5040600CF040600C9040600C304060057
:10114000BD040600B7040600B1040500AC040600A7
:10115000A6040600A00405009B04060095040500F3
:10116000900406008A04050085040500800406003A
:101170007A04050075040500700405006B04050081
:1011800066040500610405005C04050057040500C1
:10119000520405004D040500480405004304050001
:1011A0003E0404003A040500350405003004040040
:1011B0002C04050027040400230405001E04040079
:1011C0001A04040016040500110404000D040400B0
:1011D000090405000404040000040400FC030400E6
:1011E000F8030400F4030400F0030400EC0304001B
:1011F000E8030400E4030400E0030400DC0304004B
:10120000D8030400D4030400D0030400CC0304007A
:10121000C8030300C5030300205A3A0020593A00CE
:1012200020583A00656E6473746F70732068697437
:101230003A200054656D706572617475726520683E
:10124000656174656420626564207377697463689E
:101250006564206F66662E204D415854454D5020E0
:10126000747269676765726564202121003A2045C0
:1012700078747275646572207377697463686564E5
:10128000206F66662E204D494E54454D5020747295
:10129000696767657265642021003A204578747239
:1012A00075646572207377697463686564206F661E
:1012B000662E204D415854454D5020747269676721
:1012C00065726564202100202D20496E76616C696D
:1012D00064206578747275646572206E756D6265E0
:1012E00072202100504944204175746F74756E65F9
:1012F0002066696E69736865642120507574207476
:101300006865206C617374204B702C204B692061E0
:101310006E64204B6420636F6E7374616E7473200F
:1013200066726F6D2061626F766520696E746F20E2
:10133000436F6E66696775726174696F6E2E6800BF
:10134000504944204175746F74756E6520666169FB
:101350006C6564212074696D656F75740020403A76
:10136000006F6B20543A006F6B20423A00504944A2
:10137000204175746F74756E65206661696C656473
:10138000212054656D706572617475726520746F8B
:101390006F206869676800204B643A2000204B6921
:1013A0003A2000204B703A200020436C617373692F
:1013B000632050494420002054753A2000204B758A
:1013C0003A2000206D61783A2000206D696E3A2045
:1013D0000020643A200020626961733A20000A000C
:1013E00020000A00207A3A200020793A2000207854
:1013F0003A200000002100240027002A002D0030A0
:1014000000330001010000040107010A010000226D
:1014100000250028002B002E0031003400020100BE
:1014200000050108010B010000200023002600290F
:10143000002C002F0032000001000003010601090A
:101440000105050505070508080808020202020A49
:101450000A08080404040401010101010101010357
:1014600003030303030303040707070C0C0C0C0C12
:101470000C0C0C0202020206060606060606060B05
:101480000B0B0B0B0B0B0B0102102020080810207C
:101490004010204080020102010804020101020400
:1014A00008102040808040201008040201800402BF
:1014B0000180402010080402010804020101020416
:1014C000081020408001020408102040800000091C
:1014D0000A02080B0C0D07060304010000000000BF
:1014E00000000000000000000000000000000000FC
:1014F00000000000000000000011100F00000000BC
:1015000000000000000000000000000000000000DB
:10151000000000494E46494E4954594E414ECDCCEB
:10152000CC3D0AD7233C17B7D13877CC2B329595D1
:10153000E6241FB14F0A000020410000C8420040CD
:101540001C4620BCBE4CCA1B0E5AAEC59D747846C4
:10155000E18C11241FBECFEFD1E2DEBFCDBF00E092
:101560000CBF14E0A0E0B2E0E0E5F1E301E00BBF66
:1015700002C007900D92A43BB107D9F71BBE1EE035
:10158000A4EBB4E001C01D92A037B107E1F715E16B
:10159000C2E5D5E104C02297FE010E946098CE34D6
:1015A000D107C9F70E9440930C94A6980C940000B0
:1015B000A0E0B0E0EEEDFAE00C947598EC015B0170
:1015C0006115710519F0FB0191838083F9908F2DCE
:1015D00090E00E946498892BC9F7FDE2FF1621F480
:1015E000F990EE24E39405C02BE2F21609F4F99089
:1015F000EE248E0101501040C80163E175E143E023
:1016000050E062D2892BF9F48E010E5F1F4FC801A2
:1016100066E175E145E050E057D2892B19F48E015F
:10162000095F1F4FA114B10419F0F5011183008364
:10163000E0FC04C070E090E080E813C070E090E04F
:1016400080E86FEF07C1C8016BE175E143E050E04E
:101650003BD2892B69F4A114B10429F470E090E025
:1016600080EC6FE7F7C02296F501D183C083F6CFF7
:101670008824992440E050E060E070E0EF2DE053D2
:10168000EA30A0F5F2E0EF2A8E2D90E09C01287060
:101690003070E2FE06C0232B79F50894811C911C62
:1016A0002BC0232B19F0089481089108DB01CA0193
:1016B00012E0880F991FAA1FBB1F1A95D1F7480F78
:1016C000591F6A1F7B1F440F551F661F771F4E0F40
:1016D000511D611D711D483929E9520729E9620729
:1016E00029E1720748F084E0E82A06C0EE3F31F4B1
:1016F000E3FC39C098E0E92AF990C0CFE53311F056
:10170000E53189F529912D3219F4E0E1EE2A05C081
:101710002B3219F081E090E003C0299182E090E043
:10172000E22FE053EA3018F0C81BD90B1CC020E0B0
:1017300030E0FCE020383F075CF4C901880F991FB6
:10174000880F991F280F391F220F331F2E0F311DAD
:10175000E991E053EA3068F3E4FE03C03095219547
:101760003F4F820E931ECE2CDD24E1FE07C0A11454
:10177000B10421F02197F501D183C083CB01BA01D7
:101780000E94C9947B018C01F3E0CF22DD2423E089
:10179000C216D10421F417FB109517F910955701C3
:1017A0006801C801B70120E030E040E050E00E944D
:1017B0002994882309F44AC097FE0DC022E3E22E43
:1017C00025E1F22E9094819491089394C0E2D0E0A8
:1017D00000E010E012C09AE4E92E95E1F92EF6CF70
:1017E000F7012591359145915491C601B5010E94AB
:1017F00009975B016C018C1A9D0A8C169D0684F773
:10180000D595C7950F5F1F4F0630110529F08CEF56
:101810009FEFE80EF91EF1CFC501D6017C018D01C5
:101820008C2D880F8D2D881F8F3F51F0C601B5017B
:1018300020E030E040E050E00E942994882331F419
:1018400082E290E090936F0E80936E0E7E2D9F2D1E
:10185000802F612F272F392F482F562FB901CA010A
:10186000CDB7DEB7ECE00C9491982F923F925F9247
:101870006F927F928F929F92AF92BF92CF92DF92A0
:10188000EF92FF920F931F93CF93DF938C011B0175
:10189000EA016115710519F0FB019183808320979E
:1018A00049F0CE010297839728F020E030E040E035
:1018B00050E0F6C0F801A1908F018A2D90E00E94BF
:1018C0006498892BB9F7FDE2AF1631F4F801A190C5
:1018D0008F015524539407C0FBE2AF1619F4F801A9
:1018E000A1908F015524209719F0C031D105C1F482
:1018F000F0E3AF1679F4F8018081883711F088356C
:1019000049F4F801A1800E5F1F4FF2E05F2AC0E1A9
:10191000D0E006C0209721F480E3A816E9F427C0A0
:10192000C830D10531F1C930D10524F4C230D10518
:1019300031F50CC0CA30D10589F0C031D105F9F4B8
:10194000C12CD12CE12CB8E0FB2E28C0C12CD12C0D
:10195000E12CA0E4FA2E22C0CAE0D0E0FCECCF2EAD
:10196000FCECDF2EFCECEF2EFCE0FF2E17C0C8E0F5
:10197000D0E0C12CD12CE12CE0E1FE2E0FC09E0165
:10198000442737FD4095542F60E070E080E090E8F8
:101990000E942198C901DA016C017D0120E030E04C
:1019A00040E050E060E03E01882477FC8094982C71
:1019B00070EDB72EBA0CE9E0EB1570F48A2D815466
:1019C0008A3118F499ECB92E06C08A2D81568A31D5
:1019D00050F589EAB82EBA0C8B2D90E08C179D0734
:1019E00014F56F3FE1F0C216D306E406F506B0F039
:1019F000CA01B901A40193010E94DB979B01AC01CC
:101A00002B0D311D411D511D2130F0E03F07F0E04D
:101A10004F07F0E85F0710F461E001C06FEFF801D5
:101A2000A1908F01C5CF2114310481F0662331F0DC
:101A300001501040F1011183008308C051FE1AC00B
:101A400002501040F1011183008314C067FF12C0DF
:101A500050FC05C02FEF3FEF4FEF5FE704C020E0E1
:101A600030E040E050E882E290E090936F0E809387
:101A70006E0E16C050FE08C05095409530952195C9
:101A80003F4F4F4F5F4F0CC057FF0AC082E290E0BC
:101A900090936F0E80936E0E2FEF3FEF4FEF5FE747
:101AA000B901CA01DF91CF911F910F91FF90EF9083
:101AB000DF90CF90BF90AF909F908F907F906F906E
:101AC0005F903F902F900895FB01DC014150504002
:101AD00088F08D9181341CF08B350CF4805E65911B
:101AE00061341CF06B350CF4605E861B611171F380
:101AF000990B0895881BFCCFFB0155915523A9F044
:101B0000BF01DC014D9145174111E1F759F4CD01B9
:101B10000590002049F04D9140154111C9F3FB019A
:101B20004111EFCF81E090E001970895FC01819190
:101B3000861721F08823D9F7992708953197CF0187
:101B40000895FB01DC018D91019080190110D9F3FA
:101B5000990B0895AEE0B0E0E0EBFDE00C947D98C9
:101B60000E891F898EE08C831A8309838FEF9FE78C
:101B70009E838D839E01265E3F4FCE010196688D28
:101B8000798DA9010AD02F813885020F131FF80122
:101B900010822E96E4E00C949998ABE0B0E0E3ED6F
:101BA000FDE00C946F983C012B015A01FC01178257
:101BB0001682838181FD03C06FEF7FEFB9C19AE088
:101BC000892E1E010894211C311CF3012381F2018E
:101BD00023FD859123FF81912F01882309F4A5C15D
:101BE000853239F423FD859123FF81912F018532C0
:101BF00021F490E0B301B7D1E8CF982FFF24EE2471
:101C00009924FFE1FF15D0F09B3269F09C3228F453
:101C1000903259F0933291F40EC09D3249F09033D6
:101C200069F441E024C052E0F52A84E0F82A28C093
:101C300098E0F92A25C0E0E1FE2A22C0F7FC29C07D
:101C4000892F80538A3070F4F6FE05C0989C902C42
:101C50001124980E15C0E89CE02C1124E80EF0E247
:101C6000FF2A0EC09E3229F4F6FC5FC140E4F42A3C
:101C700007C09C3619F450E8F52A02C0983649F49A
:101C8000F20123FD959123FF91912F01992309F0F2
:101C9000B8CF892F8554833018F08052833038F4C0
:101CA00044E050E0A40EB51E5FE359830FC09336A5
:101CB00031F0933779F0933509F052C01FC0F50128
:101CC0008081898342E050E0A40EB51E610101E0ED
:101CD00010E011C0F501C080D180F6FC03C06FEFA9
:101CE0007FEF02C0692D70E042E050E0A40EB51E07
:101CF000C6012ED18C015FE7F52213C0F501C0802B
:101D0000D180F6FC03C06FEF7FEF02C0692D70E059
:101D100042E050E0A40EB51EC6010FD18C0150E880
:101D2000F52AF3FE06C018C080E290E0B3011BD193
:101D3000EA948E2D90E008171907B0F30DC0F60154
:101D4000F7FC8591F7FE81916F0190E0B3010BD113
:101D5000E110EA94015010400115110581F7E2C02D
:101D6000943611F0993661F5F7FE08C0F50120812F
:101D700031814281538184E090E00AC0F501808185
:101D800091819C01442737FD4095542F82E090E0DB
:101D9000A80EB91E9FE6F92257FF09C0509540953D
:101DA000309521953F4F4F4F5F4FE0E8FE2ACA0123
:101DB000B901A1012AE030E002D1D82ED2183FC0EB
:101DC000953729F41F2D1F7E2AE030E01DC01F2DFE
:101DD000197F9F3661F0903720F4983509F0A5C03F
:101DE0000FC0903739F0983709F09FC004C028E041
:101DF00030E00AC0106114FD146020E130E004C03E
:101E000014FD166020E132E017FF08C0F501608183
:101E100071818281938144E050E008C0F5018081A6
:101E20009181BC0180E090E042E050E0A40EB51E3C
:101E3000A101C5D0D82ED2188FE7F82EF122F6FED8
:101E40000BC05EEFF522D91438F4F4FE07C0F2FCA3
:101E500005C08FEEF82202C01D2D01C0192DF4FE21
:101E60000DC0FE01ED0DF11D8081803319F499EE56
:101E7000F92208C01F5FF2FE05C003C08F2D8678CF
:101E800009F01F5F0F2DF3FC13C0F0FE0EC01E15EE
:101E900010F09D2C0AC09D2C9E0C911A1E2D05C081
:101EA00080E290E0B3015FD01F5F1E15C8F304C04D
:101EB0001E1510F4E11A01C0EE2404FF0EC080E3E9
:101EC00090E0B30150D002FF1BC001FD03C088E7C2
:101ED00090E00EC088E590E00BC0802F867881F0FE
:101EE00001FF02C08BE201C080E2F7FC8DE290E0CE
:101EF000B30139D005C080E390E0B30134D09A94A7
:101F0000D914C8F3DA94F101ED0DF11D808190E050
:101F1000B30129D0DD20B1F705C080E290E0B30124
:101F200022D0EA94EE20C9F750CEF3016681778182
:101F3000CB012B96E2E10C948B98FC01059061504B
:101F400070400110D8F7809590958E0F9F1F0895CF
:101F5000FC016150704001900110D8F78095909578
:101F60008E0F9F1F08950F931F93CF93DF938C01C4
:101F7000EB018B8181FF1BC082FF0DC02E813F8151
:101F80008C819D812817390764F4E881F9810193D8
:101F9000F983E88306C0E885F985802F1995892B98
:101FA00031F48E819F8101969F838E8302C00FEF53
:101FB0001FEFC801DF91CF911F910F910895FA0192
:101FC000AA27283051F1203181F1E8946F936E7F78
:101FD0006E5F7F4F8F4F9F4FAF4FB1E03ED0B4E069
:101FE0003CD0670F781F891F9A1FA11D680F791FAA
:101FF0008A1F911DA11D6A0F711D811D911DA11DBB
:1020000020D009F468943F912AE0269F11243019CA
:10201000305D3193DEF6CF010895462F4770405D65
:102020004193B3E00FD0C9F7F6CF462F4F70405D14
:102030004A3318F0495D31FD4052419302D0A9F76F
:10204000EACFB4E0A6959795879577956795BA9569
:10205000C9F700976105710508959B01AC010A2E2F
:1020600006945795479537952795BA95C9F7620F06
:10207000731F841F951FA01D0895DF93CF93CDB7C5
:10208000DEB7E0970FB6F894DEBF0FBECDBFDE011E
:102090001196E8E4F4E080E101900D928150E1F7BF
:1020A000DE015196E8E3F4E080E101900D92815069
:1020B000E1F7DE019196E8E2F4E080E101900D9213
:1020C0008150E1F789819A81AB81BC818093770748
:1020D00090937807A0937907B0937A0789899A89B2
:1020E000AB89BC898093630790936407A0936507CD
:1020F000B093660789A19AA1ABA1BCA180938B077D
:1021000090938C07A0938D07B0938E078D819E814D
:10211000AF81B88580937B0790937C07A0937D0760
:10212000B0937E078D899E89AF89B88D80936707AC
:1021300090936807A0936907B0936A078DA19EA149
:10214000AFA1B8A580938F0790939007A0939107B4
:10215000B093920789859A85AB85BC8580937F076C
:1021600090938007A0938107B0938207898D9A8D01
:10217000AB8DBC8D80936B0790936C07A0936D071C
:10218000B0936E0789A59AA5ABA5BCA580939307CC
:1021900090939407A0939507B09396078D859E859D
:1021A000AF85B8898093830790938407A0938507B0
:1021B000B09386078D8D9E8DAF8DB8A180936F07EC
:1021C00090937007A0937107B09372078DA59EA599
:1021D000AFA5B8A98093970790939807A093990704
:1021E000B0939A070E94544D80E090E8ABE3B5E4C9
:1021F0008093A3079093A407A093A507B093A60785
:102200008093A7079093A807A093A907B093AA0764
:1022100020E030E040E050E020939F073093A0079B
:102220004093A1075093A20780E29EE4A0E0B0E0B3
:1022300080935F0790936007A0936107B093620754
:102240002093B7073093B8074093B9075093BA0764
:1022500080E090E0A0EAB1E48093AB079093AC07F4
:10226000A093AD07B093AE078DEC9CECACECBEE355
:102270008093AF079093B007A093B107B093B207D4
:1022800080E090E0A0EAB0E48093B3079093B407B5
:10229000A093B507B093B6072093D7043093D80422
:1022A0004093D9045093DA042093D3043093D40498
:1022B0004093D5045093D6042093CF043093D00498
:1022C0004093D1045093D2048AE999E9A5E4B1E49A
:1022D0008093EA049093EB04A093EC04B093ED0494
:1022E0008AE999E9A1EBB1E4809308049093090489
:1022F000A0930A04B0930B0461E77DE38AE89FE3AF
:102300000E94797C60930C0470930D0480930E04FA
:1023100090930F0460E070E084EE92E40E94857C6C
:10232000609310047093110480931204909313042B
:102330000E94267C80E090E0A0E8BFE38093140434
:1023400090931504A0931604B09317041092BA0446
:1023500080E090E0A0E4B0E48093A8039093A90308
:10236000A093AA03B093AB038093AC039093AD0307
:10237000A093AE03B093AF0354D4E0E2F3E09491A2
:1023800008C08091C00085FFFCCF9093C6003196B5
:1023900094919923B1F7EFE2F1E0949108C0809114
:1023A000C00085FFFCCF9093C6003196949199238D
:1023B000B1F78091C00085FFFCCF8AE08093C60012
:1023C000E0960FB6F894DEBF0FBECDBFCF91DF9180
:1023D0000895CF93DF93C0E2D3E0FE01949108C04B
:1023E0008091C00085FFFCCF9093C60031969491F8
:1023F0009923B1F7E9E0F3E0949108C08091C0001F
:1024000085FFFCCF9093C600319694919923B1F744
:102410008091C00085FFFCCF8AE08093C600FE015A
:102420009491E0E2F3E008C08091C00085FFFCCF0A
:102430009093C600319694919923B1F74091770714
:10244000509178076091790770917A0781E093E065
:102450000E949F1C40917B0750917C0760917D07F3
:1024600070917E078EEF92E00E949F1C40917F0743
:102470005091800760918107709182078BEF92E005
:102480000E949F1C409183075091840760918507AB
:102490007091860788EF92E00E949F1CE0E0F2E0D6
:1024A00007C08091C00085FFFCCF31969093C60095
:1024B00090819923B1F78091C00085FFFCCF8AE01D
:1024C0008093C600FE019491E0E2F3E008C08091A1
:1024D000C00085FFFCCF9093C6003196949199235C
:1024E000B1F7EEEDF2E0949108C08091C00085FF55
:1024F000FCCF9093C600319694919923B1F78091C7
:10250000C00085FFFCCF8AE08093C600FE01949155
:10251000E0E2F3E008C08091C00085FFFCCF90931B
:10252000C600319694919923B1F740916307509179
:102530006407609165077091660785ED92E00E94DF
:102540009F1C4091670750916807609169077091DF
:102550006A0782ED92E00E949F1C40916B075091A8
:102560006C0760916D0770916E078FEC92E00E948E
:102570009F1C40916F075091700760917107709197
:1025800072078CEC92E00E949F1CE0E0F2E007C032
:102590008091C00085FFFCCF31969093C60090815A
:1025A0009923B1F78091C00085FFFCCF8AE080932A
:1025B000C600FE019491E0E2F3E008C08091C00003
:1025C00085FFFCCF9093C600319694919923B1F783
:1025D000EEEAF2E0949108C08091C00085FFFCCF44
:1025E0009093C600319694919923B1F78091C000E1
:1025F00085FFFCCF8AE08093C600FE019491E0E263
:10260000F3E008C08091C00085FFFCCF9093C60026
:10261000319694919923B1F740918B0750918C0793
:1026200060918D0770918E0785EA92E00E94EA1E04
:1026300040918F0750919007609191077091920798
:1026400082EA92E00E94EA1E40919307509194071B
:1026500060919507709196078FE992E00E94EA1EBB
:1026600040919707509198076091990770919A0748
:102670008CE992E00E94EA1EE0E0F2E007C080915F
:10268000C00085FFFCCF31969093C60090819923BE
:10269000B1F78091C00085FFFCCF8AE08093C6002F
:1026A000FE019491E0E2F3E008C08091C00085FF54
:1026B000FCCF9093C600319694919923B1F7E7E649
:1026C000F2E0949108C08091C00085FFFCCF909308
:1026D000C600319694919923B1F78091C00085FF8F
:1026E000FCCF8AE08093C600FE019491E0E2F3E023
:1026F00008C08091C00085FFFCCF9093C600319642
:1027000094919923B1F74091A3075091A407609148
:10271000A5077091A6078EE592E00E949F1C40914C
:10272000A7075091A8076091A9077091AA078BE5A8
:1027300092E00E949F1CE0E0F2E007C08091C000A0
:1027400085FFFCCF31969093C60090819923B1F715
:102750008091C00085FFFCCF8AE08093C600FE0117
:102760009491E0E2F3E008C08091C00085FFFCCFC7
:102770009093C600319694919923B1F7E8EAF1E07D
:10278000949108C08091C00085FFFCCF9093C60053
:10279000319694919923B1F78091C00085FFFCCFC9
:1027A0008AE08093C600FE019491E0E2F3E008C065
:1027B0008091C00085FFFCCF9093C6003196949124
:1027C0009923B1F740919F075091A0076091A1070D
:1027D0007091A2078FE991E00E949F1C4091B7077A
:1027E0005091B8076091B9077091BA078CE991E0F0
:1027F0000E949F1C40915F075091600760916107A4
:102800007091620789E991E00E94EA1E4091AB074E
:102810005091AC076091AD077091AE0786E991E0E9
:102820000E949F1C4091AF075091B0076091B10783
:102830007091B20783E991E00E949F1C4091B30719
:102840005091B4076091B5077091B60780E991E0A7
:102850000E949F1CE0E0F2E007C08091C00085FF6D
:10286000FCCF31969093C60090819923B1F7809167
:10287000C00085FFFCCF8AE08093C600FE019491E2
:10288000E0E2F3E008C08091C00085FFFCCF9093A8
:10289000C600319694919923B1F7EEE7F1E0949157
:1028A00008C08091C00085FFFCCF9093C600319690
:1028B00094919923B1F78091C00085FFFCCF8AE005
:1028C0008093C600FE019491E0E2F3E008C080919D
:1028D000C00085FFFCCF9093C60031969491992358
:1028E000B1F74091CF045091D0046091D104709120
:1028F000D20485E791E00E949F1C4091D30450913F
:10290000D4046091D5047091D60482E791E00E94CE
:102910009F1C4091D7045091D8046091D9047091C4
:10292000DA048FE691E00E949F1CE0E0F2E007C02D
:102930008091C00085FFFCCF31969093C6009081B6
:102940009923B1F78091C00085FFFCCF8AE0809386
:10295000C600FE019491E0E2F3E008C08091C0005F
:1029600085FFFCCF9093C600319694919923B1F7DF
:10297000E1E6F1E0949108C08091C00085FFFCCFB2
:102980009093C600319694919923B1F78091C0003D
:1029900085FFFCCF8AE08093C600FE019491E0E2BF
:1029A000F3E008C08091C00085FFFCCF9093C60083
:1029B000319694919923B1F74091080450910904FC
:1029C00060910A0470910B0487E591E0B8D760919B
:1029D0000C0470910D0480910E0490910F040E94DC
:1029E0007F7CAB01BC0184E591E0A9D76091100424
:1029F0007091110480911204909113040E948B7CB9
:102A0000AB01BC0181E591E09AD7E0E0F2E007C0BC
:102A10008091C00085FFFCCF31969093C6009081D5
:102A20009923B1F78091C00085FFFCCF8AE08093A5
:102A3000C600DF91CF910895EF92FF920F931F93FD
:102A4000CF93DF93EC01E090DB04F090DC04009185
:102A5000DD041091DE04688179818A819B81A8015F
:102A600097010E942994882324F4E882F9820A833A
:102A70001B83E090DF04F090E0040091E1041091EA
:102A8000E2046C817D818E819F81A80197010E9463
:102A90002994882324F4EC82FD820E831F83E09026
:102AA000D704F090D8040091D9041091DA04C80139
:102AB000B70120E030E040E050E00E94299487FD1B
:102AC00005C06AE979E985E491EC08C0C801B7015D
:102AD0002AE939E945E451E40E944F932091E30447
:102AE0003091E4044091E5045091E6040E94509333
:102AF0007B018C01688579858A859B85A801970172
:102B00000E942994882324F4E886F9860A871B8783
:102B1000E090B803F090B9030091BA031091BB03A1
:102B2000688179818A819B81A80197010E943796EB
:102B3000181624F4E882F9820A831B83E090BC0310
:102B4000F090BD030091BE031091BF036C817D81A5
:102B50008E819F81A80197010E943796181624F450
:102B6000EC82FD820E831F83E090C003F090C103CE
:102B70000091C2031091C303688579858A859B857E
:102B8000A80197010E943796181624F4E886F98662
:102B90000A871B87DF91CF911F910F91FF90EF90D4
:102BA000089580910A050895EF92FF920F931F9365
:102BB0009B01AC018091BA04882321F1CA01B901BB
:102BC00020E030E040E05FE30E9409977B018C0148
:102BD00020E030E040E050E00E942994882391F00A
:102BE000C801B701A80197010E9409979B01AC0198
:102BF000CA012BED3FE049E450E40E9409979B0194
:102C0000AC0104C020E030E040E85FE360E070E049
:102C100080E89FE30E9430941F910F91FF90EF9006
:102C200008956091A8037091A9038091AA039091DF
:102C3000AB03BADF6093B0037093B1038093B20328
:102C40009093B3036091AC037091AD038091AE0398
:102C50009091AF03A9DF6093B4037093B5038093A1
:102C6000B6039093B70308950E94557C80910A059E
:102C7000882309F036C081E080930A0580910D0514
:102C800090910E05A0910F05B0911005809311054C
:102C900090931205A0931305B0931405E9E1F3E0B6
:102CA000949108C08091C00085FFFCCF9093C6002E
:102CB000319694919923B1F7E6E2F3E0949108C03C
:102CC0008091C00085FFFCCF9093C600319694910F
:102CD0009923B1F78091C00085FFFCCF8AE08093F3
:102CE000C6000895CF93DF93F8940E94557C5F9AB5
:102CF0001092E7048A9A1092E8048FB7F8949091A2
:102D000008019160909308018FBF1092E904129A14
:102D1000479A8CE060E00E942B92E9E1F3E0949105
:102D200008C08091C00085FFFCCF9093C60031960B
:102D300094919923B1F7ECE9F3E0949108C0809164
:102D4000C00085FFFCCF9093C600319694919923E3
:102D5000B1F78091C00085FFFCCF8AE08093C60068
:102D60007894C5E0D0E006C068EC70E080E090E0C8
:102D70000E94929021978FEFCF3FD807A9F7F89440
:102D8000FFCF0E948490609317057093180580937D
:102D9000190590931A05EBEBF3E0949108C080912C
:102DA000C00085FFFCCF9093C60031969491992383
:102DB000B1F78091C00085FFFCCF8AE08093C60008
:102DC00008956F927F928F929F92AF92BF92CF920F
:102DD000DF92EF92FF920F931F93F82E60911F05E1
:102DE0007091200580912105909122052091230565
:102DF0003091240540912505509126050E94449666
:102E00003B014C0100D000D00DB71EB70F5F1F4F24
:102E10006091A0037091A103882777FD8095982F7A
:102E20000E94CB942091C9033091CA034091CB03F7
:102E30005091CC030E94099720E030E040E752E433
:102E40000E94309420E030E048EC52E40E9430943C
:102E50005B016C01F8016082718282829382F4824C
:102E60008091FE0485838BEB94E06BE275E04FE18B
:102E700055E020E001E032E0E32E0E9435488091E9
:102E80002B0590912C05A0912D05B0912E058093D6
:102E9000BB049093BC04A093BD04B093BE04809186
:102EA0002F0590913005A0913105B09132058093A6
:102EB000BF049093C004A093C104B093C204809156
:102EC000330590913405A0913505B0913605809376
:102ED000C3049093C404A093C504B093C604809126
:102EE000370590913805A0913905B0913A05809346
:102EF000C7049093C804A093C904B093CA048091F6
:102F00003B0590913C05A0913D05B0913E05809315
:102F1000CB049093CC04A093CD04B093CE048DB792
:102F20009EB706960FB6F8949EBF0FBE8DBF0E9447
:102F300084906093170570931805809319059093FA
:102F40001A051F910F91FF90EF90DF90CF90BF90E7
:102F5000AF909F908F907F906F9008954F925F9267
:102F60006F927F928F929F92AF92BF92CF92DF9299
:102F7000EF92FF920F931F93DF93CF9300D00F92A6
:102F8000CDB7DEB78BE295E057DD0E948490609369
:102F90001705709318058093190590931A05809171
:102FA0002B0590912C05A0912D05B0912E058983BC
:102FB0009A83AB83BC836091BB047091BC04809105
:102FC000BD049091BE0429813A814B815C810E94AD
:102FD0002994882309F0AEC040902F055090300509
:102FE00060903105709032056091BF047091C0040B
:102FF0008091C1049091C204A30192010E9429947E
:10300000882309F097C00F920F92CDB6DEB60894D0
:10301000C11CD11CE0903305F090340500913505BA
:10302000109136056091C9037091CA038091CB035A
:103030009091CC0320E030E040E752E40E943094CD
:103040004B015C018EEF94E0D6018D939C936981D6
:103050007A818B819C81A3019201E7E3CE2EE5E08A
:10306000DE2E0E946E530F900F9080912B05909151
:103070002C05A0912D05B0912E058093BB04909353
:10308000BC04A093BD04B093BE0480912F05909121
:103090003005A0913105B09132058093BF04909323
:1030A000C004A093C104B093C204809133059091F1
:1030B0003405A0913505B09136058093C3049093F3
:1030C000C404A093C504B093C604809137059091C1
:1030D0003805A0913905B0913A058093C7049093C3
:1030E000C804A093C904B093CA0480913B05909191
:1030F0003C05A0913D05B0913E058093CB04909393
:10310000CC04A093CD04B093CE040F900F900F90F9
:103110000F90CF91DF911F910F91FF90EF90DF9073
:10312000CF90BF90AF909F908F907F906F905F9067
:103130004F9008950F920F92CDB6DEB60894C11C41
:10314000D11C40902F055090300560903105709053
:103150003205E0903305F09034050091350510916B
:1031600036056091A0037091A103882777FD8095B3
:10317000982F0E94CB942091C9033091CA034091AB
:10318000CB035091CC030E94099720E030E040E748
:1031900052E40E94309420E030E048EC52E40E9477
:1031A00030944B015C018EEF94E0F60191838083B3
:1031B0004ECF8EE597E00E946F46EEEBF3E09491E0
:1031C00008C08091C00085FFFCCF9093C600319667
:1031D00094919923B1F740910D0550910E0560919E
:1031E0000F05709110054F5F5F4F6F4F7F4F8EE55A
:1031F00097E02AE030E00E942D478091C00085FFD3
:10320000FCCF8AE08093C600BCCD2F923F924F92B4
:103210005F926F927F928F929F92AF92BF92CF9266
:10322000DF92EF92FF920F931F93DF93CF93CDB76F
:10323000DEB762970FB6F894DEBF0FBECDBF6D83C9
:103240007E838F83988729873A874B875C87209175
:10325000C9033091CA034091CB035091CC03298319
:103260003A834B835C8360919803709199038091BA
:103270009A0390919B036093C9037093CA03809350
:10328000CB039093CC03F3EC2F2EF4E03F2EE0928F
:10329000C304F092C4040093C5041093C6040F92B3
:1032A0000F92CDB6DEB60894C11CD11CABEBB4E0D6
:1032B0002D913D914D915C912D873E874F87588B85
:1032C000F1017290629052904290FA8BE98B24E067
:1032D00030E0220E331E20E030E040E752E40E944E
:1032E00030944B015C01EEEFF4E0D601ED93FC93DA
:1032F0006D857E858F859889A301920161010E9469
:103300006E530F900F900E943C7480E090E0AAEF03
:10331000B5E48093C9039093CA03A093CB03B09301
:10332000CC032D813E814F815885ABEBB4E02D93CA
:103330003D934D935C93139729853A854B855C8526
:10334000A989BA892D933D934D935C9313970F925E
:103350000F92E090C304F090C4040091C504109152
:10336000C6042EEF34E0EDB7FEB7328321836D81C2
:103370007E818F81988529853A854B855C850F2EC6
:10338000F5E58F2EF5E59F2EF5E0AF2EF3E4BF2E89
:10339000F02D0E946E530F900F900E943C74898113
:1033A0009A81AB81BC818093C9039093CA03A09397
:1033B000CB03B093CC0362960FB6F894DEBF0FBE7A
:1033C000CDBFCF91DF911F910F91FF90EF90DF90D4
:1033D000CF90BF90AF909F908F907F906F905F90B5
:1033E0004F903F902F9008958091C9039091CA0308
:1033F000A091CB03B091CC038093440590934505F5
:10340000A0934605B09347058091A0039091A10336
:103410009093B9048093B80484E690E09093A1035C
:103420008093A0030E948490609317057093180501
:103430008093190590931A0581E00C94227380E023
:103440000E9422738091440590914505A091460504
:10345000B09147058093C9039093CA03A093CB030F
:10346000B093CC038091B8049091B9049093A103D8
:103470008093A0030E9484906093170570931805B1
:103480008093190590931A0508952F923F924F92B9
:103490005F926F927F928F929F92AF92BF92CF92E4
:1034A000DF92EF92FF920F931F93DF93CF93CDB7ED
:1034B000DEB76C970FB6F894DEBF0FBECDBF9C8F02
:1034C0008B8F8330910508F00EC2FC01E15BF84F51
:1034D000B4901C01220C331C220C331C9101255486
:1034E0003B4F3E832D8380E090E0A0E0B0E0F90107
:1034F00080839183A283B3836091BB047091BC04E9
:103500008091BD049091BE042091BF043091C0040D
:103510004091C1045091C204E090C304F090C404EF
:103520000091C5041091C604B7ECCB2EB4E0DB2E9D
:103530000E949C4DF101EE5AF84FE590F5900591EF
:1035400014916B2D772767FD7095882777FD8095FF
:10355000982F0E94CB9469837A838B839C839101FB
:10356000255D3A4F38872F83C801B70120E030E04E
:1035700040EC5FE30E94099729813A814B815C818D
:103580000E940997AF81B8856D937D938D939C932D
:103590001397F101E057FC4FFA87E9876081718149
:1035A000828193816093C9037093CA038093CB0394
:1035B0009093CC030F920F92CDB6DEB60894C11C47
:1035C000D11C40902B0550902C0560902D057090DB
:1035D0002E0520912F0530913005409131055091F5
:1035E00032052B873C874D875E87E0903305F0904E
:1035F0003405009135051091360520E030E040E7B4
:1036000052E40E9430944B015C01EEEFF4E0D601ED
:10361000ED93FC93C301B2012B853C854D855E85FE
:10362000A7E3CA2EA5E0DA2E0E946E530F900F90EA
:103630000E943C7420E030E040E050E0AD81BE816B
:103640002D933D934D935C9313976091BB047091C0
:10365000BC048091BD049091BE042091BF043091C0
:10366000C0044091C1045091C204E090C304F090A2
:10367000C4040091C5041091C604F7ECCF2EF4E009
:10368000DF2E0E949C4DF101E25AF84F4590559073
:1036900065907490C301B201905829813A814B81A1
:1036A0005C810E940997EF81F88560837183828332
:1036B00093830F920F92CDB6DEB60894C11CD11C35
:1036C00020912B0530912C0540912D0550912E0510
:1036D0002F87388B498B5A8B80912F05909130051D
:1036E000A0913105B09132058B8B9C8BAD8BBE8B3D
:1036F000E0903305F09034050091350510913605C2
:103700006091C9037091CA038091CB039091CC035F
:1037100020E030E040E752E40E9430944B015C012D
:10372000EEEFF4E0D601ED93FC936F8578898989FB
:103730009A892B893C894D895E89E7E3CE2EE5E0A5
:10374000DE2E0E946E530F900F900E943C74C301B6
:10375000B201A30192010E94509329813A814B81C9
:103760005C810E940997AF81B8856D937D938D939D
:103770009C931397E985FA85608171818281938199
:1037800020E030E040E05FE30E9409976093C903C6
:103790007093CA038093CB039093CC030F920F9244
:1037A000CDB6DEB60894C11CD11C40902B055090BC
:1037B0002C0560902D0570902E0520912F053091DD
:1037C000300540913105509132052F8B388F498F4C
:1037D0005A8FE0903305F090340500913505109133
:1037E000360520E030E040E752E40E9430944B017F
:1037F0005C01EEEFF4E0D601ED93FC93C301B2015E
:103800002F89388D498D5A8DB7E3CB2EB5E0DB2E4D
:103810000E946E530F900F900E943C74F101E65984
:10382000F84F6591759185919491F101E153FB4FAA
:10383000A080B180C280D380A60195010E945093E0
:103840007B018C01CB01D801ED81FE8180839183C6
:10385000A283B383F101EA58F84F65917591859180
:103860009491ABED8A2EA4E09A2E820C931CA601B3
:1038700095010E945093D4016D937D938D939C93F9
:103880001397F101EE57F84F6591759185919491D9
:10389000E8EBF3E02E0E3F1EA60195010E94509327
:1038A000D1016D937D938D939C931397C701D8019C
:1038B000EF81F88580839183A283B38320E030E099
:1038C00040E050E02093C9033093CA034093CB03F8
:1038D0005093CC030E941B734B8D5C8D49515B4F01
:1038E00081E0DA018C936C960FB6F894DEBF0FBEC0
:1038F000CDBFCF91DF911F910F91FF90EF90DF909F
:10390000CF90BF90AF909F908F907F906F905F907F
:103910004F903F902F900895FC01949108C08091A2
:10392000C00085FFFCCF9093C600319694919923F7
:10393000B1F78EE597E022E030E00C943348FC01CB
:10394000949108C08091C00085FFFCCF9093C60081
:10395000319694919923B1F78EE597E022E030E01B
:103960000C9433482F923F924F925F926F927F92C6
:103970008F929F92AF92BF92CF92DF92EF92FF927F
:103980000F931F93DF93CF93CDB7DEB72E970FB66C
:10399000F894DEBF0FBECDBF8EEC93E00E946E891F
:1039A000609198037091990380919A0390919B0381
:1039B0006093C9037093CA038093CB039093CC03A5
:1039C0000F920F92CDB6DEB60894C11CD11CE090C8
:1039D000BB04F090BC040091BD041091BE04409063
:1039E000BF045090C0046090C1047090C20427ECE2
:1039F000222E24E0322E20E030E040E752E40E9404
:103A000030944B015C01EEEFF4E0D601ED93FC93B2
:103A1000C801B701A30192010F2EF0E0EF2EF0E0F4
:103A2000FF2EF0E20F2FF1EC1F2FF02D61010E940D
:103A30006E530F900F900E943C7482E00E941D74A0
:103A40004B015C016091BB047091BC048091BD048A
:103A50009091BE042091BF043091C0044091C104F4
:103A60005091C204850174010E949C4D26E637E006
:103A7000F90185919591A591B49189839A83AB833E
:103A8000BC83C501B40129813A814B815C810E94CC
:103A900050936D837E838F8398870F920F92CDB65C
:103AA000DEB60894C11CD11CE090BB04F090BC04AD
:103AB0000091BD041091BE044090BF045090C0041A
:103AC0006090C1047090C2046091C9037091CA03F0
:103AD0008091CB039091CC0320E030E040E752E4AA
:103AE0000E9430944B015C01EEEFF4E0D601ED93BF
:103AF000FC93C801B701A3019201ED80FE800F8104
:103B0000188561010E946E530F900F900E943C74C3
:103B1000609198037091990380919A0390919B030F
:103B200020E030E040E85EE30E9409975B016C0111
:103B30006093C9037093CA038093CB039093CC0323
:103B40000F920F928DB79EB701969E878D874090FA
:103B5000BB045090BC046090BD047090BE04809182
:103B6000BF049091C004A091C104B091C2048987A0
:103B70009A87AB87BC8769817A818B819C8120E0A1
:103B800030E040E050EC0E9409979B01AC016D8150
:103B90007E818F8198850E9450937B018C01C601A4
:103BA000B50120E030E040E752E40E9430944B0140
:103BB0005C01EEEFF4E0AD85BE85ED93FC93C301AF
:103BC000B20129853A854B855C8561010E946E535F
:103BD0000F900F900E943C7482E00E941D747B0144
:103BE0008C016093C3047093C4048093C5049093C4
:103BF000C6046091BB047091BC048091BD04909197
:103C0000BE042091BF043091C0044091C104509182
:103C1000C2040E949C4D2E960FB6F894DEBF0FBED4
:103C2000CDBFCF91DF911F910F91FF90EF90DF906B
:103C3000CF90BF90AF909F908F907F906F905F904C
:103C40004F903F902F9008952F923F924F925F9206
:103C50006F927F928F929F92AF92BF92CF92DF929C
:103C6000EF92FF920F931F933B014C0119012A0120
:103C70006091BB047091BC048091BD049091BE041E
:103C80002091BF043091C0044091C1045091C204FE
:103C9000BCDAC401B30120E030E048EC51E40E94FA
:103CA00050935B016C01C201B10120E030E048EEAD
:103CB00051E40E9450939B01AC01E090C304F0904A
:103CC000C4040091C5041091C604C601B5019DDA73
:103CD00049DE1091C3040091C404F090C504E09043
:103CE000C604EFE9F7E0949108C08091C00085FF19
:103CF000FCCF9093C600319694919923B1F7EAE9ED
:103D0000F7E0949108C08091C00085FFFCCF9093AC
:103D1000C600319694919923B1F78EE597E0B401EE
:103D2000A30122E030E00E943348E5E9F7E09491F6
:103D300008C08091C00085FFFCCF9093C6003196EB
:103D400094919923B1F78EE597E0B201A10122E0A9
:103D500030E00E943348E0E9F7E0949108C0809198
:103D6000C00085FFFCCF9093C600319694919923B3
:103D7000B1F78EE597E0212F302FEF2DFE2DA90111
:103D8000BF0122E030E00E943348EEE8F7E0949172
:103D900008C08091C00085FFFCCF9093C60031968B
:103DA00094919923B1F7212F302F4F2D5E2DB9011A
:103DB000CA011F910F91FF90EF90DF90CF90BF90BD
:103DC000AF909F908F907F906F905F904F903F90BB
:103DD0002F900895FC01949108C08091C00085FF48
:103DE000FCCF9093C600319694919923B1F78EE55C
:103DF00097E02AE030E00C94114740914A05509139
:103E00004B0520E630E0B901469F9001479F300DF9
:103E1000569F300D1124682F772767FD7095C901D3
:103E2000845B9A4F0E94960D9C0190934905809364
:103E3000480580E0232B09F081E008958091480532
:103E400090914905019660E070E04AE050E00C94E2
:103E5000350C8091480590914905019660E070E02D
:103E60000C94D80ACF93DF93EC018091FE048093E9
:103E70000C0584E5C2DF882309F481C0EADF0E94D3
:103E80009D94262F60930C05623008F478C0E0E220
:103E9000F3E0949108C08091C00085FFFCCF90931F
:103EA000C600319694919923B1F7CD36D105C1F072
:103EB000CE36D10544F4C836D105C1F0C936D10596
:103EC00009F04DC010C0CA3DD10539F0CD3DD10536
:103ED00009F045C0E1E0F2E03FC0E8E1F2E031C0C6
:103EE000EFE2F2E023C0E6E4F2E015C0EDE5F2E037
:103EF00007C08091C00085FFFCCF31969093C6002B
:103F000090819923B1F72BC08091C00085FFFCCF31
:103F100031969093C60090819923B1F720C080918B
:103F2000C00085FFFCCF31969093C6009081992305
:103F3000B1F715C08091C00085FFFCCF31969093FA
:103F4000C60090819923B1F70AC08091C00085FF17
:103F5000FCCF31969093C60090819923B1F78EE5FE
:103F600097E0622F40E050E00E941C478091C00023
:103F700085FFFCCF8AE08093C60081E001C080E02D
:103F8000DF91CF910895AF92BF92CF92DF92EF92DF
:103F9000FF920F931F93CF93DF933BEBE32E34E01D
:103FA000F32ECBE2D5E000E010E0F801E85AFB4F39
:103FB000808123DF882331F14CDF5B016C01F80144
:103FC000EC54FB4F8081882311F061E002C06091C6
:103FD0003F0570E0882777FD8095982F0E94CB944D
:103FE000F70120813181428153810E9409979B0111
:103FF000AC01C601B5010E945093688379838A831E
:104000009B8309C0F70180819181A281B38188835C
:104010009983AA83BB830F5F1F4F84E090E0E80E73
:10402000F91E24960530110509F0BFCF86E4E5DEC0
:104030008823D9F00EDF7B018C01609340057093DB
:104040004105809342059093430520E030E040E035
:1040500050E00E943796181644F4E092C903F0929B
:10406000CA030093CB031093CC03DF91CF911F9130
:104070000F91FF90EF90DF90CF90BF90AF90089599
:1040800082DF89E4BADE882351F0E3DE60931F0506
:104090007093200580932105909322050CC080E049
:1040A00090E0A0E0B0E080931F0590932005A093DE
:1040B0002105B09322058AE4A0DE882351F0C9DEF1
:1040C000609323057093240580932505909326051E
:1040D000089580E090E0A0E0B0E080932305909305
:1040E0002405A0932505B093260508959F92AF92CD
:1040F000BF92CF92DF92EF92FF920F931F93CF93D5
:10410000DF9350E6C52ED12CE3EAF7E0B4904AE005
:10411000A42E992493940DC22D3071F02A3321F4EA
:104120008091CD06882341F08091CE069091CF06F4
:104130008F3591050CF4D9C1E091CE06F091CF06F0
:10414000309719F41092CD062DC2A091D006B091EF
:10415000D106AC9D8001AD9D100DBC9D100D1124AC
:10416000E00FF11FE45BFA4F10828091CD068823A7
:1041700009F0B6C11092CD06AE52B94F1C92E801BB
:10418000C45BDA4FCE016EE470E00E94960D9C0194
:10419000009709F4F7C090934905809348052F5F75
:1041A0003F4F2C1B3D0B200F311FC901845B9A4FE1
:1041B00060E070E04AE050E00E94350C6093D60663
:1041C0007093D7068093D8069093D906E0900D059A
:1041D000F0900E0500910F0510911005A8019701B0
:1041E0002F5F3F4F4F4F5F4F62177307840795074D
:1041F00009F4BEC18091D0069091D1069C012C9DFE
:10420000C0012D9D900D3C9D900D1124845B9A4F13
:104210006FEB78E00E947C0D892B09F0A9C1E9E1E0
:10422000F3E0949108C08091C00085FFFCCF90938B
:10423000C600319694919923B1F7ECE8F8E0949197
:1042400008C08091C00085FFFCCF9093C6003196D6
:1042500094919923B1F78EE597E0B801A7012AE080
:1042600030E00E942D478091C00085FFFCCF73C0D5
:104270001E274F5FFC01E40FF11DE45BFA4FE08164
:10428000EA32B1F73093490520934805C9010196F8
:1042900060E070E00E94D80A0E949894212F30E0DC
:1042A0002617370709F45DC0E9E1F3E0949108C0EF
:1042B0008091C00085FFFCCF9093C6003196949109
:1042C0009923B1F7EDE6F8E0949108C08091C00021
:1042D00085FFFCCF9093C600319694919923B1F756
:1042E00040910D0550910E0560910F0570911005DC
:1042F0008EE597E02AE030E00E942D478091C000D3
:1043000085FFFCCF28C0E9E1F3E0949108C08091DB
:10431000C00085FFFCCF9093C600319694919923FD
:10432000B1F7E3E4F8E0949108C08091C00085FF04
:10433000FCCF9093C600319694919923B1F78EE506
:1043400097E0B801A7012AE030E00E942D47809154
:10435000C00085FFFCCF8AE08093C6000E94D91878
:104360004AC08091D6069091D706A091D806B09108
:10437000D90680930D0590930E05A0930F05B09379
:1043800010053EC0CE016AE270E00E94960D0097D3
:1043900009F436C0E9E1F3E0949108C08091C000CF
:1043A00085FFFCCF9093C600319694919923B1F785
:1043B000E9E1F8E0949108C08091C00085FFFCCF4E
:1043C0009093C600319694919923B1F740910D05D1
:1043D00050910E0560910F05709110058EE597E0E4
:1043E0002AE030E00E942D478091C00085FFFCCF7D
:1043F0008AE08093C6001092CF061092CE06D2C0FB
:104400008091D0069091D1068C9D80018D9D100DDC
:104410009C9D100D1124E801C45BDA4FCE0167E4C6
:1044200070E00E94960D9C01009771F190934905F0
:10443000809348052F5F3F4F2C1B3D0B200F311FF2
:10444000C901845B9A4F60E070E00E94D80A0E9424
:10445000989464307105C0F480910A058823A1F016
:104460009B2DE3EAF7E008C08091C00085FFFCCFF8
:104470009093C600319694919923B1F78091C00032
:1044800085FFFCCFA092C6008091D0069091D10606
:104490009C012C9DC0012D9D900D3C9D900D1124E3
:1044A000845B9A4F64E772E00E94A10D009711F4BB
:1044B0000E9472168091D0069091D106019664E018
:1044C00070E00E940E989093D1068093D006809160
:1044D0001505909116050196909316058093150584
:1044E0001092CF061092CE0624C02B3311F4909276
:1044F000CD068091CD068823E1F42091CE0630913F
:10450000CF068091D0069091D1068C9DF0018D9DB3
:10451000F00D9C9DF00D1124E20FF31FE45BFA4FA8
:104520008091CC0680832F5F3F4F3093CF0620933E
:10453000CE0680915A0790915B0720915C073091DD
:104540005D07821B930B8F779070892B59F18091B7
:1045500015059091160504972CF58EE597E00E94BD
:104560005146282F8093CC068A3009F0D5CDE4CD72
:104570008091D0069091D1068C9DE0018D9DD00D4B
:104580009C9DD00D1124CE01845B9A4F6AE270E0AD
:104590000E94960D9C01009709F4B5CE10E040E012
:1045A000CE0168CEDF91CF911F910F91FF90EF90D8
:1045B000DF90CF90BF90AF909F900895DF92EF92E1
:1045C000FF920F931F93D82E809115059091160599
:1045D00003970CF48BDD0E948490E0901B05F09013
:1045E0001C0500911D0510911E05209117053091A5
:1045F00018054091190550911A05621B730B840B25
:10460000950BE616F7060807190738F4E114F104CC
:104610000105110511F00E9472168091C503909159
:10462000C603A091C703B091C8030097A105B105C7
:10463000A9F10E94849020911705309118054091AE
:10464000190550911A05621B730B840B950B209171
:10465000C5033091C6034091C7035091C803261784
:10466000370748075907D0F49091B70C8091B80CE0
:104670009817A1F4DD2091F45F9A1092E7048A9ACA
:104680001092E8049FB7F8948091080181608093AC
:1046900008019FBF1092E904129A479A0E948D5018
:1046A0001F910F91FF90EF90DF9008952F923F920E
:1046B0004F925F926F927F928F929F92AF92BF9232
:1046C000CF92DF92EF92FF920F931F93DF93CF93DE
:1046D000CDB7DEB7CC5CD1400FB6F894DEBF0FBECD
:1046E000CDBF87E48ADB882309F4FEC7B2DB0E94D2
:1046F00098946C31710509F492C06D3171059CF488
:1047000062307105B1F16330710524F4772334F51B
:104710000C94CD4363307105C1F16430710511F023
:104720000C94CD433EC06A35710509F46EC76B35F4
:10473000710554F46D31710509F4BEC36E31710514
:1047400011F00C94CD43D7C66B35710509F461C7E0
:104750006C35710511F00C94CD4360C780910A054A
:10476000882311F00C94CD430EDC0E94AE170C94FC
:10477000CD4380910A05882311F00C94CD4380DC51
:1047800081E00E94E1160C94CD4380910A058823B4
:1047900011F00C94CD4374DC80E00E94E1160C947F
:1047A000CD4380E52ADB882321F4EE24FF24870112
:1047B00005C04FDB0E949D947B018C0183E51DDBCE
:1047C000882359F046DB20E030E04AE754E40E94B9
:1047D00009970E949D947B018C010E943C740E9469
:1047E00084905B016C01AE0CBF1CC01ED11E0E94E8
:1047F0008490609317057093180580931905909322
:104800001A0504C00E94E28080E0D8DE0E948490F5
:104810006A157B058C059D05A8F30C94CD438EECA1
:1048200093E00E946E898091C9039091CA03A09180
:10483000CB03B091CC038093440590934505A0939E
:104840004605B09347058091A0039091A1039093F2
:10485000B9048093B80484E690E09093A103809318
:10486000A0030E94849060931705709318058093AD
:10487000190590931A0581E00E9422738091BB0470
:104880009091BC04A091BD04B091BE0480932B050F
:1048900090932C05A0932D05B0932E058091BF0415
:1048A0009091C004A091C104B091C20480932F05DF
:1048B00090933005A0933105B09332058091C304E5
:1048C0009091C404A091C504B091C60480933305AF
:1048D00090933405A0933505B09336058091C704B5
:1048E0009091C804A091C904B091CA04809337057F
:1048F00090933805A0933905B0933A058091CB0485
:104900009091CC04A091CD04B091CE0480933B054E
:1049100090933C05A0933D05B0933E0580E090E068
:10492000A0E0B0E08093C9039093CA03A093CB03A7
:10493000B093CC0388E561DA882351F489E55DDA28
:10494000882331F48AE559DA882311F481E001C023
:1049500080E08093CD03882321F488E54EDA882314
:1049600021F080E090E00E94451A8091CD038823D9
:1049700021F489E542DA882321F081E090E00E9469
:10498000451A88E53ADA8823C9F058DA61157105C5
:104990008105910599F05DDA2091CF043091D00422
:1049A0004091D1045091D2040E9450936093BB0473
:1049B0007093BC048093BD049093BE0489E51DDA16
:1049C0008823C9F03BDA611571058105910599F0DD
:1049D00040DA2091D3043091D4044091D504509111
:1049E000D6040E9450936093BF047093C0048093D8
:1049F000C1049093C2048091CD03882309F4BDC003
:104A000080E090E0AEEFB2E480932B0590932C050C
:104A1000A0932D05B0932E0580E090E0A3E0B3E4D1
:104A200080932F0590933005A0933105B093320504
:104A3000E1E5F7E0E4916CEFE602B001112488278C
:104A400077FD8095982F0E94CB94609333057093E7
:104A50003405809335059093360580E090E0A5E01D
:104A6000B3E48093C9039093CA03A093CB03B0939C
:104A7000CC0380E090E0A0E0B0E08093C30490938A
:104A8000C404A093C504B093C6046091BB047091A4
:104A9000BC048091BD049091BE042091BF0430916C
:104AA000C0044091C1045091C2040F2EF0E0EF2EDB
:104AB000F0E0FF2EF0E00F2FF0E01F2FF02DF7ECCD
:104AC000CF2EF4E0DF2E0E949C4D0F920F9260914A
:104AD0002B0570912C0580912D0590912E0520912C
:104AE0002F05309130054091310550913205E0900D
:104AF0003305F0903405009135051091360580900E
:104B0000C9039090CA03A090CB03B090CC03EEEF02
:104B1000F4E0ADB7BEB71296FC93EE931197E7E3BE
:104B2000CE2EE5E0DE2E0E946E530F900F900E9475
:104B30003C7480912B0590912C05A0912D05B0918E
:104B40002E058093BB049093BC04A093BD04B09346
:104B5000BE0480912F0590913005A0913105B09150
:104B600032058093BF049093C004A093C104B09316
:104B7000C20482E090E00E94451A8AE53ED988236B
:104B800009F414C18091E704882309F4CBC0D090C4
:104B9000E804DD2009F4C6C06091BB047091BC0438
:104BA0008091BD049091BE0420E030E048EC51E4D7
:104BB0000E944F937B018C0120E030E040E050E008
:104BC0000E94379688230CF4ABC0C801B70120E0DF
:104BD00030E04DE453E40E94299418160CF4A0C070
:104BE0006091BF047091C0048091C1049091C2048F
:104BF00020E030E048EE51E40E944F937B018C01AD
:104C000020E030E040E050E00E94379688230CF42A
:104C1000AAC0C801B70120E030E04DE453E40E948F
:104C2000299418160CF49FC080E090E0A0E0B0E05A
:104C30008093C3049093C404A093C504B093C604A6
:104C40006091BB047091BC048091BD049091BE043E
:104C50002091BF043091C0044091C1045091C2041E
:104C60000F2EF0E0EF2EF0E0FF2EF0E00F2FF0E03F
:104C70001F2FF02DB7ECCB2EB4E0DB2E0E949C4D05
:104C8000E1E5F7E0E4916CEFE602B001112488273A
:104C900077FD8095982F0E94CB947B018C016093C7
:104CA00033057093340580933505909336058090D5
:104CB0006B0790906C07A0906D07B0906E07809284
:104CC000C9039092CA03A092CB03B092CC030F9277
:104CD0000F9260912B0570912C0580912D0590917C
:104CE0002E0520912F0530913005409131055091CE
:104CF0003205EEEFF4E0ADB7BEB71296FC93EE933B
:104D00001197A7E3CA2EA5E0DA2E0E946E530F90EA
:104D10000F900E943C7482E090E00E94451A46C0C9
:104D2000DD2009F5E0E2F3E0949108C08091C00035
:104D300085FFFCCF9093C600319694919923B1F7EB
:104D4000EDE3F7E0949108C08091C00085FFFCCFAF
:104D50009093C600319694919923B1F78091C00049
:104D600085FFFCCF20C0E0E2F3E0949108C0809181
:104D7000C00085FFFCCF9093C60031969491992393
:104D8000B1F7ECE2F7E0949108C08091C00085FF94
:104D9000FCCF9093C600319694919923B1F78091FE
:104DA000C00085FFFCCF8AE08093C6008AE525D845
:104DB0008823C9F043D8611571058105910599F0E3
:104DC00048D82091D7043091D8044091D90450910B
:104DD000DA040E9450936093C3047093C4048093D8
:104DE000C5049093C6048091CD03882321F48AE5FD
:104DF00004D88823D1F06091C3047091C4048091D9
:104E0000C5049091C6042091EA043091EB044091CE
:104E1000EC045091ED040E9450936093C30470938E
:104E2000C4048093C5049093C6046091BB04709140
:104E3000BC048091BD049091BE042091BF043091C8
:104E4000C0044091C1045091C204E090C304F090AA
:104E5000C4040091C5041091C604F7ECCF2EF4E011
:104E6000DF2E0E949C4D80E00E94227380914405B9
:104E700090914505A0914605B09147058093C903DF
:104E80009093CA03A093CB03B093CC038091B80452
:104E90009091B9049093A1038093A0030E94849001
:104EA00060931705709318058093190590931A0560
:104EB0000E941B730C94CD438091E704882321F05A
:104EC0008091E804882329F5E0E2F3E0949108C09A
:104ED0008091C00085FFFCCF9093C60031969491DD
:104EE0009923B1F7EAE1F7E0949108C08091C000FE
:104EF00085FFFCCF9093C600319694919923B1F72A
:104F00008091C00085FFFCCF8AE08093C6000C949E
:104F1000CD430E943C748EEC93E00E946E89CE01DA
:104F200049960E94984E698D7A8D8B8D9C8D6093E9
:104F3000BB047093BC048093BD049093BE042D8D7C
:104F40003E8D4F8D58A12093BF043093C0044093F1
:104F5000C1045093C204E9A0FAA00BA11CA1E092E5
:104F6000C304F092C4040093C5041093C604E7EC94
:104F7000CE2EE4E0DE2E0E949C4D0E94F41980911A
:104F8000980390919903A0919A03B0919B03809309
:104F9000C9039093CA03A093CB03B093CC03CF541F
:104FA000DE4F1882C15BD1409FE0292E312CEBE906
:104FB000F0E0C355DE4FF983E883CD5AD14024E1B8
:104FC00030E0C155DE4F39832883CF5AD140CE54CB
:104FD000DE4F19821882C25BD14029C0CF54DE4F08
:104FE0003881C15BD140332391F481E0CF54DE4F4F
:104FF0008883C15BD1408AEA282E312CA5E6BFEF19
:10500000C355DE4FB983A883CD5AD14010C0CF54C9
:10501000DE4F1882C15BD1400FE0202E312CEBE92E
:10502000F0E0C355DE4FF983E883CD5AD140CE542A
:10503000DE4F88819981C25BD140880F991F880F0C
:10504000991F2DE330E02C0F3D1F280F391FC1574A
:10505000DE4F39832883CF58D140BBE64B2E512CED
:105060004C0E5D1E480E591ECE54DE4F888199812C
:10507000C25BD140C757DE4F99838883C958D1405E
:10508000C555DE4F19821882CB5AD140C155DE4F2B
:1050900088819981CF5AD140AA2797FDA095BA2F30
:1050A000CE53DE4F88839983AA83BB83C25CD140F1
:1050B000C757DE4FA881B981C958D140AB2B29F41D
:1050C000EE24FF2400E711E410C06091C304709146
:1050D000C4048091C5049091C60420E030E040EA09
:1050E00050E40E9450937B018C01B101882777FD29
:1050F0008095982F0E94CB943B014C01CE53DE4FFC
:10510000688179818A819B81C25CD1400E94CB9465
:105110005B016C01C401B301A60195010E94241E2C
:10512000C157DE4FE881F981CF58D1406193719327
:1051300081939193C157DE4FF983E883CF58D140D3
:10514000D2016D927D928D929C921397F201A08A6A
:10515000B18AC28AD38A80E090E0A0E8BFE380A34E
:1051600091A3A2A3B3A3C757DE4F28813981C958A1
:10517000D1402F5F3F4FC757DE4F39832883C9582F
:10518000D140C555DE4F88819981CB5AD1400196D7
:10519000C555DE4F99838883CB5AD140A4E0B0E057
:1051A0004A0E5B1E029749F0C355DE4FE881F98134
:1051B000CD5AD1402E0E3F1E7BCFCE54DE4F2881DC
:1051C0003981C25BD1402E5F3F4FCE54DE4F3983D1
:1051D0002883C25BD140C155DE4F88819981CF5A67
:1051E000D14080569F4FC155DE4F99838883CF5A57
:1051F000D1402430310509F0F1CE0E941F1A84E01D
:1052000090E063E070E0AE0145595F4F9E01235C82
:105210003F4F0E946C724C01E4E0F7E0949108C0AB
:105220008091C00085FFFCCF9093C6003196949189
:105230009923B1F7D4014D915D916D917C918EE5EB
:1052400097E022E030E00E943348EFEFF6E09491DF
:1052500008C08091C00085FFFCCF9093C6003196B6
:1052600094919923B1F7F401448155816681778146
:105270008EE597E022E030E00E943348EAEFF6E066
:10528000949108C08091C00085FFFCCF9093C60028
:10529000319694919923B1F7D40118964D915D916F
:1052A0006D917C911B978EE597E022E030E00E94A3
:1052B00033488091C00085FFFCCF8AE08093C60010
:1052C000A5E2AA2EB12CAC0EBD1EF4014081518185
:1052D000628173817058048115812681378130582D
:1052E000C5010F2EF0E0CF2EF0E0DF2EF0E8EF2E1C
:1052F000FFE3FF2EF02D0E94F387C50169E772E0FE
:105300000E94358AF3E6AF2EF1E0BF2EAC0EBD1E33
:10531000C501CDA0DEA0EFA0F8A409A51AA52BA574
:105320003CA54DA55EA56FA578A90E94498BAEEC62
:10533000B3E0F50184E201900D928150E1F7CE01D6
:10534000C1960E94984E69A97AA98BA99CA96093DD
:10535000BB047093BC048093BD049093BE042DA93C
:105360003EA94FA958AD2093BF043093C004409389
:10537000C1045093C204E090EA04F090EB04009161
:10538000EC041091ED04E092C304F092C404009385
:10539000C5041093C604E7ECCE2EE4E0DE2E0E9496
:1053A0009C4DC4010E94A48F0E943C7482E00E9424
:1053B0000B740E94CB9420917F073091800740911D
:1053C0008107509182070E9430947B018C0160918B
:1053D000BB047091BC048091BD049091BE0420E098
:1053E00030E048EC51E40E944F9369837A838B83C9
:1053F0009C836091BF047091C0048091C10490911E
:10540000C20420E030E048EE51E40E944F936D83E7
:105410007E838F8398878091C3049091C404A09168
:10542000C504B091C60489879A87AB87BC872DB71E
:105430003EB72A5230400FB6F8943EBF0FBE2DBF84
:10544000EDB7FEB731969F014EEC53E084E2DA01EE
:105450000D90AD01D9010D929D018150C1F7CE0192
:10546000019695A384A3CE01059697A386A3CE01AA
:10547000099691A780A70E94FA8869857A858B850D
:105480009C85A80197010E944F932091C3043091FD
:10549000C4044091C5045091C6040E9450937B01FE
:1054A0008C01CB01D8018093C3049093C404A093D2
:1054B000C504B093C604EDB7FEB7BA960FB6F8941C
:1054C000FEBF0FBEEDBF6091BB047091BC04809124
:1054D000BD049091BE042091BF043091C00440915E
:1054E000C1045091C204B7ECCB2EB4E0DB2E0E9475
:1054F0009C4D0C94CD430E943C740E94F419809101
:10550000980390919903A0919A03B0919B03809383
:10551000C9039093CA03A093CB03B093CC030E941A
:10552000B21CE6EFF6E0949108C08091C00085FFC0
:10553000FCCF9093C600319694919923B1F7E1EF97
:10554000F6E0949108C08091C00085FFFCCF909355
:10555000C600319694919923B1F74091BB045091C4
:10556000BC046091BD047091BE048EE597E022E01A
:1055700030E00E943348ECEEF6E0949108C0809150
:10558000C00085FFFCCF9093C6003196949199237B
:10559000B1F74091BF045091C0046091C104709173
:1055A000C2048EE597E022E030E00E943348E7EE47
:1055B000F6E0949108C08091C00085FFFCCF9093E5
:1055C000C600319694919923B1F74091C30450914C
:1055D000C4046091C5047091C6048EE597E022E092
:1055E00030E00E943348E5EEF6E0949108C08091E7
:1055F000C00085FFFCCF9093C6003196949199230B
:10560000B1F70E941F1A0C94CD4310923F050C94E1
:10561000CD4381E080933F050C94CD4385E40E9407
:10562000FD1E882311F40E943C74ABEB8A2EA4E08B
:105630009A2EFFEC6F2EF4E07F2EAA24BB24F501F6
:10564000E85AFB4F80810E94FD1E8823E9F1F3E0B8
:10565000AF1669F40E94291FD4016D937D938D9339
:105660009C93139787EC94E00E947F4D2DC00E947D
:10567000291FF30120813181428153810E9450937F
:10568000D4016D937D938D939C9313976091BB048C
:105690007091BC048091BD049091BE042091BF0420
:1056A0003091C0044091C1045091C204E090C30401
:1056B000F090C4040091C5041091C604E7ECCE2E0E
:1056C000E4E0DE2E0E949C4D0894A11CB11CE4E095
:1056D000F0E08E0E9F1E6E0E7F1EF5E0AF16B10439
:1056E00009F0ADCF0C94CD438DE40E94FD1E8823BC
:1056F00011F40C9469420E94291F0E949894673704
:10570000710509F439C1683771050CF093C064352F
:10571000710511F40C944B3A653571050CF042C0DB
:105720006A32710509F439C26B327105E4F46131F2
:10573000710509F476C16231710554F46330710565
:1057400009F41EC16530710511F00C94CD4357C1A9
:105750006231710511F40C944B3A6F31710511F0FF
:105760000C94CD436CC16135710511F40C942C3A45
:10577000623571055CF46033710509F458C2603517
:10578000710511F00C94CD430C94283A62357105E3
:1057900011F40C94423A6335710511F00C94CD4329
:1057A0000C94463A6B36710511F40C94223A6C361F
:1057B000710504F56836710511F40C948835693665
:1057C000710564F46535710511F40C94AD3A6C35CE
:1057D000710511F00C94CD430C94C83A69367105EB
:1057E00011F40C94BD356A36710511F00C94CD435B
:1057F0000C94F1396237710511F40C94703B6337E6
:10580000710564F46D36710511F40C94FA36603745
:10581000710511F00C94CD430C94A83563377105D4
:1058200011F40C944F3B6537710511F00C94CD4386
:105830000C945F3B6C3D710511F40C94983F6D3DE9
:1058400071050CF048C0693C710511F40C940C3ED4
:105850006A3C710504F56C38710511F40C94AC3593
:105860006D38710564F46837710511F40C94643C6B
:105870006937710511F00C94CD430C94683C6E3B74
:10588000710511F40C94DF38683C710511F00C942B
:10589000CD430C946C3D6D3C710511F40C946D3E40
:1058A0006E3C710564F46B3C710511F40C942F3E51
:1058B0006C3C710511F00C94CD430C944D3E6E3C44
:1058C000710511F40C94CB3E6A3D710511F00C94F6
:1058D000CD430C94E93E21E06039720711F40C9439
:1058E000444131E0613973071CF581E06D3278077E
:1058F00011F40C94214091E06E32790764F46D3D0F
:10590000710511F40C94A73F623E710511F00C94DF
:10591000CD430C94CE3FA1E06E327A0711F40C9483
:10592000F5406F52714011F00C94CD430C9404413A
:10593000E1E0673F7E0711F40C944F41F1E0683FCE
:105940007F076CF421E0653F720711F40C94474126
:10595000665F714011F00C94CD430C944C4183E090
:105960006335780711F40C945241675E734011F06F
:105970000C94CD430C945442E5E8F2E00C94733C53
:1059800080E261E00E942B928FE361E00E942B9203
:1059900083E50E94FD1E882301F180E261E00E9400
:1059A000DE920E94291F20E030E040E050E00E949B
:1059B000299487FF02C00C94CD430E94291F20E048
:1059C00030E04FE753E40E943796181614F40C9415
:1059D000CD430E94291F0C94CD4380E261E00E94D8
:1059E0002B928FE361E00E942B9280E261E00E94A3
:1059F000DE928FE36FEF0E94DE920C94CD4380E243
:105A000061E00E942B928FE361E00E942B9280E282
:105A100060E00E94DE928FE360E00E94DE920C94D0
:105A2000CD435F988A989FB7F894809108018E7F44
:105A3000809308019FBF129847980C94CD430E9411
:105A400084906093060570930705809308059093F2
:105A500009052091020530910305409104055091FC
:105A60000505621B730B840B950B28EE33E040E0B9
:105A700050E00E942198F22EE32ED42EC52EADB711
:105A8000BEB718970FB6F894BEBF0FBEADBF0DB727
:105A90001EB70F5F1F4FCE01835B9F4F12969C93E3
:105AA0008E93119786ED96E0F80193838283622F9F
:105AB000732F842F952F2CE330E040E050E00E94BC
:105AC0002198D80115963C932E9314976F2D7E2D17
:105AD0008D2D9C2D2CE330E040E050E00E94219879
