:100000000C94B1090C94DE090C94DE090C94DE0901
:100010000C94DE090C94DE090C94DE090C94DE09C4
:100020000C94DE090C94DE090C94DE090C94DE09B4
:100030000C94DE090C94DE090C94DE090C94DE09A4
:100040000C94DE090C946A4C0C94DE090C94DE09C5
:100050000C94DE090C94DE090C9418550C9447623C
:100060000C94DE090C947F320C94DE090C94DE09AA
:100070000C94DE090C94DE090C94DE090C94DE0964
:100080000C94DE090C94DE090C94DE090C94DE0954
:100090000C94DE090C94DE090C94DE090C94B26019
:1000A0000C94DE090C94DE090C94DE090C94DE0934
:1000B0000C94DE090C94DE090C94DE090C94DE0924
:1000C0000C94DE090C94DE090C94DE090C94DE0914
:1000D0000C94DE090C94DE090C94DE090C94DE0904
:1000E0000C94DE09084AD73B3BCE016E84BCBFFDB1
:1000F000C12F3D6C74319ABD56833DDA3D00C77FF8
:1001000011BED9E4BB4C3E916BAAAABE0000008090
:100110003F05A84CCDB2D44EB93836A9020C50B91F
:10012000918688083CA6AAAA2ABE000000803F4803
:10013000617264636F6465642044656661756C74A4
:100140002053657474696E6773204C6F61646564D5
:10015000002044002049002020204D333031205021
:10016000005049442073657474696E67733A0020C7
:100170005A0020590020204D323036205800486F58
:100180006D65206F666673657420286D6D293A0071
:10019000204500205A002058002042002054002012
:1001A000204D323035205300416476616E636564C2
:1001B000207661726961626C65733A20533D4D69C6
:1001C0006E20666565647261746520286D6D2F739D
:1001D000292C20543D4D696E2074726176656C2027
:1001E000666565647261746520286D6D2F73292CB6
:1001F00020423D6D696E696D756D207365676D6533
:100200006E742074696D6520286D73292C20583D0B
:100210006D6178696D756D205859206A65726B2023
:10022000286D6D2F73292C20205A3D6D6178696DE2
:10023000756D205A206A65726B20286D6D2F7329A9
:100240002C2020453D6D6178696D756D2045206AD3
:1002500065726B20286D6D2F7329002054002020BB
:100260004D323034205300416363656C65726174B4
:10027000696F6E3A20533D616363656C65726174AA
:10028000696F6E2C20543D726574726163742061D5
:100290006363656C65726174696F6E002045002050
:1002A0005A0020590020204D3230312058004D6135
:1002B00078696D756D20416363656C657261746901
:1002C0006F6E20286D6D2F7332293A002045002073
:1002D0005A0020590020204D3230332058004D6103
:1002E00078696D756D2066656564726174657320EB
:1002F000286D6D2F73293A00204500205A0020599F
:100300000020204D393220580053746570732070DE
:10031000657220756E69743A004572726F723A00A8
:100320006563686F3A005072696E74657220737409
:100330006F707065642064756520746F20657272DB
:100340006F72732E2046697820746865206572721A
:100350006F7220616E6420757365204D39393920C4
:10036000746F20726573746172742E202854656DE9
:10037000706572617475726520697320726573654A
:10038000742E205365742069742061667465722030
:1003900072657374617274696E6729005072696E58
:1003A0007465722068616C7465642E206B696C6C76
:1003B00028292063616C6C656421006F6B005265B5
:1003C00073656E643A20002200556E6B6E6F776E17
:1003D00020636F6D6D616E643A2022005A204F6673
:1003E00066736574203A20007A5F6D61783A200068
:1003F0007A5F6D696E3A20005A204F6666736574A5
:10040000005A204F6666736574206F6B00486F74E6
:10041000656E64206F6666736574733A007A5F6D0B
:1004200061783A20007A5F6D696E3A2000795F6DDD
:1004300061783A2000795F6D696E3A2000785F6DCF
:1004400061783A2000785F6D696E3A2000205A3A50
:100450000020593A0020436F756E7420583A2000EE
:1004600020453A00205A3A0020593A00583A0046AE
:1004700049524D574152455F4E414D453A4D61728B
:100480006C696E20312E302E322B20446576656CDF
:100490006F706D656E742046726F6D204172636877
:1004A00069766520534F555243455F434F44455F3E
:1004B00055524C3A68747470733A2F2F6769746898
:1004C00075622E636F6D2F4D61726C696E46697235
:1004D0006D776172652F4D61726C696E2050524F5D
:1004E000544F434F4C5F56455253494F4E3A312E6D
:1004F00030204D414348494E455F545950453A4696
:10050000616C636F6E2045585452554445525F43A9
:100510004F554E543A3220555549443A3632366199
:10052000376632302D656534352D313165352D39DD
:100530006365392D356535353137353037633636B6
:100540000A0020423A0020453A00543A0020573A27
:100550000020453A00543A002042403A0020403AF8
:1005600000202F003A00205400202F0020423A00A3
:10057000202F006F6B20543A002569206D696E2C86
:100580002025692073656300FFFFFF00004D4300D5
:10059000004D43000048430000A0400000A0400080
:1005A000000040000000000000000000000000000B
:1005B000000000000000000000000000004D4300AB
:1005C000004D43000048435072696E746572207399
:1005D000746F707065642064756520746F20657237
:1005E000726F72732E204669782074686520657278
:1005F000726F7220616E6420757365204D393939D0
:1006000020746F20726573746172742E2028546593
:100610006D7065726174757265206973207265739F
:1006200065742E2053657420697420616674657248
:100630002072657374617274696E6729004E6F2051
:100640004C696E65204E756D6265722077697468BD
:1006500020636865636B73756D2C204C6173742027
:100660004C696E653A20004E6F20436865636B737A
:10067000756D2077697468206C696E65206E756D84
:100680006265722C204C617374204C696E653A204F
:1006900000636865636B73756D206D69736D61745C
:1006A00063682C204C617374204C696E653A20009D
:1006B0004C696E65204E756D626572206973206E9F
:1006C0006F74204C617374204C696E65204E756D9B
:1006D0006265722B312C204C617374204C696E65FD
:1006E0003A20004D313130002020506C616E6E6533
:1006F0007242756666657242797465733A200020AD
:1007000046726565204D656D6F72793A20004D61C6
:1007100072203230203230313600436F6D70696C98
:1007200065643A2000286E6F6E652C2064656661F2
:10073000756C7420636F6E6669672900207C2041A8
:100740007574686F723A20004D6172203230203229
:100750003031362031343A34303A323900204C616D
:10076000737420557064617465643A200020312EE2
:10077000302E322B004D61726C696E0020536F6613
:1007800074776172652052657365740020576174D7
:100790006368646F67205265736574002042726FEE
:1007A000776E206F757420526573657400204578EC
:1007B0007465726E616C20526573657400506F775A
:1007C00065725570007374617274002200656E71F9
:1007D0007565696E672022002200656E7175656916
:1007E0006E6720220020746F6F206C6F6E6720652B
:1007F0007874727573696F6E2070726576656E7449
:1008000065640020636F6C64206578747275736929
:100810006F6E2070726576656E7465640045303A5F
:1008200020005A3A2000593A2000583A20004D53EF
:10083000312C4D53322050696E730A0024F404D9D0
:10084000201BC40C5C0E9804C4095F02650771018B
:10085000F405F900FB04B30048048700C1036900F4
:100860005803550003034500BE023A0084023100DC
:1008700053022A002902250004022000E4011C0082
:10088000C8011900AF01170098011400840113007A
:10089000710110006101100051010E0043010D00B3
:1008A00036010B002B010B0020010B001501090084
:1008B0000C01090003010800FB000800F300080018
:1008C000EB000700E4000600DE000600D80006008A
:1008D000D2000600CC000500C7000500C2000500DC
:1008E000BD000400B9000400B5000400B10004001C
:1008F000AD000400A9000400A5000300A20003004D
:100900009F0004009B000300980003009500020074
:1009100093000300900003008D0002008B00030091
:1009200088000200860002008400030081000200AB
:100930007F0002007D0002007B00020079000200BF
:1009400077000100760002007400020072000100CE
:10095000710002006F0002006D0001006C000200D7
:100960006A000100690002006700010066000100E2
:1009700065000100640002006200010061000100E6
:10098000600001005F0002005D0001005C000100EA
:100990005B0001005A0001005900010058000100ED
:1009A00057000100560001005500010054000100ED
:1009B00053000000530001005200010051000100EB
:1009C000500001004F0001004E0000004E000100E9
:1009D0004D0001004C0001004B0000004B000100E5
:1009E0004A000100490001004800000048000100E1
:1009F00047000100460000004600010045000000DD
:100A000045000100440001004300000043000100D4
:100A100042000000420001004100000041000100CE
:100A2000400001003F0000003F0001003E000000C8
:100A30003E0001003D0000003D0001003C000000C0
:100A40003C0000003C0001003B0000003B000100B6
:100A50003A0000003A0001003900000039000100AE
:100A600038000000380000003800010037000000A6
:100A7000370001003600000036000000360001009B
:100A80003500000035000000350001003400000092
:100A90003400000034000100330000003300000087
:100AA000330001003200000032000000320001007B
:100AB0003100000031000000310001003000000072
:100AC00030000000300001002F0000002F00000067
:100AD0002F0000002F0001002E0000002E0000005B
:100AE0002E0001002D0000002D0000002D00000050
:100AF0002D0001002C0000002C0000002C00000044
:100B00002C0001002B0000002B0000002B00000037
:100B10002B0001002A0000002A0000002A0000002B
:100B20002A0001002900000029000000290000001F
:100B30002900000029000100280000002800000012
:100B40002800000028000000280001002700000005
:100B500027000000270000002700000027000100F8
:100B600026000000260000002600000026000000ED
:100B700026000100250000002500000025000000DF
:100B800025000000250000002500010024000000D1
:100B900024000000240000002400000024000100C4
:100BA00023000000230000002300000023000000B9
:100BB00023000000230000002300010022000000A9
:100BC000220000002200000022000000220000009D
:100BD000220001002100000021000000210000008F
:100BE0002100000021000000210000002100010080
:100BF0002000000020000000200000002000000075
:100C00002000000020000000200000002000010063
:100C10001F0000001F0000001F0000001F00000058
:100C20001F0000001F0000001F0001001E00000048
:100C30001E0000001E0000001E00000024F4D4303E
:100C400050C38E20C2A24017828B7011127A910D70
:100C5000816CD90AA861E108C7586607615143064B
:100C60001E4B5D05C145A7041A411104093D9803B7
:100C7000713931034036DB0265339102D4305402BE
:100C8000802E1D02632CEE01752AC501B028A0013B
:100C9000102781018F2564012B244B01E0223401B0
:100CA000AC211F018D200D01801FFC00841EED0072
:100CB000971DDF00B81CD200E61BC600201BBC003D
:100CC000641AB200B219A8000A19A0006A189900A3
:100CD000D117910040178B00B516840031167E00A5
:100CE000B31579003A157300C7146F0058146A00E1
:100CF000EE1366008813630025135E00C7125B00C5
:100D00006C12570015125400C111510070114F00A0
:100D100021114B00D61049008D10470046104400A9
:100D200002104200C00F4000800F3E00420F3C0006
:100D3000060F3B00CB0E3800930E37005C0E3500DB
:100D4000270E3400F30D3200C10D3100900D30003C
:100D5000600D2E00320D2D00050D2C00D90C2B003E
:100D6000AE0C2900850C29005C0C2700350C2700EF
:100D70000E0C2600E80B2400C40B2400A00B23005B
:100D80007D0B23005A0B2100390B2100180B20008A
:100D9000F80A1F00D90A1E00BB0A1E009D0A1D008A
:100DA000800A1D00630A1C00470A1B002C0A1B0056
:100DB000110A1A00F7091A00DD091900C4091900FF
:100DC000AB091900920917007B0918006309170085
:100DD0004C09160036091600200916000A091500EC
:100DE000F5081500E0081400CC081400B808140039
:100DF000A4081400900813007D0812006B0813006B
:100E00005808120046081200340811002308110087
:100E10001208110001081100F0071000E00710008F
:100E2000D0071000C0071000B0070F00A107100086
:100E300091070E0083070F0074070F0065070E006F
:100E400057070E0049070E003B070D002E070E0046
:100E500020070D0013070D0006070D00F9060C0012
:100E6000ED060D00E0060C00D4060C00C8060C00D0
:100E7000BC060C00B0060C00A4060B0099060C0082
:100E80008D060B0082060B0077060B006C060B002C
:100E900061060A0057060B004C060A0042060A00CB
:100EA00038060A002E060A0024060A001A060A005E
:100EB0001006090007060A00FD050900F4050900EF
:100EC000EB050900E2050900D9050900D005090074
:100ED000C7050900BE050900B5050800AD050800F5
:100EE000A50509009C050800940508008C0508006C
:100EF000840508007C050800740508006C050700DF
:100F0000650508005D050700560508004E05070049
:100F100047050700400508003805070031050700B0
:100F20002A050700230507001C0506001605070013
:100F30000F0507000805060002050700FB04060070
:100F4000F5040700EE040600E8040600E2040700CA
:100F5000DB040600D5040600CF040600C904060021
:100F6000C3040600BD040600B7040600B104050072
:100F7000AC040600A6040600A00405009B040600BD
:100F800095040500900406008A0405008504050008
:100F9000800406007A04050075040500700405004D
:100FA0006B04050066040500610405005C0405008F
:100FB00057040500520405004D04050048040500CF
:100FC000430405003E0404003A040500350405000E
:100FD000300404002C040500270404002304050049
:100FE0001E0404001A040400160405001104040081
:100FF0000D040400090405000404040000040400B6
:10100000FC030400F8030400F4030400F0030400EC
:10101000EC030400E8030400E4030400E00304001C
:10102000DC030400D8030400D4030400D00304004C
:10103000CC030400C8030300C5030300205A3A0090
:1010400020593A0020583A00656E6473746F7073CB
:10105000206869743A200054656D7065726174751A
:1010600072652068656174656420626564207377C9
:10107000697463686564206F66662E204D4158541C
:10108000454D50207472696767657265642021213F
:10109000003A2045787472756465722073776974BC
:1010A00063686564206F66662E204D494E54454D39
:1010B00050207472696767657265642021003A2068
:1010C00045787472756465722073776974636865B6
:1010D00064206F66662E204D415854454D50207453
:1010E0007269676765726564202100202D20496E52
:1010F00076616C6964206578747275646572206EBF
:10110000756D626572202100504944204175746FED
:1011100074756E652066696E697368656421205018
:10112000757420746865206C617374204B702C207A
:101130004B6920616E64204B6420636F6E73746131
:101140006E74732066726F6D2061626F76652069C0
:101150006E746F20436F6E66696775726174696F34
:101160006E2E6800504944204175746F74756E6529
:10117000206661696C6564212074696D656F7574A2
:101180000020403A006F6B20543A006F6B20423AC7
:1011900000504944204175746F74756E6520666116
:1011A000696C6564212054656D7065726174757237
:1011B0006520746F6F206869676800204B643A206F
:1011C00000204B693A2000204B703A200020436CED
:1011D00061737369632050494420002054753A209C
:1011E00000204B753A2000206D61783A2000206D78
:1011F000696E3A200020643A200020626961733AE7
:10120000200000002100240027002A002D003000CB
:10121000330001010000040107010A01000022005F
:10122000250028002B002E003100340002010000B0
:10123000050108010B010000200023002600290001
:101240002C002F00320000010000030106010901FB
:1012500005050505070508080808020202020A0A32
:101260000808040404040101010101010101030350
:10127000030303030303040707070C0C0C0C0C0CFB
:101280000C0C0202020206060606060606060B0BF8
:101290000B0B0B0B0B0B0102102020080810204039
:1012A000102040800201020108040201010204082A
:1012B00010204080804020100804020180040201B8
:1012C0008040201008040201080402010102040801
:1012D0001020408001020408102040800000090A0C
:1012E00002080B0C0D0706030401000000000000BB
:1012F00000000000000000000000000000000000EE
:10130000000000000000000011100F0000000000AD
:1013100000000000000000000000000000000000CD
:101320000000494E46494E4954594E414ECDCCCC11
:101330003D0AD7233C17B7D13877CC2B329595E6A9
:10134000241FB14F0A000020410000C84200401C89
:101350004620BCBE4CCA1B0E5AAEC59D740013334A
:10136000216011241FBECFEFD1E2DEBFCDBF00E070
:101370000CBF14E0A0E0B2E0E6E6F5ED00E00BBF44
:1013800002C007900D92A434B107D9F71BBE1EE02E
:10139000A4E4B4E001C01D92A030B107E1F713E16D
:1013A000C2E6D3E104C02297FE010E946B6ACE35EB
:1013B000D107C9F70E944B650C94B16A0C940000E8
:1013C000A0E0B0E0E6EEF9E00C94806AEC015B018D
:1013D0006115710519F0FB0191838083F9908F2DC0
:1013E00090E00E946F6A892BC9F7FDE2FF1621F495
:1013F000F990EE24E39405C02BE2F21609F4F9907B
:10140000EE248E0101501040C80162E273E143E016
:1014100050E062D2892BF9F48E010E5F1F4FC80194
:1014200065E273E145E050E057D2892B19F48E0153
:10143000095F1F4FA114B10419F0F5011183008356
:10144000E0FC04C070E090E080E813C070E090E041
:1014500080E86FEF07C1C8016AE273E143E050E042
:101460003BD2892B69F4A114B10429F470E090E017
:1014700080EC6FE7F7C02296F501D183C083F6CFE9
:101480008824992440E050E060E070E0EF2DE053C4
:10149000EA30A0F5F2E0EF2A8E2D90E09C01287052
:1014A0003070E2FE06C0232B79F50894811C911C54
:1014B0002BC0232B19F0089481089108DB01CA0185
:1014C00012E0880F991FAA1FBB1F1A95D1F7480F6A
:1014D000591F6A1F7B1F440F551F661F771F4E0F32
:1014E000511D611D711D483929E9520729E962071B
:1014F00029E1720748F084E0E82A06C0EE3F31F4A3
:10150000E3FC39C098E0E92AF990C0CFE53311F047
:10151000E53189F529912D3219F4E0E1EE2A05C073
:101520002B3219F081E090E003C0299182E090E035
:10153000E22FE053EA3018F0C81BD90B1CC020E0A2
:1015400030E0FCE020383F075CF4C901880F991FA8
:10155000880F991F280F391F220F331F2E0F311D9F
:10156000E991E053EA3068F3E4FE03C03095219539
:101570003F4F820E931ECE2CDD24E1FE07C0A11446
:10158000B10421F02197F501D183C083CB01BA01C9
:101590000E94D4667B018C01F3E0CF22DD2423E09E
:1015A000C216D10421F417FB109517F910955701B5
:1015B0006801C801B70120E030E040E050E00E943F
:1015C0003466882309F44AC097FE0DC021E4E22E58
:1015D00023E1F22E9094819491089394C0E2D0E09C
:1015E00000E010E012C099E5E92E93E1F92EF6CF64
:1015F000F7012591359145915491C601B5010E949D
:1016000014695B016C018C1A9D0A8C169D0684F787
:10161000D595C7950F5F1F4F0630110529F08CEF48
:101620009FEFE80EF91EF1CFC501D6017C018D01B7
:101630008C2D880F8D2D881F8F3F51F0C601B5016D
:1016400020E030E040E050E00E943466882331F42E
:1016500082E290E09093FF0D8093FE0D7E2D9F2DF2
:10166000802F612F272F392F482F562FB901CA01FC
:10167000CDB7DEB7ECE00C949C6A2F923F925F925C
:101680006F927F928F929F92AF92BF92CF92DF9292
:10169000EF92FF920F931F93CF93DF938C011B0167
:1016A000EA016115710519F0FB0191838083209790
:1016B00049F0CE010297839728F020E030E040E027
:1016C00050E0F6C0F801A1908F018A2D90E00E94B1
:1016D0006F6A892BB9F7FDE2AF1631F4F801A190DA
:1016E0008F015524539407C0FBE2AF1619F4F8019B
:1016F000A1908F015524209719F0C031D105C1F474
:10170000F0E3AF1679F4F8018081883711F088355D
:1017100049F4F801A1800E5F1F4FF2E05F2AC0E19B
:10172000D0E006C0209721F480E3A816E9F427C092
:10173000C830D10531F1C930D10524F4C230D1050A
:1017400031F50CC0CA30D10589F0C031D105F9F4AA
:10175000C12CD12CE12CB8E0FB2E28C0C12CD12CFF
:10176000E12CA0E4FA2E22C0CAE0D0E0FCECCF2E9F
:10177000FCECDF2EFCECEF2EFCE0FF2E17C0C8E0E7
:10178000D0E0C12CD12CE12CE0E1FE2E0FC09E0157
:10179000442737FD4095542F60E070E080E090E8EA
:1017A0000E942C6AC901DA016C017D0120E030E061
:1017B00040E050E060E03E01882477FC8094982C63
:1017C00070EDB72EBA0CE9E0EB1570F48A2D815458
:1017D0008A3118F499ECB92E06C08A2D81568A31C7
:1017E00050F589EAB82EBA0C8B2D90E08C179D0726
:1017F00014F56F3FE1F0C216D306E406F506B0F02B
:10180000CA01B901A40193010E94E6699B01AC01E0
:101810002B0D311D411D511D2130F0E03F07F0E03F
:101820004F07F0E85F0710F461E001C06FEFF801C7
:10183000A1908F01C5CF2114310481F0662331F0CE
:1018400001501040F1011183008308C051FE1AC0FD
:1018500002501040F1011183008314C067FF12C0D1
:1018600050FC05C02FEF3FEF4FEF5FE704C020E0D3
:1018700030E040E050E882E290E09093FF0D8093EA
:10188000FE0D16C050FE08C050954095309521952C
:101890003F4F4F4F5F4F0CC057FF0AC082E290E0AE
:1018A0009093FF0D8093FE0D2FEF3FEF4FEF5FE71B
:1018B000B901CA01DF91CF911F910F91FF90EF9075
:1018C000DF90CF90BF90AF909F908F907F906F9060
:1018D0005F903F902F900895FB01DC0141505040F4
:1018E00088F08D9181341CF08B350CF4805E65910D
:1018F00061341CF06B350CF4605E861B611171F372
:10190000990B0895881BFCCFFB0155915523A9F035
:10191000BF01DC014D9145174111E1F759F4CD01AB
:101920000590002049F04D9140154111C9F3FB018C
:101930004111EFCF81E090E001970895FC01819182
:10194000861721F08823D9F7992708953197CF0179
:101950000895FB01DC018D91019080190110D9F3EC
:10196000990B0895AEE0B0E0E8EBFCE00C94886AD7
:101970000E891F898EE08C831A8309838FEF9FE77E
:101980009E838D839E01265E3F4FCE010196688D1A
:10199000798DA9010AD02F813885020F131FF80114
:1019A00010822E96E4E00C94A46AABE0B0E0EBED7C
:1019B000FCE00C947A6A3C012B015A01FC0117826D
:1019C0001682838181FD03C06FEF7FEFB9C19AE07A
:1019D000892E1E010894211C311CF3012381F20180
:1019E00023FD859123FF81912F01882309F4A5C14F
:1019F000853239F423FD859123FF81912F018532B2
:101A000021F490E0B301B7D1E8CF982FFF24EE2462
:101A10009924FFE1FF15D0F09B3269F09C3228F445
:101A2000903259F0933291F40EC09D3249F09033C8
:101A300069F441E024C052E0F52A84E0F82A28C085
:101A400098E0F92A25C0E0E1FE2A22C0F7FC29C06F
:101A5000892F80538A3070F4F6FE05C0989C902C34
:101A60001124980E15C0E89CE02C1124E80EF0E239
:101A7000FF2A0EC09E3229F4F6FC5FC140E4F42A2E
:101A800007C09C3619F450E8F52A02C0983649F48C
:101A9000F20123FD959123FF91912F01992309F0E4
:101AA000B8CF892F8554833018F08052833038F4B2
:101AB00044E050E0A40EB51E5FE359830FC0933697
:101AC00031F0933779F0933509F052C01FC0F5011A
:101AD0008081898342E050E0A40EB51E610101E0DF
:101AE00010E011C0F501C080D180F6FC03C06FEF9B
:101AF0007FEF02C0692D70E042E050E0A40EB51EF9
:101B0000C6012ED18C015FE7F52213C0F501C0801C
:101B1000D180F6FC03C06FEF7FEF02C0692D70E04B
:101B200042E050E0A40EB51EC6010FD18C0150E872
:101B3000F52AF3FE06C018C080E290E0B3011BD185
:101B4000EA948E2D90E008171907B0F30DC0F60146
:101B5000F7FC8591F7FE81916F0190E0B3010BD105
:101B6000E110EA94015010400115110581F7E2C01F
:101B7000943611F0993661F5F7FE08C0F501208121
:101B800031814281538184E090E00AC0F501808177
:101B900091819C01442737FD4095542F82E090E0CD
:101BA000A80EB91E9FE6F92257FF09C0509540952F
:101BB000309521953F4F4F4F5F4FE0E8FE2ACA0115
:101BC000B901A1012AE030E002D1D82ED2183FC0DD
:101BD000953729F41F2D1F7E2AE030E01DC01F2DF0
:101BE000197F9F3661F0903720F4983509F0A5C031
:101BF0000FC0903739F0983709F09FC004C028E033
:101C000030E00AC0106114FD146020E130E004C02F
:101C100014FD166020E132E017FF08C0F501608175
:101C200071818281938144E050E008C0F501808198
:101C30009181BC0180E090E042E050E0A40EB51E2E
:101C4000A101C5D0D82ED2188FE7F82EF122F6FECA
:101C50000BC05EEFF522D91438F4F4FE07C0F2FC95
:101C600005C08FEEF82202C01D2D01C0192DF4FE13
:101C70000DC0FE01ED0DF11D8081803319F499EE48
:101C8000F92208C01F5FF2FE05C003C08F2D8678C1
:101C900009F01F5F0F2DF3FC13C0F0FE0EC01E15E0
:101CA00010F09D2C0AC09D2C9E0C911A1E2D05C073
:101CB00080E290E0B3015FD01F5F1E15C8F304C03F
:101CC0001E1510F4E11A01C0EE2404FF0EC080E3DB
:101CD00090E0B30150D002FF1BC001FD03C088E7B4
:101CE00090E00EC088E590E00BC0802F867881F0F0
:101CF00001FF02C08BE201C080E2F7FC8DE290E0C0
:101D0000B30139D005C080E390E0B30134D09A9498
:101D1000D914C8F3DA94F101ED0DF11D808190E042
:101D2000B30129D0DD20B1F705C080E290E0B30116
:101D300022D0EA94EE20C9F750CEF3016681778174
:101D4000CB012B96E2E10C94966AFC010590615060
:101D500070400110D8F7809590958E0F9F1F0895C1
:101D6000FC016150704001900110D8F7809590956A
:101D70008E0F9F1F08950F931F93CF93DF938C01B6
:101D8000EB018B8181FF1BC082FF0DC02E813F8143
:101D90008C819D812817390764F4E881F9810193CA
:101DA000F983E88306C0E885F985802F1995892B8A
:101DB00031F48E819F8101969F838E8302C00FEF45
:101DC0001FEFC801DF91CF911F910F910895FA0184
:101DD000AA27283051F1203181F1E8946F936E7F6A
:101DE0006E5F7F4F8F4F9F4FAF4FB1E03ED0B4E05B
:101DF0003CD0670F781F891F9A1FA11D680F791F9C
:101E00008A1F911DA11D6A0F711D811D911DA11DAC
:101E100020D009F468943F912AE0269F11243019BC
:101E2000305D3193DEF6CF010895462F4770405D57
:101E30004193B3E00FD0C9F7F6CF462F4F70405D06
:101E40004A3318F0495D31FD4052419302D0A9F761
:101E5000EACFB4E0A6959795879577956795BA955B
:101E6000C9F700976105710508959B01AC010A2E21
:101E700006945795479537952795BA95C9F7620FF8
:101E8000731F841F951FA01D0895DF93CF93CDB7B7
:101E9000DEB7E0970FB6F894DEBF0FBECDBFDE0110
:101EA0001196E9EDF3E080E101900D928150E1F7A8
:101EB000DE015196E9ECF3E080E101900D92815052
:101EC000E1F7DE019196E9EBF3E080E101900D92FC
:101ED0008150E1F789819A81AB81BC8180930707AA
:101EE00090930807A0930907B0930A0789899A89F4
:101EF000AB89BC898093F3069093F406A093F50612
:101F0000B093F60689A19AA1ABA1BCA180931B074F
:101F100090931C07A0931D07B0931E078D819E818F
:101F2000AF81B88580930B0790930C07A0930D07A2
:101F3000B0930E078D899E89AF89B88D8093F7067F
:101F40009093F806A093F906B093FA068DA19EA18E
:101F5000AFA1B8A580931F0790932007A0932107F6
:101F6000B093220789859A85AB85BC8580930F073E
:101F700090931007A0931107B0931207898D9A8D43
:101F8000AB8DBC8D8093FB069093FC06A093FD0661
:101F9000B093FE0689A59AA5ABA5BCA5809323079F
:101FA00090932407A0932507B09326078D859E85DF
:101FB000AF85B8898093130790931407A0931507F2
:101FC000B09316078D8D9E8DAF8DB8A18093FF06BF
:101FD00090930007A0930107B09302078DA59EA5DB
:101FE000AFA5B8A98093270790932807A093290746
:101FF000B0932A070E94D63980E090E8ABE3B5E4BD
:102000008093330790933407A0933507B093360736
:102010008093370790933807A0933907B0933A0716
:1020200020E030E040E050E020932F07309330076D
:10203000409331075093320780E29EE4A0E0B0E085
:102040008093EF069093F006A093F106B093F2060A
:1020500020934707309348074093490750934A0716
:1020600080E090E0A0EAB1E480933B0790933C07C6
:10207000A0933D07B0933E078DEC9CECACECBEE327
:1020800080933F0790934007A0934107B093420786
:1020900080E090E0A0EAB0E4809343079093440787
:1020A000A0934507B09346072093670430936804D4
:1020B0004093690450936A0420936304309364044A
:1020C000409365045093660420935F04309360044A
:1020D00040936104509362048AE999E9A1EBB1E469
:1020E00080939F039093A003A093A103B093A203B6
:1020F00061E77DE38AE89FE30E9486546093A3032F
:102100007093A4038093A5039093A60360E070E00E
:1021100084EE92E40E9492546093A7037093A80304
:102120008093A9039093AA030E94335480E090E027
:10213000A0E8BFE38093AB039093AC03A093AD03FF
:10214000B093AE0310924A0480E090E0A0E4B0E4C3
:102150008093630390936403A0936503B093660335
:102160008093670390936803A0936903B0936A0315
:1021700022D4E0E2F3E0949108C08091C00085FF92
:10218000FCCF9093C600319694919923B1F7EFE27A
:10219000F1E0949108C08091C00085FFFCCF90933E
:1021A000C600319694919923B1F78091C00085FFC4
:1021B000FCCF8AE08093C600E0960FB6F894DEBFAD
:1021C0000FBECDBFCF91DF910895CF93DF93C0E2D3
:1021D000D3E0FE01949108C08091C00085FFFCCF40
:1021E0009093C600319694919923B1F7E9E0F3E01A
:1021F000949108C08091C00085FFFCCF9093C600E9
:10220000319694919923B1F78091C00085FFFCCF5E
:102210008AE08093C600FE019491E0E2F3E008C0FA
:102220008091C00085FFFCCF9093C60031969491B9
:102230009923B1F74091070750910807609109076A
:1022400070910A0781E093E0DFD740910B0750912E
:102250000C0760910D0770910E078EEF92E0D4D7B6
:1022600040910F075091100760911107709112076C
:102270008BEF92E0C9D740911307509114076091FA
:1022800015077091160788EF92E0BED7E0E0F2E004
:1022900007C08091C00085FFFCCF31969093C600A7
:1022A00090819923B1F78091C00085FFFCCF8AE02F
:1022B0008093C600FE019491E0E2F3E008C08091B3
:1022C000C00085FFFCCF9093C6003196949199236E
:1022D000B1F7EEEDF2E0949108C08091C00085FF67
:1022E000FCCF9093C600319694919923B1F78091D9
:1022F000C00085FFFCCF8AE08093C600FE01949168
:10230000E0E2F3E008C08091C00085FFFCCF90932D
:10231000C600319694919923B1F74091F3065091FC
:10232000F4066091F5067091F60685ED92E06CD7A3
:102330004091F7065091F8066091F9067091FA06FF
:1023400082ED92E061D74091FB065091FC066091CE
:10235000FD067091FE068FEC92E056D74091FF0685
:102360005091000760910107709102078CEC92E098
:102370004BD7E0E0F2E007C08091C00085FFFCCFC2
:1023800031969093C60090819923B1F78091C00057
:1023900085FFFCCF8AE08093C600FE019491E0E2C5
:1023A000F3E008C08091C00085FFFCCF9093C60089
:1023B000319694919923B1F7EEEAF2E0949108C036
:1023C0008091C00085FFFCCF9093C6003196949118
:1023D0009923B1F78091C00085FFFCCF8AE08093FC
:1023E000C600FE019491E0E2F3E008C08091C000D5
:1023F00085FFFCCF9093C600319694919923B1F755
:1024000040911B0750911C0760911D0770911E079A
:1024100085EA92E00CD740911F0750912007609108
:1024200021077091220782EA92E001D740912307A9
:102430005091240760912507709126078FE992E05B
:10244000F6D640912707509128076091290770918F
:102450002A078CE992E0EBD6E0E0F2E007C0809139
:10246000C00085FFFCCF31969093C60090819923E0
:10247000B1F78091C00085FFFCCF8AE08093C60051
:10248000FE019491E0E2F3E008C08091C00085FF76
:10249000FCCF9093C600319694919923B1F7E7E66B
:1024A000F2E0949108C08091C00085FFFCCF90932A
:1024B000C600319694919923B1F78091C00085FFB1
:1024C000FCCF8AE08093C600FE019491E0E2F3E045
:1024D00008C08091C00085FFFCCF9093C600319664
:1024E00094919923B1F7409133075091340760914B
:1024F0003507709136078EE592E086D64091370712
:10250000509138076091390770913A078BE592E056
:102510007BD6E0E0F2E007C08091C00085FFFCCFF1
:1025200031969093C60090819923B1F78091C000B5
:1025300085FFFCCF8AE08093C600FE019491E0E223
:10254000F3E008C08091C00085FFFCCF9093C600E7
:10255000319694919923B1F7E8EAF1E0949108C09B
:102560008091C00085FFFCCF9093C6003196949176
:102570009923B1F78091C00085FFFCCF8AE080935A
:10258000C600FE019491E0E2F3E008C08091C00033
:1025900085FFFCCF9093C600319694919923B1F7B3
:1025A00040912F07509130076091310770913207A9
:1025B0008FE991E029D640914707509148076091F3
:1025C000490770914A078CE991E01ED64091EF06C9
:1025D0005091F0066091F1067091F20689E991E060
:1025E00026D640913B0750913C0760913D07709182
:1025F0003E0786E991E008D640913F075091400799
:10260000609141077091420783E991E0FDD54091C7
:10261000430750914407609145077091460780E950
:1026200091E0F2D5E0E0F2E007C08091C00085FFC4
:10263000FCCF31969093C60090819923B1F7809199
:10264000C00085FFFCCF8AE08093C600FE01949114
:10265000E0E2F3E008C08091C00085FFFCCF9093DA
:10266000C600319694919923B1F7EEE7F1E0949189
:1026700008C08091C00085FFFCCF9093C6003196C2
:1026800094919923B1F78091C00085FFFCCF8AE037
:102690008093C600FE019491E0E2F3E008C08091CF
:1026A000C00085FFFCCF9093C6003196949199238A
:1026B000B1F740915F0450916004609161047091A2
:1026C000620485E791E0A0D54091630450916404D1
:1026D000609165047091660482E791E095D5409120
:1026E0006704509168046091690470916A048FE6F0
:1026F00091E08AD5E0E0F2E007C08091C00085FF5C
:10270000FCCF31969093C60090819923B1F78091C8
:10271000C00085FFFCCF8AE08093C600FE01949143
:10272000E0E2F3E008C08091C00085FFFCCF909309
:10273000C600319694919923B1F7E1E6F1E09491C6
:1027400008C08091C00085FFFCCF9093C6003196F1
:1027500094919923B1F78091C00085FFFCCF8AE066
:102760008093C600FE019491E0E2F3E008C08091FE
:10277000C00085FFFCCF9093C600319694919923B9
:10278000B1F740919F035091A0036091A103709114
:10279000A20387E591E038D56091A3037091A4036B
:1027A0008091A5039091A6030E948C54AB01BC01BB
:1027B00084E591E029D56091A7037091A8038091E9
:1027C000A9039091AA030E949854AB01BC0181E532
:1027D00091E01AD5E0E0F2E007C08091C00085FFEB
:1027E000FCCF31969093C60090819923B1F78091E8
:1027F000C00085FFFCCF8AE08093C600DF91CF91B7
:102800000895EF92FF920F931F93CF93DF93EC0104
:10281000E0906B04F0906C0400916D0410916E04D4
:10282000688179818A819B81A80197010E94346621
:10283000882324F4E882F9820A831B83E0906F04E2
:10284000F090700400917104109172046C817D818C
:102850008E819F81A80197010E943466882324F409
:10286000EC82FD820E831F83609173047091740467
:10287000809175049091760420E030E040E050E0D3
:102880000E945B657B018C01688579858A859B85C3
:10289000A80197010E943466882324F4E886F9860B
:1028A0000A871B87E0907303F0907403009175030F
:1028B00010917603688179818A819B81A8019701B3
:1028C0000E944268181624F4E882F9820A831B8366
:1028D000E0907703F09078030091790310917A03E8
:1028E0006C817D818E819F81A80197010E94426841
:1028F000181624F4EC82FD820E831F83E0907B0384
:10290000F0907C0300917D0310917E0368857985AA
:102910008A859B85A80197010E944268181624F4B5
:10292000E886F9860A871B87DF91CF911F910F9167
:10293000FF90EF90089580919A040895EF92FF928E
:102940000F931F939B01AC0180914A04882321F1CE
:10295000CA01B90120E030E040E05FE30E94146961
:102960007B018C0120E030E040E050E00E943466C2
:10297000882391F0C801B701A80197010E9414694A
:102980009B01AC01CA012BED3FE049E450E40E94F9
:1029900014699B01AC0104C020E030E040E85FE333
:1029A00060E070E080E89FE30E943B661F910F911A
:1029B000FF90EF900895609163037091640380919C
:1029C000650390916603BADF60936B0370936C03A9
:1029D00080936D0390936E03609167037091680319
:1029E0008091690390916A03A9DF60936F037093EC
:1029F0007003809371039093720308950E94625450
:102A000080919A04882309F036C081E080939A046B
:102A100080919D0490919E04A0919F04B091A00488
:102A20008093A1049093A204A093A304B093A40460
:102A3000E9E1F3E0949108C08091C00085FFFCCFEC
:102A40009093C600319694919923B1F7E6E2F3E0B2
:102A5000949108C08091C00085FFFCCF9093C60080
:102A6000319694919923B1F78091C00085FFFCCFF6
:102A70008AE08093C6000895CF93DF93F8940E9474
:102A800062545F9A109277048A9A109278048FB7F2
:102A9000F894909108019160909308018FBF109273
:102AA0007904129A479A8CE060E00E943664E9E16A
:102AB000F3E0949108C08091C00085FFFCCF909313
:102AC000C600319694919923B1F7ECE9F3E0949123
:102AD00008C08091C00085FFFCCF9093C60031965E
:102AE00094919923B1F78091C00085FFFCCF8AE0D3
:102AF0008093C6007894C5E0D0E006C068EC70E032
:102B000080E090E00E949D6221978FEFCF3FD80731
:102B1000A9F7F894FFCF0E948F626093A704709387
:102B2000A8048093A9049093AA04EBEBF3E094919A
:102B300008C08091C00085FFFCCF9093C6003196FD
:102B400094919923B1F78091C00085FFFCCF8AE072
:102B50008093C60008956F927F928F929F92AF925A
:102B6000BF92CF92DF92EF92FF920F931F93F82EB6
:102B70006091AF047091B0048091B1049091B2045F
:102B80002091B3043091B4044091B5045091B6043F
:102B90000E944F683B014C0100D000D00DB71EB71A
:102BA0000F5F1F4F60915B0370915C03882777FD77
:102BB0008095982F0E94D6662091840330918503DA
:102BC00040918603509187030E94146920E030E011
:102BD00040E752E40E943B6620E030E048EC52E4DB
:102BE0000E943B665B016C01F80160827182828207
:102BF0009382F48280918E0485838BE494E06BEB66
:102C000074E04FEA54E020E001E032E0E32E0E945D
:102C1000D0348091BB049091BC04A091BD04B091CC
:102C2000BE0480934B0490934C04A0934D04B09346
:102C30004E048091BF049091C004A091C104B09152
:102C4000C20480934F0490935004A0935104B09316
:102C500052048091C3049091C404A091C504B09122
:102C6000C6048093530490935404A0935504B093E6
:102C700056048091C7049091C804A091C904B091F2
:102C8000CA048093570490935804A0935904B093B6
:102C90005A048091CB049091CC04A091CD04B091C2
:102CA000CE0480935B0490935C04A0935D04B09386
:102CB0005E048DB79EB706960FB6F8949EBF0FBE02
:102CC0008DBF0E948F626093A7047093A8048093C5
:102CD000A9049093AA041F910F91FF90EF90DF90A9
:102CE000CF90BF90AF909F908F907F906F900895FE
:102CF000CF92DF92EF92FF920F931F938BEB94E0B2
:102D000080DD0E948F626093A7047093A804809373
:102D1000A9049093AA0460914B0470914C04809193
:102D20004D0490914E042091BB043091BC0440911D
:102D3000BD045091BE040E943466882309F08AC005
:102D400060914F047091500480915104909152040D
:102D50002091BF043091C0044091C1045091C2043D
:102D60000E943466882309F075C0609184037091D5
:102D70008503809186039091870320E030E040E74F
:102D800052E40E943B667B018C018BEB94E06FEB7D
:102D900074E043EC54E027EC34E0EEE8CE2EE4E0BF
:102DA000DE2E0E94243F8091BB049091BC04A09130
:102DB000BD04B091BE0480934B0490934C04A09347
:102DC0004D04B0934E048091BF049091C004A09133
:102DD000C104B091C20480934F0490935004A09317
:102DE0005104B09352048091C3049091C404A09103
:102DF000C504B091C6048093530490935404A093E7
:102E00005504B09356048091C7049091C804A091D2
:102E1000C904B091CA048093570490935804A093B6
:102E20005904B0935A048091CB049091CC04A091A2
:102E3000CD04B091CE0480935B0490935C04A09386
:102E40005D04B0935E041F910F91FF90EF90DF90AF
:102E5000CF90089560915B0370915C03882777FDA4
:102E60008095982F0E94D666209184033091850327
:102E700040918603509187030E94146920E030E05E
:102E800040E752E40E943B6620E030E048EC52E428
:102E900078CF8EEE96E00E940A33EEEBF3E0949149
:102EA00008C08091C00085FFFCCF9093C60031968A
:102EB00094919923B1F740919D0450919E046091A3
:102EC0009F047091A0044F5F5F4F6F4F7F4F8EEE56
:102ED00096E02AE030E00E94C8338091C00085FF70
:102EE000FCCF8AE08093C60016CE2F923F924F927D
:102EF0005F926F927F928F929F92AF92BF92CF928A
:102F0000DF92EF92FF920F931F93DF93CF93CDB792
:102F1000DEB728970FB6F894DEBF0FBECDBF9887F7
:102F20008F838330910508F056C1FC01E857FA4FB2
:102F3000D4903C01660C771C660C771C9301255BD2
:102F40003B4F3A83298380E090E0A0E0B0E0F901B4
:102F500080839183A283B3838BE494E06FE474E075
:102F600043E554E027E534E00E941E3AF301E557BB
:102F7000FA4FE590F590059114916D2D772767FD37
:102F80007095882777FD8095982F0E94D6661B0143
:102F90002C01930125543B4F3C832B83C801B7017F
:102FA00020E030E040EC5FE30E941469A20191014F
:102FB0000E941469AB81BC816D937D938D939C932A
:102FC0001397F301E55BFC4FFE83ED836081718114
:102FD0008281938160938403709385038093860339
:102FE0009093870320E030E040E752E40E943B6684
:102FF0007B018C018BEB94E06FEB74E043EC54E0CD
:1030000027EC34E0AEE8CA2EA4E0DA2E0E94243F7A
:103010000E94494C80E090E0A0E0B0E0E981FA81B4
:1030200080839183A283B3838BE494E06FE474E0A4
:1030300043E554E027E534E00E941E3AF301E956E7
:10304000FA4F85909590A590B490C501B401905821
:10305000A20191010E941469AB81BC816D937D93A3
:103060008D939C9313976091840370918503809155
:1030700086039091870320E030E040E752E40E940D
:103080003B667B018C018BEB94E06FEB74E043ECCF
:1030900054E027EC34E00E94243F0E94494CC501D3
:1030A000B401A50194010E945B65A20191010E94F7
:1030B0001469EB81FC816083718382839383AD818A
:1030C000BE816D917D918D919C9120E030E040E03A
:1030D0005FE30E9414696093840370938503809377
:1030E00086039093870320E030E040E752E40E949B
:1030F0003B667B018C018BEB94E06FEB74E043EC5F
:1031000054E027EC34E00E94243F0E94494CF30134
:10311000ED55FA4F6591759185919491F301E15ABE
:10312000FB4FA080B180C280D380A60195010E9490
:103130005B657B018C01CB01D801E981FA81808339
:103140009183A283B383F301E155FA4F65917591A1
:1031500085919491FBE68F2EF4E09F2E860C971CB0
:10316000A60195010E945B65D4016D937D938D93BB
:103170009C931397F301E554FA4F659175918591EE
:103180009491E3E7F3E06E0E7F1EA60195010E9485
:103190005B65D3016D937D938D939C931397C701CA
:1031A000D801EB81FC8180839183A283B38380E08B
:1031B00090E0A0E0B0E08093840390938503A09317
:1031C0008603B09387030E94474BAF81B885A95807
:1031D000BB4F81E08C9328960FB6F894DEBF0FBEEC
:1031E000CDBFCF91DF911F910F91FF90EF90DF90B6
:1031F000CF90BF90AF909F908F907F906F905F9097
:103200004F903F902F900895FC01949108C08091B9
:10321000C00085FFFCCF9093C6003196949199230E
:10322000B1F78EEE96E022E030E00C94CE34FC0153
:10323000949108C08091C00085FFFCCF9093C60098
:10324000319694919923B1F78EEE96E02AE030E022
:103250000C94AC334091DA045091DB0420E630E06A
:10326000B901469F9001479F300D569F300D1124A4
:10327000682F772767FD7095C90184529B4F0E9484
:103280009E0C9C019093D9048093D80480E0232B5A
:1032900009F081E008958091D8049091D9040196B5
:1032A00060E070E04AE050E00C943D0B8091D8045F
:1032B0009091D904019660E070E00C94E009CF93FE
:1032C000DF93EC0180918E0480939C0484E5C2DF3F
:1032D000882309F481C0EADF0E94A866262F609344
:1032E0009C04623008F478C0E0E2F3E0949108C0F6
:1032F0008091C00085FFFCCF9093C60031969491D9
:103300009923B1F7CD36D105C1F0CE36D10544F4BD
:10331000C836D105C1F0C936D10509F04DC010C07D
:10332000CA3DD10539F0CD3DD10509F045C0E1E0F8
:10333000F2E03FC0E8E1F2E031C0EFE2F2E023C0AA
:10334000E6E4F2E015C0EDE5F2E007C08091C000D0
:1033500085FFFCCF31969093C60090819923B1F7F9
:103360002BC08091C00085FFFCCF31969093C600A2
:1033700090819923B1F720C08091C00085FFFCCFD8
:1033800031969093C60090819923B1F715C0809132
:10339000C00085FFFCCF31969093C60090819923A1
:1033A000B1F70AC08091C00085FFFCCF31969093A1
:1033B000C60090819923B1F78EEE96E0622F40E02F
:1033C00050E00E94B7338091C00085FFFCCF8AE0B7
:1033D0008093C60081E001C080E0DF91CF91089525
:1033E000AF92BF92CF92DF92EF92FF920F931F9313
:1033F000CF93DF931BE4E12E14E0F12ECBEBD4E06E
:1034000000E010E0F801E751FC4F808123DF8823C2
:1034100031F14CDF5B016C01F801EC5BFB4F80810B
:10342000882311F061E002C06091CF0470E088272A
:1034300077FD8095982F0E94D666F7012081318113
:10344000428153810E9414699B01AC01C601B50100
:103450000E945B65688379838A839B8309C0F70137
:1034600080819181A281B38188839983AA83BB8360
:103470000F5F1F4F84E090E0E80EF91E24960530A0
:10348000110509F0BFCF86E4E5DE8823D9F00EDF11
:103490007B018C016093D0047093D1048093D2049B
:1034A0009093D30420E030E040E050E00E94426876
:1034B000181644F4E0928403F09285030093860387
:1034C00010938703DF91CF911F910F91FF90EF90A1
:1034D000DF90CF90BF90AF90089582DF89E4BADE8D
:1034E000882351F0E3DE6093AF047093B0048093BF
:1034F000B1049093B2040CC080E090E0A0E0B0E092
:103500008093AF049093B004A093B104B093B2043D
:103510008AE4A0DE882351F0C9DE6093B30470937F
:10352000B4048093B5049093B604089580E090E0CD
:10353000A0E0B0E08093B3049093B404A093B504EA
:10354000B093B60408959F92AF92BF92CF92DF924C
:10355000EF92FF920F931F93CF93DF9380E6C82ED5
:10356000D12CE7ECF5E0B4900AE0A02E99249394D6
:103570000BC22D3071F02A3321F480915D0688232F
:1035800041F080915E0690915F068F3591050CF4B5
:10359000D7C1E0915E06F0915F06309719F4109262
:1035A0005D062BC2A0916006B0916106AC9D8001C2
:1035B000AD9D100DBC9D100D1124E00FF11FE452C4
:1035C000FB4F108280915D06882309F0B4C11092F0
:1035D0005D06AE59B94F1C92E801C452DB4FCE01D3
:1035E0006EE470E00E949E0C9C01009709F4F6C006
:1035F0009093D9048093D8042F5F3F4F2C1B3D0B31
:10360000200F311FC90184529B4F60E070E04AE0F7
:1036100050E00E943D0B60936606709367068093AE
:10362000680690936906E0909D04F0909E040091D6
:103630009F041091A004A80197012F5F3F4F4F4FA7
:103640005F4F621773078407950709F4BCC1809127
:103650006006909161069C012C9DC0012D9D900DEE
:103660003C9D900D112484529B4F63EE76E00E94A6
:10367000840C892B09F0A7C1E9E1F3E0949108C01B
:103680008091C00085FFFCCF9093C6003196949145
:103690009923B1F7E0EBF6E0949108C08091C00067
:1036A00085FFFCCF9093C600319694919923B1F792
:1036B0008EEE96E0B801A7012AE030E00E94C83300
:1036C0008091C00085FFFCCF73C01E274F5FFC01B7
:1036D000E40FF11DE452FB4FE081EA32B1F7309381
:1036E000D9042093D804C901019660E070E00E94DB
:1036F000E0090E94A366212F30E02617370709F45E
:103700005CC0E9E1F3E0949108C08091C00085FFBE
:10371000FCCF9093C600319694919923B1F7E1E9DB
:10372000F6E0949108C08091C00085FFFCCF909393
:10373000C600319694919923B1F740919D04509120
:103740009E0460919F047091A0048EEE96E02AE0A2
:1037500030E00E94C8338091C00085FFFCCF28C0B4
:10376000E9E1F3E0949108C08091C00085FFFCCFAF
:103770009093C600319694919923B1F7E7E6F6E06D
:10378000949108C08091C00085FFFCCF9093C60043
:10379000319694919923B1F78EEE96E0B801A70186
:1037A0002AE030E00E94C8338091C00085FFFCCF42
:1037B0008AE08093C6006DDB4AC0809166069091D6
:1037C0006706A0916806B091690680939D04909366
:1037D0009E04A0939F04B093A0043EC0CE016AE271
:1037E00070E00E949E0C009709F436C0E9E1F3E016
:1037F000949108C08091C00085FFFCCF9093C600D3
:10380000319694919923B1F7EDE3F6E0949108C0D5
:103810008091C00085FFFCCF9093C60031969491B3
:103820009923B1F740919D0450919E0460919F04AB
:103830007091A0048EEE96E02AE030E00E94C8333A
:103840008091C00085FFFCCF8AE08093C600109273
:103850005F0610925E06D1C080916006909161066D
:103860008C9D80018D9D100D9C9D100D1124E801F3
:10387000C452DB4FCE0167E470E00E949E0C9C01B5
:10388000009771F19093D9048093D8042F5F3F4F34
:103890002C1B3D0B200F311FC90184529B4F60E050
:1038A00070E00E94E0090E94A36664307105C0F4D4
:1038B00080919A048823A1F09B2DE7ECF5E008C0E5
:1038C0008091C00085FFFCCF9093C6003196949103
:1038D0009923B1F78091C00085FFFCCFA092C6006C
:1038E00080916006909161069C012C9DC0012D9DE8
:1038F000900D3C9D900D112484529B4F64E772E023
:103900000E94A90C009709F4B7D8809160069091A5
:103910006106019664E070E00E94196A9093610666
:10392000809360068091A5049091A60401969093DF
:10393000A6048093A50410925F0610925E0624C030
:103940002B3311F490925D0680915D068823E1F49B
:1039500020915E0630915F0680916006909161062D
:103960008C9DF0018D9DF00D9C9DF00D1124E20FBA
:10397000F31FE452FB4F80915C0680832F5F3F4F23
:1039800030935F0620935E068091EA069091EB06E5
:103990002091EC063091ED06821B930B8F7790708F
:1039A000892B59F18091A5049091A60404972CF5D8
:1039B0008EEE96E00E94EC32282F80935C068A30CF
:1039C00009F0D7CDE6CD80916006909161068C9D7F
:1039D000E0018D9DD00D9C9DD00D1124CE0184520F
:1039E0009B4F6AE270E00E949E0C9C01009709F4D4
:1039F000B7CE10E040E0CE016ACEDF91CF911F91AB
:103A00000F91FF90EF90DF90CF90BF90AF909F907D
:103A10000895DF92EF92FF920F931F93D82E80911B
:103A2000A5049091A60403970CF48DDD0E948F628B
:103A3000E090AB04F090AC040091AD041091AE04A2
:103A40002091A7043091A8044091A9045091AA04A0
:103A5000621B730B840B950BE616F7060807190714
:103A600030F4E114F1040105110509F005D8809145
:103A7000800390918103A0918203B091830300970A
:103A8000A105B105A9F10E948F622091A704309190
:103A9000A8044091A9045091AA04621B730B840BE3
:103AA000950B2091800330918103409182035091C6
:103AB00083032617370748075907D0F49091470C1E
:103AC0008091480C9817A1F4DD2091F45F9A109230
:103AD00077048A9A109278049FB7F894809108012D
:103AE0008160809308019FBF10927904129A479ACF
:103AF0000E94433C1F910F91FF90EF90DF9008953B
:103B00002F923F924F925F926F927F928F929F92ED
:103B1000AF92BF92CF92DF92EF92FF920F931F93DB
:103B2000DF93CF93CDB7DEB76E970FB6F894DEBFB5
:103B30000FBECDBF87E48EDB882309F41DC2B6DB40
:103B40000E94A3666430710509F446C065307105B2
:103B500054F46230710541F1633071058CF57723BF
:103B6000CCF40C9469306A35710509F4B4C16B3535
:103B7000710534F46C31710511F00C9469306AC030
:103B80006B35710509F4ABC16C35710511F00C94FE
:103B90006930AAC180919A04882311F00C9469308D
:103BA0001FDCA6D80C94693080919A04882311F008
:103BB0000C94693092DC81E00E94AB150C94693062
:103BC00080919A04882311F00C94693086DC80E09F
:103BD0000E94AB150C94693080E53CDB882321F40E
:103BE000CC24DD24760105C061DB0E94A8666B0150
:103BF0007C0183E52FDB882359F058DB20E030E09F
:103C00004AE754E40E9414690E94A8666B017C0193
:103C10000E94494C0E948F624B015C018C0C9D1CE0
:103C2000AE1CBF1C0E948F626093A7047093A8040F
:103C30008093A9049093AA0404C00E94EF5880E0E6
:103C4000E8DE0E948F62681579058A059B05A8F356
:103C50000C9469308091840390918503A091860330
:103C6000B09187038093D4049093D504A093D60495
:103C7000B093D70480915B0390915C0390934904C7
:103C80008093480484E690E090935C0380935B0308
:103C90000E948F626093A7047093A8048093A90484
:103CA0009093AA0481E00E944E4B80914B04909126
:103CB0004C04A0914D04B0914E048093BB049093AA
:103CC000BC04A093BD04B093BE0480914F049091B6
:103CD0005004A0915104B09152048093BF0490937A
:103CE000C004A093C104B093C20480915304909186
:103CF0005404A0915504B09156048093C30490934A
:103D0000C404A093C504B093C60480915704909155
:103D10005804A0915904B0915A048093C704909319
:103D2000C804A093C904B093CA0480915B04909125
:103D30005C04A0915D04B0915E048093CB049093E9
:103D4000CC04A093CD04B093CE0480E090E0A0E03A
:103D5000B0E08093840390938503A0938603B0938F
:103D6000870388E577DA882351F489E573DA8823B5
:103D700031F48AE56FDA882311F481E001C080E034
:103D800080938803882321F488E564DA882319F076
:103D900080E090E0AAD880918803882321F489E507
:103DA00059DA882319F081E090E09FD888E552DA4B
:103DB0008823C9F070DA611571058105910599F0C4
:103DC00075DA20915F043091600440916104509154
:103DD00062040E945B6560934B0470934C04809373
:103DE0004D0490934E0489E535DA8823C9F053DAFF
:103DF000611571058105910599F058DA20916304E8
:103E00003091640440916504509166040E945B65A2
:103E100060934F0470935004809351049093520424
:103E200080918803882321F48AE514DA882319F025
:103E300082E090E05AD88AE50DDA8823C9F02BDABF
:103E4000611571058105910599F030DA20916704BB
:103E5000309168044091690450916A040E945B6546
:103E600060935304709354048093550490935604C4
:103E70008BE494E06FE474E043E554E027E534E03C
:103E80000E941E3A80E00E944E4B8091D404909193
:103E9000D504A091D604B091D70480938403909365
:103EA0008503A0938603B093870380914804909183
:103EB000490490935C0380935B030E948F6260933C
:103EC000A7047093A8048093A9049093AA040E9465
:103ED000474B0C9469301092CF040C94693081E008
:103EE0008093CF040C94693085E4B4D9882311F40D
:103EF0000E94494C5BE4E52E54E0F52E4FE5C42EBC
:103F000044E0D42E00E010E0F801E751FC4F80813E
:103F1000A1D9882321F1033059F4C8D9F70160836E
:103F200071838283938387E594E00E94013A17C0EE
:103F3000BDD9F60120813181428153810E945B65A8
:103F4000F70160837183828393838BE494E06FE451
:103F500074E043E554E027E534E00E941E3A0F5F29
:103F60001F4F24E030E0E20EF31EC20ED31E0530D8
:103F7000110551F60C9469308DE46CD9882311F445
:103F80000C940F2F93D90E94A3666737710509F42B
:103F900021C1683771050CF07DC06435710509F4E5
:103FA0001EC765357105CCF56F31710509F459C12E
:103FB00060327105BCF46530710509F43AC16630B0
:103FC000710534F46330710511F00C94693006C149
:103FD0006131710509F437C16231710511F00C943A
:103FE0006930FDC66135710509F4DAC662357105BF
:103FF00054F46A32710509F4DEC16035710511F0BF
:104000000C946930C9C66235710509F4DFC66335A1
:10401000710511F00C946930DDC66B36710509F439
:10402000B5C66C367105DCF46836710509F40DC24D
:104030006936710554F46535710509F432C76C357C
:10404000710511F00C94693047C76936710509F4A0
:1040500033C26A36710511F00C94693066C6623756
:10406000710509F4E0C76337710554F46D367105C5
:1040700009F45FC36037710511F00C94693007C211
:104080006337710509F4AEC76537710511F00C94FB
:104090006930B8C76C3D710511F40C943E2C6D3D30
:1040A00071050CF046C0693C710511F40C94B02AFE
:1040B0006A3C7105F4F46C38710509F4ECC16D3893
:1040C000710564F46837710511F40C940729693798
:1040D000710511F00C9469300C940B296E3B71053D
:1040E00009F411C5683C710511F00C9469300C9409
:1040F0000F2A6D3C710511F40C94102B6E3C710568
:1041000064F46B3C710511F40C94D22A6C3C71057B
:1041100011F00C9469300C94F02A6E3C710511F486
:104120000C946E2B6A3D710511F00C9469300C945F
:104130008C2B31E06039730711F40C94EA2D81E087
:10414000613978071CF591E06D32790711F40C9410
:10415000C72CE1E06E327E0764F46D3D710511F409
:104160000C944D2C623E710511F00C9469300C9446
:10417000742CF1E06E327F0711F40C949B2D6F527A
:10418000714011F00C9469300C94AA2D31E0673F16
:10419000730711F40C94F52D81E0683F78076CF4F7
:1041A00091E0653F790711F40C94ED2D665F714045
:1041B00011F00C9469300C94F22DF3E063357F0715
:1041C00011F40C94F82D675E734011F00C94693073
:1041D0000C94FA2EE9E7F2E00C94162983E53AD81C
:1041E0008823E9F084E061E00E94E9645FD820E080
:1041F00030E040E050E00E94346687FF02C00C943B
:10420000693054D820E030E04FE753E40E94426820
:10421000181614F40C94693049D80C94693084E071
:1042200061E00E94E9648DE26FEF0E94E9640C9402
:10423000693084E060E00E94E9648DE260E00E9401
:10424000E9640C9469305F988A989FB7F8948091DC
:1042500008018E7F809308019FBF129847980C94A5
:1042600069300E948F6260939604709397048093E4
:104270009804909399042091920430919304409172
:10428000940450919504621B730B840B950B28EEDC
:1042900033E040E050E00E942C6AF22EE32ED42E50
:1042A000C52E8DB79EB708970FB6F8949EBF0FBE68
:1042B0008DBF0DB71EB70F5F1F4FCE010196EDB733
:1042C000FEB79283818389E795E0F8019383828327
:1042D000622F732F842F952F2CE330E040E050E0C5
:1042E0000E942C6AF801358324836F2D7E2D8D2D3D
:1042F0009C2D2CE330E040E050E00E942C6AF80155
:10430000778366830E94B20CE0E2F3E094912DB7CC
:104310003EB7285F3F4F0FB6F8943EBF0FBE2DBF8C
:1043200008C08091C00085FFFCCF9093C6003196F5
:1043300094919923B1F7FE01319607C08091C00096
:1043400085FFFCCF31969093C60090819923B1F7F9
:104350008091C00085FFFCCF8AE08093C6008091E9
:104360007307882311F40C946930109273078091BD
:104370008E04082F10E0000F111F0C54134FF8018A
:1043800060817181882777FD8095982F0E94D6667D
:1043900020918D0330918E0340918F0350919003B3
:1043A0000E944268181614F00C946930F8011182CA
:1043B00010820C94693083E50E942A19882311F435
:1043C0000C9469300E9456190E94A3667B018C01EF
:1043D0006B0180E50E942A19882369F0F7FC0BC065
:1043E000FFEFEF16F10409F034F40E9456190E9411
:1043F000A3668B0102C00DE010E0EEEEF3E08081D9
:1044000091818017910711F40C946930329624E061
:10441000EE32F207A1F70430110529F4D09290048E
:10442000C0928F0404C017FF02C00C946930802F23
:1044300061E00E943664802F6C2D0E94E964802F19
:10444000B6010E9458630C94693088E690E00E949F
:104450005F19882311F00C94693083E50E942A19B2
:10446000882389F00E94561920919C04E22EFF2493
:10447000EE0CFF1CE4EBFCE0EE0EFF1E0E94A366B8
:10448000F701718360830E9461540C9469300E942B
:104490003C150C94693083E50E942A19882311F495
:1044A0000C9469300E9456190E94A3667093B90C4F
:1044B0006093B80C0C94693089E690E00E945F1913
:1044C000882311F00C946930E3E7F5E0949108C07B
:1044D0008091C00085FFFCCF9093C60031969491E7
:1044E0009923B1F7E0919C04F0E0EE0FFF1FEE0F6F
:1044F000FF1FE254F34F40815181628173818EEE40
:1045000096E021E030E00E94CE34E0E7F5E09491BF
:1045100008C08091C00085FFFCCF9093C600319603
:1045200094919923B1F7E0919C04F0E0EE0FFF1F06
:10453000EC54F34F60817181882777FD8095982F27
:104540000E94D666AB01BC018EEE96E021E030E021
:104550000E94CE34ECE6F5E0949108C08091C00052
:1045600085FFFCCF9093C600319694919923B1F7C3
:104570004091C80C5091C90C6091CA0C7091CB0C41
:104580008EEE96E021E030E00E94CE34E9E6F5E0E0
:10459000949108C08091C00085FFFCCF9093C60025
:1045A000319694919923B1F76091B80C7091B90C40
:1045B000882777FD8095982F0E94D666AB01BC01B5
:1045C0008EEE96E021E030E00E94CE3404EBC02E67
:1045D0000CE0D02E1EEBE12E1CE0F12E00E010E0EE
:1045E000E6E6F5E09490E4E6F5E0A490E1E6F5E097
:1045F000B490992DE6E6F5E008C08091C00085FFF3
:10460000FCCF9093C600319694919923B1F78EEE2A
:1046100096E0B8014AE050E00E94FB339A2DE4E6B0
:10462000F5E008C08091C00085FFFCCF9093C600E4
:10463000319694919923B1F7F701408151816281BC
:1046400073818EEE96E021E030E00E94CE349B2D07
:10465000E1E6F5E008C08091C00085FFFCCF9093B3
:10466000C600319694919923B1F7F6016191719149
:104670006F01882777FD8095982F0E94D666AB0141
:10468000BC018EEE96E021E030E00E94CE340F5F58
:104690001F4F24E030E0E20EF31E0230110509F056
:1046A000A8CFEDE5F5E0949108C08091C00085FFAA
:1046B000FCCF9093C600319694919923B1F78091E5
:1046C0009C040E945654BC018EEE96E04AE050E0F5
:1046D0000E94FB33E8E5F5E0949108C08091C000AA
:1046E00085FFFCCF9093C600319694919923B1F742
:1046F0008FEF9FEF0E945654BC018EEE96E04AE089
:1047000050E00E94FB33E2E9F2E007C08091C00074
:1047100085FFFCCF31969093C60090819923B1F725
:104720008091C00085FFFCCF8AE08093C6000C9486
:104730008C308DE690E00E945F19882311F00C9474
:1047400069301092730783E50E942A198823A9F023
:104750000E94561920919C04E22EFF24EE0CFF1CAF
:10476000E4EBFCE0EE0EFF1E0E94A366F7017183EE
:10477000608381E080937F0318C082E50E942A193C
:10478000882399F00E94561920919C04E22EFF2460
:10479000EE0CFF1C24EB3CE0E20EF31E0E94A3662D
:1047A000F7017183608310927F0383E50E942A19C9
:1047B000882351F00E94561960938D0370938E03E5
:1047C00080938F039093900382E40E942A19882398
:1047D00051F00E9456196093890370938A03809365
:1047E0008B0390938C0386E40E942A19882369F036
:1047F0000E945619609391037093920380939303E0
:104800009093940381E0809373070E9461540E9407
:104810008F624B015C0120919C04E22EFF241092D8
:104820009B04EE0CFF1CF701EC54F34F6081718187
:10483000882777FD8095982F0E94D666EE0CFF1C86
:104840002EEB3CE0E20EF31EF70120813181428124
:1048500053810E94426818161CF481E080939B04E7
:1048600010929104CC24CA94DC2C7601E5E5F5E0A5
:104870005490E1E5F5E06490EDE4F5E074906AE0D1
:10488000462E18C1952DE5E5F5E008C08091C000E1
:1048900085FFFCCF9093C600319694919923B1F790
:1048A000E0919C04F0E0EE0FFF1FEE0FFF1FE254BB
:1048B000F34F40815181628173818EEE96E021E059
:1048C00030E00E94CE34962DE1E5F5E008C08091FD
:1048D000C00085FFFCCF9093C60031969491992338
:1048E000B1F760919C048EEE96E070E04AE050E0F3
:1048F0000E94FB33972DEDE4F5E008C08091C000E5
:1049000085FFFCCF9093C600319694919923B1F71F
:10491000F7FE03C0E3E9F2E028C00E948F62A7011E
:104920009601205F384D4F4F5F4F261B370B480BCA
:10493000590BCA01B90128EE33E040E050E00E9473
:104940002C6A8EEE96E0BA01A9012AE030E00E94BE
:10495000AC338091C00085FFFCCF0EC08091C000B9
:1049600085FFFCCF31969093C60090819923B1F7D3
:104970008091C00085FFFCCF4092C6000E948F62EC
:104980004B015C010E94EF5880E043D8FFEFCF1647
:10499000FFEFDF06FFEFEF06FFEFFF0609F052C063
:1049A00080919B04E0919C04882331F1F0E08F0119
:1049B000000F111F000F111F0254134FEE0FFF1FA6
:1049C000EC54F34F60817181882777FD8095982F93
:1049D0000E94D66620E030E040E85FE30E945A651E
:1049E0009B01AC01F80160817181828193810E94F9
:1049F000426887FF58C05EC0F0E08F01000F111FB2
:104A0000000F111F0254134FEE0FFF1FEC54F34F12
:104A100060817181882777FD8095982F0E94D666E6
:104A200020E030E040E85FE30E945B659B01AC0161
:104A3000F80160817181828193810E943466181629
:104A400094F538C0F7FC36C0E0919C04F0E08F018B
:104A5000000F111F000F111F0254134FEE0FFF1F05
:104A6000EC54F34F60817181882777FD8095982FF2
:104A70000E94D6669B01AC01F80160817181828140
:104A800093810E945A650E94A36697FF07C0909584
:104A90008095709561957F4F8F4F9F4F6430710562
:104AA000810591053CF00E948F62AC01CB01DA01D7
:104AB0006C017D0180919104882311F00C946C307D
:104AC000FFEFCF16FFEFDF06FFEFEF06FFEFFF066A
:104AD00069F0F7FE02C00C946C300E948F626C1972
:104AE0007D096051774210F00C946C300E948F6207
:104AF000681979098A099B09695E73408040904072
:104B000008F0C0CE3FCF83E50E942A19882361F0C8
:104B10000E9456190E94A3667093B90C6093B80C5A
:104B200081E080937F030FC082E50E942A198823C9
:104B300051F00E9456190E94A3667093B90C6093BD
:104B4000B80C10927F030E948F627B018C0110923F
:104B5000910410929B046091B80C7091B90C882755
:104B600077FD8095982F0E94D6662091C80C3091D1
:104B7000C90C4091CA0C5091CB0C0E944268181687
:104B80000CF081C081E080939B047DC00E948F6205
:104B90006E197F09800B910B695E734080409040D5
:104BA00008F46BC0E0918E04F0E0EE0FFF1FEE0FF3
:104BB000FF1FE254F34F40815181628173819B2D2D
:104BC000EAE4F5E008C08091C00085FFFCCF909337
:104BD000C600319694919923B1F78EEE96E022E0CB
:104BE00030E00E94CE349C2DE6E4F5E008C08091D0
:104BF000C00085FFFCCF9093C60031969491992315
:104C0000B1F760918E048EEE96E070E04AE050E0DD
:104C10000E94FB339D2DE2E4F5E008C08091C000C6
:104C200085FFFCCF9093C600319694919923B1F7FC
:104C30004091C80C5091C90C6091CA0C7091CB0C7A
:104C40008EEE96E021E030E00E94CE34E2E9F2E020
:104C500007C08091C00085FFFCCF31969093C600BD
:104C600090819923B1F78091C00085FFFCCFA0927D
:104C7000C6000E948F627B018C010E94EF5880E089
:104C80000E94091D0BC0EAE4F5E0B490E6E4F5E00B
:104C9000C490E2E4F5E0D4907AE0A72E80919B04E2
:104CA0008823E1F0809191048823C1F46091B80CCD
:104CB0007091B90C882777FD8095982F0E94D66651
:104CC0002091C80C3091C90C4091CA0C5091CB0C6A
:104CD0000E94426818160CF459CF1BC06091B80CA2
:104CE0007091B90C882777FD8095982F0E94D66621
:104CF0002091C80C3091C90C4091CA0C5091CB0C3A
:104D00000E94346688232CF480917F03882309F461
:104D10003DCF0E948F626093A7047093A804809394
:104D2000A9049093AA040C94693083E50E942A197F
:104D3000882321F10E94561920E030E040E050E045
:104D40000E94346688231CF460E070E011C00E9469
:104D5000561920E030E04FE753E40E9442681816ED
:104D60001CF46FEF70E004C00E9456190E94A36605
:104D70007093900460938F040C9469308FEF90E0EF
:104D80009093900480938F040C9469301092900457
:104D900010928F040C946930269A2E980C946930E6
:104DA0000E9462540E94494C129A479A0E94564CA3
:104DB0001092900410928F0468EE73E080E090E00F
:104DC0000E949D62269A2E9A0C9469301092470494
:104DD0000C94693081E0809347040C94693083E53A
:104DE0000E942A198823A1F00E94561920E030E081
:104DF0004AE754E40E9414690E94A8666093800305
:104E00007093810380938203909383030C946930A1
:104E100088E50E942A19882311F00C94813089E5D5
:104E20000E942A19882311F00C9481308AE50E948F
:104E30002A19882311F00C94813085E40E942A19E4
:104E4000882311F00C9481300E94494C129A479AA1
:104E50000E94564C0C9469305F9A1092770489E551
:104E60000E942A19882319F08A9A109278048AE5F8
:104E70000E942A19882351F09FB7F8948091080165
:104E80008160809308019FBF1092790485E40E949D
:104E90002A19882311F40C946930129A479A0C94B9
:104EA000693083E50E942A19882311F40C94693033
:104EB0000E94561920E030E04AE754E40E94146949
:104EC0000E94A8666093AB047093AC048093AD0419
:104ED0009093AE040C94693067E0662E67E0762EFE
:104EE00053EF252E56E0352E4BE4442E47E0542E4A
:104EF00088249924F401E751FC4F80810E942A19EB
:104F0000882309F45DC0F3E08F1609F052C00E94B7
:104F100056195B016C0120E030E040EA51E40E9448
:104F2000346688230CF03FC0F30160817181828177
:104F30009381A60195010E943B667B018C016091E3
:104F40004307709144078091450790914607A80157
:104F500097010E94146960934307709344078093FC
:104F6000450790934607F1016081718182819381A9
:104F7000A80197010E941469F10160837183828303
:104F80009383F20160817181828193810E94D46652
:104F9000A80197010E9414690E94A866F20160832B
:104FA000718382839383F301A082B182C282D38210
:104FB00007C00E945619F301608371838283938333
:104FC0000894811C911C24E030E0620E731E220EB6
:104FD000331E420E531E35E08316910409F08ACF2A
:104FE0000C946930EFE6F4E0949108C08091C00021
:104FF00085FFFCCF9093C600319694919923B1F729
:105000000C9469308091D8049091D90405966AE295
:1050100070E00E949E0CFC01009711F40C94693022
:1050200010820C946930ECE6F4E0949108C0809111
:10503000C00085FFFCCF9093C600319694919923D0
:10504000B1F740914B0450914C0460914D04709124
:105050004E048EEE96E022E030E00E94CE34E8E688
:10506000F4E0949108C08091C00085FFFCCF90933C
:10507000C600319694919923B1F740914F04509115
:10508000500460915104709152048EEE96E022E03B
:1050900030E00E94CE34E4E6F4E0949108C08091C0
:1050A000C00085FFFCCF9093C60031969491992360
:1050B000B1F740915304509154046091550470919C
:1050C00056048EEE96E022E030E00E94CE34E0E618
:1050D000F4E0949108C08091C00085FFFCCF9093CC
:1050E000C600319694919923B1F74091570450919D
:1050F00058046091590470915A048EEE96E022E0B3
:1051000030E00E94CE34E5E5F4E0949108C080914F
:10511000C00085FFFCCF9093C600319694919923EF
:10512000B1F780E00E94374C0E94D66620910707B5
:10513000309108074091090750910A070E943B6689
:10514000AB01BC018EEE96E022E030E00E94CE344E
:10515000E1E5F4E0949108C08091C00085FFFCCFA8
:105160009093C600319694919923B1F781E00E9403
:10517000374C0E94D66620910B0730910C07409166
:105180000D0750910E070E943B66AB01BC018EEEED
:1051900096E022E030E00E94CE34EDE4F4E0949119
:1051A00008C08091C00085FFFCCF9093C600319667
:1051B00094919923B1F782E00E94374C0E94D66601
:1051C00020910F073091100740911107509112075D
:1051D0000E943B66AB01BC018EEE96E022E030E01F
:1051E0000E94CE34E2E9F2E007C08091C00085FF62
:1051F000FCCF31969093C60090819923B1F78091AE
:10520000C00085FFFCCF8AE08093C60062C780E0C3
:105210000E944E4B5EC781E00E944E4B5AC7809160
:10522000C00085FFFCCF31969093C60090819923F2
:10523000B1F78091C00085FFFCCF8AE08093C60063
:10524000E5E4F4E0949108C08091C00085FFFCCFB4
:105250009093C600319694919923B1F7659B03C052
:10526000E5E9F2E00AC0EAE9F2E007C08091C00097
:1052700085FFFCCF31969093C60090819923B1F7BA
:105280008091C00085FFFCCF8AE08093C600EDE3EB
:10529000F4E0949108C08091C00085FFFCCF90930A
:1052A000C600319694919923B1F7649B03C0E5E958
:1052B000F2E00AC0EAE9F2E007C08091C00085FF91
:1052C000FCCF31969093C60090819923B1F78091DD
:1052D000C00085FFFCCF8AE08093C600E5E3F4E0E0
:1052E000949108C08091C00085FFFCCF9093C600C8
:1052F000319694919923B1F78091030181FF03C006
:10530000E5E9F2E00AC0EAE9F2E007C08091C000F6
:1053100085FFFCCF31969093C60090819923B1F719
:105320008091C00085FFFCCF8AE08093C600EDE24B
:10533000F4E0949108C08091C00085FFFCCF909369
:10534000C600319694919923B1F78091030180FFB3
:1053500003C0E5E9F2E00AC0EAE9F2E007C08091A3
:10536000C00085FFFCCF31969093C60090819923B1
:10537000B1F78091C00085FFFCCF8AE08093C60022
:10538000E5E2F4E0949108C08091C00085FFFCCF75
:105390009093C600319694919923B1F74B9B03C02B
:1053A000E5E9F2E00AC0EAE9F2E007C08091C00056
:1053B00085FFFCCF31969093C60090819923B1F779
:1053C0008091C00085FFFCCF8AE08093C600EDE1AC
:1053D000F4E0949108C08091C00085FFFCCF9093C9
:1053E000C600319694919923B1F74A9B03C0E5E931
:1053F000F2E00AC0EAE9F2E007C08091C00085FF50
:10540000FCCF31969093C60090819923B1F780919B
:10541000C00085FFFCCF8AE08093C6005AC6809109
:105420008E0480939C0484E50E942A19882321F12C
:105430000E9456190E94A86660939C046230E0F0B6
:10544000E0E2F3E0949108C08091C00085FFFCCFBA
:105450009093C600319694919923B1F7E4EAF2E073
:1054600007C08091C00085FFFCCF31969093C600A5
:1054700090819923B1F72DC684E40E942A198823CC
:1054800009F427C60E94561920E030E040E050E0C1
:105490000E943466882319F410924A045EC08091F9
:1054A0009C04E82EFF240E945619EE0CFF1CEE0C03
:1054B000FF1CE3E6F3E0EE0EFF1EF701608371834D
:1054C00082839383C0906303D0906403E09065036C
:1054D000F0906603C701B60120E030E040E050E004
:1054E0000E943466882351F40F2EF0E0CF2EF0E0B6
:1054F000DF2EF0E4EF2EF0E4FF2EF02DC0926303D8
:10550000D0926403E0926503F0926603C090670353
:10551000D0906803E0906903F0906A03C701B60178
:1055200020E030E040E050E00E943466882351F4EF
:105530000F2EF0E0CF2EF0E0DF2EF0E4EF2EF0E4BF
:10554000FF2EF02DC0926703D0926803E0926903AA
:10555000F0926A0381E080934A040E94DB14B9C58B
:1055600009EE13E02BE1E22E27E0F22EF801808114
:105570000E942A19882349F00E9456190E94A866A1
:10558000F70160837183828393830F5F1F4F24E051
:1055900030E0E20EF31E33E00E3E130739F70E94AF
:1055A000D63997C509EE13E093EFE92E96E0F92E70
:1055B000F80180810E942A19882339F00E94561927
:1055C000F70160837183828393830F5F1F4F24E011
:1055D00030E0E20EF31E33E00E3E130749F779C5C3
:1055E00083E50E942A19882351F00E94561960937E
:1055F000330770933407809335079093360784E51B
:105600000E942A19882309F464C50E9456196093E0
:105610003707709338078093390790933A0759C535
:1056200083E50E942A19882351F00E94561960933D
:105630002F0770933007809331079093320784E5EA
:105640000E942A19882351F00E9456196093470737
:10565000709348078093490790934A0782E40E9419
:105660002A19882361F00E9456190E94A866609347
:10567000EF067093F0068093F1069093F20688E5AA
:105680000E942A19882351F00E94561960933B0703
:1056900070933C0780933D0790933E078AE50E94F4
:1056A0002A19882351F00E94561960933F0770937E
:1056B0004007809341079093420785E40E942A198E
:1056C000882309F406C50E94561960934307709316
:1056D00044078093450790934607FBC409EE13E007
:1056E0008FE5E82E84E0F82EF80180810E942A19C7
:1056F000882339F00E945619F701608371838283F1
:1057000093830F5F1F4F24E030E0E20EF31E33E07F
:105710000C3E130749F7DDC48AED90E00E945F1943
:10572000882309F0D6C488E50E942A19882399F0B5
:1057300080919C04E82EFF240E945619EE0CFF1C59
:10574000EE0CFF1CEEE7F4E0EE0EFF1EF7016083A7
:1057500071838283938389E50E942A19882399F0B3
:1057600080919C04E82EFF240E945619EE0CFF1C29
:10577000EE0CFF1C26E834E0E20EF31EF701608316
:10578000718382839383E0E2F3E0949108C0809177
:10579000C00085FFFCCF9093C60031969491992369
:1057A000B1F7EDE0F4E0949108C08091C00085FF6E
:1057B000FCCF9093C600319694919923B1F7109243
:1057C0009C0440C08091C00085FFFCCF119690934F
:1057D000C6009C919923B1F7F0E0EE0FFF1FEE0F8A
:1057E000FF1FE258FB4F40815181628173818EEE31
:1057F00096E022E030E00E94CE34EBEBF2E007C00E
:105800008091C00085FFFCCF31969093C6009081B7
:105810009923B1F7E0919C04F0E0EE0FFF1FEE0F2B
:10582000FF1FEA57FB4F40815181628173818EEEE9
:1058300096E022E030E00E94CE3480919C048F5F9D
:1058400080939C04E0919C04E23018F0E2E9F2E0DD
:105850000AC0ADEBB2E0BDCF8091C00085FFFCCFA8
:1058600031969093C60090819923B1F78091C00042
:1058700085FFFCCF8AE08093C6002BC483E50E949D
:105880002A19882309F425C40E9456190E94A36688
:1058900070935C0360935B031CC483E50E942A1928
:1058A000882309F416C40E9456190E94A3667B013E
:1058B0008C0184E50E942A19882389F08DED90E0FF
:1058C0000E945F19882309F004C4E0919C04F0E071
:1058D000EE0FFF1FE15AFC4FF182E082FAC3F09213
:1058E0005E03E0925D03F5C380E50E942A198823D8
:1058F00009F4EFC30E9456190E94A3667B0183E559
:105900000E942A19882319F40FEF1FEF05C00E9487
:1059100056190E94A3668B01C8010196039708F0EF
:10592000D8C3EEEEF3E0808191818E159F0509F4D6
:10593000D0C3329624E0EE32F207A9F7F7FCC9C3D0
:105940000E94494CDE2C8E2D60E00E9436643FEFB1
:105950000F3F130731F00130110551F000E010E066
:105960000FC08E2D0E941B6500E010E0892B41F4D2
:1059700001E010E005C00E94EF5880E00E94091D80
:105980008D2D0E941B6580179107A9F7A2C380E5A2
:105990000E942A19882351F00E94561960939F0390
:1059A0007093A0038093A1039093A20389E40E94C3
:1059B0002A19882361F00E9456190E948654609328
:1059C000A3037093A4038093A5039093A60384E498
:1059D0000E942A19882361F00E9456190E9492544D
:1059E0006093A7037093A8038093A9039093AA03DD
:1059F00083E40E942A19882351F00E94561960936B
:105A0000AB037093AC038093AD039093AE030E94FD
:105A10003354EFEBF2E007C08091C00085FFFCCF6C
:105A200031969093C60090819923B1F7E2ECF2E0B1
:105A300007C08091C00085FFFCCF31969093C600CF
:105A400090819923B1F740919F035091A0036091F9
:105A5000A1037091A2038EEE96E022E030E09ED783
:105A6000E6ECF2E007C08091C00085FFFCCF3196E4
:105A70009093C60090819923B1F76091A303709130
:105A8000A4038091A5039091A6030E948C54AB01BE
:105A9000BC018EEE96E022E030E080D7EAECF2E046
:105AA00007C08091C00085FFFCCF31969093C6005F
:105AB00090819923B1F76091A7037091A803809119
:105AC000A9039091AA030E949854AB01BC018EEEE9
:105AD00096E022E030E062D7EEECF2E007C0809181
