:100000000C94D00C0C94010D0C94010D0C94010D6A
:100010000C94010D0C94010D0C94010D0C94010D28
:100020000C94010D0C94010D0C94010D0C94010D18
:100030000C94010D0C94010D0C94010D0C94010D08
:100040000C94010D0C94A2760C94010D0C94010DEE
:100050000C94010D0C94010D0C9438620C94655EA7
:100060000C94010D0C94A5570C94010D0C94010DEA
:100070000C94010D0C94010D0C94010D0C94010DC8
:100080000C94010D0C94010D0C94010D0C94010DB8
:100090000C94010D0C94010D0C94010D0C94010DA8
:1000A0000C94010D0C94010D0C94010D0C94010D98
:1000B0000C94010D0C94010D0C94010D0C94010D88
:1000C0000C94010D0C94010D0C94010D0C94010D78
:1000D0000C94010D0C94010D0C94010D0C94010D68
:1000E0000C94010D7E3C813C703C743C7A3CB83CE5
:1000F000853C893C8F3C933C973C9D3CA13CA53C76
:10010000B83CAB3CAF3CB33C983D9D3DA23DAC3DC3
:10011000B63D2F3EC03DC83DD03DDA3DE43DEE3D0D
:10012000FD3D073E2F3E113E1B3E253EAE62BC62AA
:10013000DB62DE62E162EF620A630D6310631363E8
:10014000166319632363084AD73B3BCE016E84BC18
:10015000BFFDC12F3D6C74319ABD56833DDA3D0021
:10016000C77F11BED9E4BB4C3E916BAAAABE00006A
:1001700000803F05A84CCDB2D44EB93836A9020C48
:1001800050B9918688083CA6AAAA2ABE0000008021
:100190003F00434F4D4D554E49434154494F4E004A
:1001A00044525952554E004552524F525300494EF7
:1001B000464F004543484F005A2070726F626520D9
:1001C0006F75742E206265640A00205A3A20002060
:1001D000593A200042656420583A2000B301AE012C
:1001E000A701A00192016F66660044454255473A57
:1001F000004B494C4C45442E20004D3131332053A7
:10020000006F6B003F0A0020573A004649524D5795
:100210004152455F4E414D453A4D61726C696E20C9
:10022000312E312E302D524337202847697468759E
:10023000622920534F555243455F434F44455F5514
:10024000524C3A68747470733A2F2F6769746875EA
:10025000622E636F6D2F4D61726C696E4669726DAF
:10026000776172652F4D61726C696E2050524F54E8
:100270004F434F4C5F56455253494F4E3A312E3003
:10028000204D414348494E455F545950453A5665C3
:1002900072736133442062792043726561746541F1
:1002A0006C6C2045585452554445525F434F554E4F
:1002B000543A3220555549443A363236613766321F
:1002C000302D656534352D313165352D396365390E
:1002D0002D3565353531373530376336360A007A96
:1002E0005F6D696E3A2000795F6D61783A20007821
:1002F0005F6D696E3A20005265706F7274696E6747
:1003000020656E6473746F70207374617475730A02
:100310000053657474696E672054726176656C2051
:10032000416363656C65726174696F6E3A20005356
:10033000657474696E6720526574726163742041DC
:100340006363656C65726174696F6E3A2000536512
:100350007474696E67205072696E742041636365BE
:100360006C65726174696F6E3A20005365747469CC
:100370006E67205072696E7420616E6420547261E1
:1003800076656C20416363656C65726174696F6E3C
:100390003A2000486F74656E64206F6666736574FA
:1003A000733A0020643A0020693A0020703A004312
:1003B000290A0061626C656420286D696E2074658D
:1003C0006D702000436F6C6420657874727564658D
:1003D0007320617265200023646566696E65202064
:1003E00044454641554C545F4B6420002364656688
:1003F000696E65202044454641554C545F4B692049
:100400000023646566696E65202044454641554C6D
:10041000545F4B702000504944204175746F7475CF
:100420006E652066696E6973686564212050757415
:1004300020746865206C617374204B702C204B69AC
:1004400020616E64204B6420636F6E7374616E7400
:10045000732066726F6D2062656C6F7720696E74B1
:100460006F20436F6E66696775726174696F6E2E77
:10047000680A00504944204175746F74756E652098
:100480006661696C6564212074696D656F75740AB5
:1004900000504944204175746F74756E6520666123
:1004A000696C6564212054656D7065726174757244
:1004B0006520746F6F20686967680A00204B643A92
:1004C0002000204B693A2000204B703A2000204346
:1004D0006C617373696320504944200A002054758D
:1004E0003A2000204B753A2000206D61783A2000B8
:1004F000206D696E3A200020643A20002062696114
:10050000733A2000546F6F206661722066726F6DBF
:10051000207265666572656E636520706F696E74C2
:100520000A00206279746573290A0053657474693E
:100530006E67732053746F7265642028003A200040
:100540007A5F6D61783A20007A5F6D696E3A2000BB
:100550005A204F666673657400220A00556E6B6EF2
:100560006F776E20636F6D6D616E643A202200209C
:100570002B000A436F727265637465642042656480
:10058000204865696768742076732E204265642070
:10059000546F706F6C6F67793A0A00202B000A4223
:1005A00065642048656967687420546F706F67726E
:1005B000617068793A0A2020202B2D2D2D20424190
:1005C000434B202D2D2B0A2020207C202020202072
:1005D0002020202020207C0A204C207C202020204D
:1005E000282B29202020207C20520A2045207C20F6
:1005F000202020202020202020207C20490A204666
:10060000207C20282D29204E20282B29207C2047A3
:100610000A2054207C202020202020202020202060
:100620007C20480A2020207C20202020282D2920E2
:100630002020207C20540A2020207C2020202020E4
:100640002020202020207C0A2020204F2D2D2046F5
:10065000524F4E54202D2D2B0A2028302C30290AA1
:10066000004D65616E206F662073616D706C65640E
:1006700020706F696E74733A200020643A20002065
:10068000623A200045716E20636F65666669636932
:10069000656E74733A20613A200028422961636BC9
:1006A00000284629726F6E740028522969676874A1
:1006B00000284C29656674003F4E756D6265722096
:1006C0006F662070726F626564202850296F696EB2
:1006D000747320697320696D706C61757369626CE5
:1006E00065202832206D696E696D756D292E0A00AE
:1006F00052756E6E696E6720696E204452592D5294
:10070000554E206D6F64650A00473239204175747B
:100710006F20426564204C6576656C696E670A00DF
:100720003F2856296572626F7365204C6576656C4B
:1007300020697320696D706C61757369626C6520E6
:1007400028302D34292E0A00000021002400270023
:100750002A002D00300033000101000004010701D0
:100760000A0100002200250028002B002E00310085
:10077000340002010000050108010B010000200007
:100780002300260029002C002F0032000001000069
:100790000301060109010505050507050808080804
:1007A000020202020A0A0808040404040101010109
:1007B0000101010103030303030303030407070704
:1007C0000C0C0C0C0C0C0C0C0202020206060606A9
:1007D000060606060B0B0B0B0B0B0B0B0102102076
:1007E0002008081020401020408002010201080467
:1007F00002010102040810204080804020100804FB
:100800000201800402018040201008040201080453
:100810000201010204081020408001020408102097
:10082000408000000A0B02090C0D0E0807030401AA
:1008300000000000000000000000000000000000B8
:100840000000000000000000000000000000121185
:100850001000000000000000000000000000000088
:1008600000000000000000004B494C4C45442E2085
:1008700000202D20496E76616C6964206578747261
:1008800075646572206E756D62657220210A00457F
:1008900072726F723A002020506C616E6E65724207
:1008A000756666657242797465733A2000204672F7
:1008B0006565204D656D6F72793A20004D6172203B
:1008C000203220323031370A00436F6D70696C6519
:1008D000643A20002852696368617264204861723A
:1008E000646D616E290A00207C20417574686F7206
:1008F0003A2000323031362D30372D33312031322D
:100900003A303000204C6173742055706461746516
:10091000643A200020312E312E302D5243370A0008
:100920004D61726C696E0020536F667477617265F9
:100930002052657365740A00205761746368646FA0
:10094000672052657365740A002042726F776E20CB
:100950006F75742052657365740A0020457874655C
:10096000726E616C2052657365740A00506F776512
:100970007255700A0073746172740A00205A3A004A
:1009800020593A0020583A00656E6473746F707392
:10099000206869743A200020746F6F206C6F6E6756
:1009A00020657874727573696F6E207072657665F4
:1009B0006E7465640A0020636F6C642065787472DD
:1009C0007573696F6E2070726576656E7465640A02
:1009D00000220A00656E7175657565696E67202273
:1009E000004E6F204C696E65204E756D62657220F9
:1009F0007769746820636865636B73756D2C204C30
:100A0000617374204C696E653A20004B494C4C452B
:100A1000442E20005072696E7465722073746F707A
:100A20007065642064756520746F206572726F72E2
:100A3000732E2046697820746865206572726F7223
:100A400020616E6420757365204D39393920746FCB
:100A500020726573746172742E202854656D706500
:100A60007261747572652069732072657365742E86
:100A70002053657420697420616674657220726504
:100A80007374617274696E67290A004E6F2043683F
:100A900065636B73756D2077697468206C696E652A
:100AA000206E756D6265722C204C617374204C69E8
:100AB0006E653A2000636865636B73756D206D69C0
:100AC000736D617463682C204C617374204C696E83
:100AD000653A20004C696E65204E756D6265722026
:100AE0006973206E6F74204C617374204C696E655D
:100AF000204E756D6265722B312C204C6173742011
:100B00004C696E653A20004D3131300020496E76D7
:100B1000616C696420657874727564657220000088
:100B20008087430000924300005C430000E8C1005E
:100B30000000C100000000205A3A200020593A204D
:100B40000042656420583A200020706F7369746910
:100B50006F6E206F7574206F662072616E67652EF0
:100B60000A003F50726F62652000454550524F4D5C
:100B700020636865636B73756D206D69736D617457
:100B800063680A00206279746573290A002073740F
:100B90006F7265642073657474696E677320726523
:100BA0007472696576656420280048617264636FB9
:100BB0006465642044656661756C74205365747463
:100BC000696E6773204C6F616465640A0020204D74
:100BD000383531205A005A2D50726F6265204F66A9
:100BE0006673657420286D6D293A0A0020204D3205
:100BF00030302044300A0020204D32303020543133
:100C000020440020204D32303020440020446973BD
:100C100061626C65640A0046696C616D656E742082
:100C200073657474696E67733A002044002049004C
:100C300020204D3330312050002044002049002036
:100C4000500020204D33303120450050494420735E
:100C5000657474696E67733A0A00205A002059005F
:100C600020204D323036205800486F6D65206F6669
:100C70006673657420286D6D290A00204500205A8E
:100C80000020580020420020540020204D323035F2
:100C9000205300416476616E6365642076617269F9
:100CA00061626C65733A20533D4D696E20666565DF
:100CB000647261746520286D6D2F73292C20543D5A
:100CC0004D696E2074726176656C2066656564722C
:100CD00061746520286D6D2F73292C20423D6D694C
:100CE0006E696D756D207365676D656E74207469CE
:100CF0006D6520286D73292C20583D6D6178696DD4
:100D0000756D205859206A65726B20286D6D2F73A0
:100D1000292C20205A3D6D6178696D756D205A200F
:100D20006A65726B20286D6D2F73292C2020453D3C
:100D30006D6178696D756D2045206A65726B20283C
:100D40006D6D2F73290A0020540020520020204D81
:100D5000323034205000416363656C6572617469A0
:100D60006F6E733A20503D7072696E74696E672CB5
:100D700020523D7265747261637420616E64205408
:100D80003D74726176656C0A00204500205A00208F
:100D9000590020204D3230312058004D6178696D66
:100DA000756D20416363656C65726174696F6E2057
:100DB000286D6D2F7332293A0A00204500205A0011
:100DC00020590020204D3230332058004D61786981
:100DD0006D756D2066656564726174657320286D3C
:100DE0006D2F73293A0A00204500205A002059002F
:100DF00020204D393220580053746570732070657F
:100E00007220756E69743A0A001000AA03F0013A64
:100E1000019002220130031001D00302017004F797
:100E2000001005ED00B005E5005006DD00F006D726
:100E3000009007D1003008CC00D008C7007009C36B
:100E400000100ABE00B00ABB00500BB700F00BB395
:100E500000900CB000D00DAA00100FA5005010A0FB
:100E60000090119B00D0129600B014900090168B49
:100E70000070188500501A8000301C7B00B01E7571
:100E80000030216F00B02369003026640010285F15
:100E900000902A5A00702C5500F02E4F00703148F7
:100EA00000B0324500F0334100703639001037375A
:100EB000005038330090392D00D03A2700B03C1C48
:100EC00000503D1700F03D1100903E0900D03FE575
:100ED000FF6265640A002C2073797374656D20735A
:100EE000746F7070656421204865617465725F4934
:100EF000443A20004572723A204D415854454D50B5
:100F0000004D415854454D502074726967676572B1
:100F10006564004572723A204D494E54454D50006B
:100F20004D494E54454D502074726967676572652E
:100F30006400544845524D414C2052554E41574152
:100F40005900546865726D616C2052756E617761ED
:100F5000790048656174696E67206661696C6564D3
:100F60000048656174696E67206661696C6564003C
:100F700048656174696E67206661696C65640048E4
:100F8000656174696E67206661696C6564002569D6
:100F9000730025696D20256973002569682025691E
:100FA0006D202569730025696420256968202569FD
:100FB0006D202569730025697920256964202569DC
:100FC000682025696D20256973005072696E742050
:100FD00074696D653A200020400020403A00202FBF
:100FE00000205400202F0020543A00205A3A0020BC
:100FF000593A0020436F756E7420583A20002045FE
:101000003A00205A3A0020593A00583A0041637495
:101010006976652045787472756465723A20004E71
:101020006F206D6F7665206F6E20746F6F6C6368D4
:10103000616E67650A00526573656E643A20006FE1
:101040006B0020746F6F206C6F6E67206578747210
:101050007573696F6E2070726576656E7465640A6B
:101060000020636F6C6420657874727573696F6EAD
:101070002070726576656E7465640A0062757379B6
:101080003A2070617573656420666F7220696E70B6
:1010900075740A00627573793A20706175736564BE
:1010A00020666F7220757365720A00627573793AF3
:1010B0002070726F63657373696E670A004B494CE9
:1010C0004C45442E20005072696E74657220686130
:1010D0006C7465642E206B696C6C28292063616CCC
:1010E0006C6564210A000000E8C100009243000022
:1010F00000005761726E696E673A20486F6D696EC5
:10110000672042756D702044697669736F72203C68
:1011100020310A000000A0400000A0400000004074
:10112000000096430000964300005C43FF01FF452A
:1011300072726F722077726974696E6720746F20A3
:10114000454550524F4D210A002066697273740A5A
:10115000005A0059005800486F6D652000656368AB
:101160006F3A0024F4D43050C38E20C2A2401782BC
:101170008B7011127A910D816CD90AA861E108C7B0
:10118000586607615143061E4B5D05C145A7041A09
:10119000411104093D9803713931034036DB026582
:1011A000339102D4305402802E1D02632CEE01755F
:1011B0002AC501B028A001102781018F2564012BC9
:1011C000244B01E0223401AC211F018D200D018050
:1011D0001FFC00841EED00971DDF00B81CD200E646
:1011E0001BC600201BBC00641AB200B219A8000A7A
:1011F00019A0006A189900D117910040178B00B50B
:1012000016840031167E00B31579003A157300C7B5
:10121000146F0058146A00EE1366008813630025EB
:10122000135E00C7125B006C12570015125400C108
:1012300011510070114F0021114B00D61049008D43
:101240001047004610440002104200C00F400080CA
:101250000F3E00420F3C00060F3B00CB0E380093C0
:101260000E37005C0E3500270E3400F30D3200C13E
:101270000D3100900D3000600D2E00320D2D000557
:101280000D2C00D90C2B00AE0C2900850C29005C1C
:101290000C2700350C27000E0C2600E80B2400C498
:1012A0000B2400A00B23007D0B23005A0B210039D7
:1012B0000B2100180B2000F80A1F00D90A1E00BBE2
:1012C0000A1E009D0A1D00800A1D00630A1C0047BB
:1012D0000A1B002C0A1B00110A1A00F7091A00DD6C
:1012E000091900C4091900AB091900920917007BFC
:1012F000091800630917004C09160036091600206A
:101300000916000A091500F5081500E0081400CCBC
:10131000081400B8081400A4081400900813007DF5
:101320000812006B08130058081200460812003417
:10133000081100230811001208110001081100F023
:10134000071000E0071000D0071000C0071000B021
:10135000070F00A107100091070E0083070F00740C
:10136000070F0065070E0057070E0049070E003BE8
:10137000070D002E070E0020070D0013070D0006B5
:10138000070D00F9060C00ED060D00E0060C00D478
:10139000060C00C8060C00BC060C00B0060C00A42D
:1013A000060B0099060C008D060B0082060B0077D9
:1013B000060B006C060B0061060A0057060B004C7A
:1013C000060A0042060A0038060A002E060A002411
:1013D000060A001A060A001006090007060A00FDA0
:1013E000050900F4050900EB050900E2050900D92B
:1013F000050900D0050900C7050900BE050900B5AB
:10140000050800AD050800A50509009C0508009425
:101410000508008C050800840508007C0508007498
:101420000508006C050700650508005D0507005606
:101430000508004E0507004705070040050800386D
:10144000050700310507002A050700230507001CD2
:10145000050600160507000F05070008050600022F
:10146000050700FB040600F5040700EE040600E88B
:10147000040600E2040700DB040600D5040600CFE2
:10148000040600C9040600C3040600BD040600B734
:10149000040600B1040500AC040600A6040600A082
:1014A0000405009B04060095040500900406008ACC
:1014B00004050085040500800406007A0405007513
:1014C000040500700405006B040500660405006156
:1014D0000405005C04050057040500520405004D96
:1014E00004050048040500430405003E0404003AD6
:1014F00004050035040500300404002C0405002711
:10150000040400230405001E0404001A0404001649
:10151000040500110404000D04040009040500047E
:1015200004040000040400FC030400F8030400F4B5
:10153000030400F0030400EC030400E8030400E4E7
:10154000030400E0030400DC030400D8030400D417
:10155000030400D0030400CC030400C8030300C547
:1015600003030024F404D9201BC40C5C0E9804C4AB
:10157000095F0265077101F405F900FB04B3004837
:10158000048700C10369005803550003034500BEEA
:10159000023A008402310053022A00290225000485
:1015A000022000E4011C00C8011900AF01170098D7
:1015B0000114008401130071011000610110005139
:1015C000010E0043010D0036010B002B010B002022
:1015D000010B00150109000C01090003010800FBC3
:1015E000000800F3000800EB000700E4000600DE3E
:1015F000000600D8000600D2000600CC000500C797
:10160000000500C2000500BD000400B9000400B5DB
:10161000000400B1000400AD000400A9000400A50E
:10162000000300A20003009F0004009B0003009839
:101630000003009500020093000300900003008D5A
:101640000002008B00030088000200860002008474
:10165000000300810002007F0002007D0002007B89
:101660000002007900020077000100760002007499
:1016700000020072000100710002006F0002006DA4
:101680000001006C0002006A0001006900020067AE
:1016900000010066000100650001006400020062B4
:1016A00000010061000100600001005F0002005DB8
:1016B0000001005C0001005B0001005A00010059BC
:1016C00000010058000100570001005600010055BC
:1016D00000010054000100530000005300010052BB
:1016E00000010051000100500001004F0001004EB8
:1016F0000000004E0001004D0001004C0001004BB5
:101700000000004B0001004A0001004900010048B0
:1017100000000048000100470001004600000046AC
:1017200000010045000000450001004400010043A5
:10173000000000430001004200000042000100419F
:1017400000000041000100400001003F0000003F98
:101750000001003E0000003E0001003D0000003D91
:101760000001003C0000003C0000003C0001003B88
:101770000000003B0001003A0000003A000100397F
:101780000000003900010038000000380000003877
:10179000000100370000003700010036000000366D
:1017A0000000003600010035000000350000003563
:1017B0000001003400000034000000340001003358
:1017C000000000330000003300010032000000324E
:1017D0000000003200010031000000310000003143
:1017E0000001003000000030000000300001002F38
:1017F0000000002F0000002F0000002F0001002E2D
:101800000000002E0000002E0001002D0000002D21
:101810000000002D0000002D0001002C0000002C15
:101820000000002C0000002C0001002B0000002B09
:101830000000002B0000002B0001002A0000002AFD
:101840000000002A0000002A0001002900000029F1
:1018500000000029000000290000002900010028E4
:1018600000000028000000280000002800000028D8
:1018700000010027000000270000002700000027CB
:1018800000000027000100260000002600000026BE
:1018900000000026000000260001002500000025B1
:1018A00000000025000000250000002500000025A4
:1018B0000001002400000024000000240000002497
:1018C000000000240001002300000023000000238A
:1018D000000000230000002300000023000000237C
:1018E000000100220000002200000022000000226F
:1018F0000000002200000022000100210000002161
:101900000000002100000021000000210000002153
:101910000000002100010020000000200000002045
:101920000000002000000020000000200000002037
:10193000000000200001001F0000001F0000001F29
:101940000000001F0000001F0000001F0000001F1B
:101950000001001E0000001E0000001E0000001E0E
:101960000000004E414E494E495459494E46CDCC97
:10197000CC3D0AD7233C17B7D13877CC2B3295957D
:10198000E6241FB14F0A000020410000C842004079
:101990001C4620BCBE4CCA1B0E5AAEC59D74338477
:1019A00011241FBECFEFD1E2DEBFCDBF00E00CBFE0
:1019B00013E0A0E0B2E0E0ECF3E201E00BBF02C014
:1019C00007900D92A23DB107D9F72DE0A2EDB3E04B
:1019D00001C01D92A137B207E1F71CE0C0EDDCE0C9
:1019E00000E006C021970109802FFE010E94698650
:1019F000CF3CD10780E00807A9F70E94737E0C94C2
:101A0000DE910C9400002F923F924F925F926F9262
:101A10007F928F929F92AF92BF92CF92DF92EF927E
:101A2000FF920F931F93CF93DF93CDB7DEB7C458C8
:101A3000D1090FB6F894DEBF0FBECDBF0091BE0531
:101A400020E6029F8001112400511C4F109377055E
:101A5000009376058091F70580FF19C0ADE5EA2E69
:101A6000A1E1FA2EF7018491882331F00E9472736C
:101A70003FEFE31AF30AF6CFD8018D918D01882349
:101A800019F00E947273F8CF8AE00E94727320915D
:101A9000760530917705F90180812F5F3F4F8032C5
:101AA000D1F3F0937705E09376058E3469F01091C9
:101AB0007605009177056AE270E0812F902F0E94F1
:101AC00065890097D1F420C0818190ED980F9A30FC
:101AD00010F08D3261F73296DF0131962C91205350
:101AE0002A30D0F3CD01FC01019620812032D9F3B8
:101AF000F0937705E0937605DACFFC013196829179
:101B0000803231F08A3221F0A12FB02F9D9102C096
:101B10001082F5CFFD01808111968032D9F3805378
:101B20008A3020F00DE511E10C94C42600E010E0AD
:101B30004AE0409F9001419F300D112489010053DC
:101B400011098191080F111D87FD1A95808180531D
:101B50008A3078F3DF0131968C918032D9F3B093DB
:101B6000EF03A093EE0321E030E030932A072093A7
:101B700029079D3409F499C7943511F40C946A2609
:101B8000973411F00C948E260C31110509F4C1C460
:101B900080F40430110538F480912B0202301105D5
:101BA00008F44AC08FC00430110509F46CC40C94C9
:101BB000B8260A35110509F4B3C6A0F50D31110593
:101BC00009F44BC60E31110511F00C94B8260E9491
:101BD000865720E030E0A90160917807709179077D
:101BE00080917A0790917B070E947A864B015C0175
:101BF00020E030E0A9016091740770917507809131
:101C00007607909177070E947A86EE24E394F12C70
:101C100001E0A50194010E940B566B017C0104EDCB
:101C200011E01FC60B35110509F47EC60C351105F0
:101C300009F47FC60C94B826882309F43FC00E949B
:101C4000DD5220E030E040E85FE36091980570915C
:101C5000990580919A0590919B050E94C88D8111EC
:101C60002DC080E090E0AAEFB4E4809370059093DB
:101C70007105A0937205B093730580930002909351
:101C80000102A0930202B09303028AE50E94585217
:101C90008823A1F080E090E0A0E7B3E48093700592
:101CA00090937105A0937205B09373058093000221
:101CB00090930102A0930202B09303020E941F724C
:101CC0000C94B826882311F40C94B82620E030E058
:101CD00040E85FE3609198057091990580919A05BD
:101CE00090919B050E94C88D811118C020E030E0C2
:101CF0004AEF54E460910002709101028091020267
:101D0000909103020E94C88D811108C01092700545
:101D10001092710510927205109273050E94DD52A7
:101D200089E40E945852882329F00E94B4526B0122
:101D30007C0103C0C12CD12C76018AE40E94585248
:101D4000882339F00E94B45268AB79AB8AAB9BAB65
:101D500004C018AA19AA1AAA1BAAA7019601C701AA
:101D6000B6010E942D8E4B015C0128A939A94AA910
:101D70005BA9CA01B9010E942D8E9B01AC01C5016E
:101D8000B4010E947A860E940B89A0966CAF7DAF49
:101D90008EAF9FAFA0972091740730917507409147
:101DA00076075091770728AF39AF4AAF5BAFA701ED
:101DB000960168AD79AD8AAD9BAD0E947A86289672
:101DC0006CAF7DAF8EAF9FAF2897809178079091D1
:101DD0007907A0917A07B0917B0724968CAF9DAFCD
:101DE000AEAFBFAF249728A939A94AA95BA9BC0106
:101DF000CD010E947A862C966CAF7DAF8EAF9FAFDF
:101E00002C9720917C0730917D0740917E0750915F
:101E10007F0760962CAF3DAF4EAF5FAF609760918C
:101E20003C0770913D0780913E0790913F070E94CB
:101E300079866CAF7DAF8EAF9FAF80914007909158
:101E40004107A0914207B0914307A4968CAF9DAF84
:101E5000AEAFBFAFA497209180073091810740912A
:101E600082075091830764962CAF3DAF4EAF5FAFB2
:101E70006497D701C601B0588CA79DA7AEA7BFA78E
:101E800028A939A94AA95BA950582CAB3DAB4EAB48
:101E90005FABC0903407D0903507E0903607F090E4
:101EA00037076896CCAEDDAEEEAEFFAE68972896EB
:101EB0002CAD3DAD4EAD5FAD2897C701B6010E9478
:101EC00079866B017C012091380730913907409168
:101ED0003A0750913B076C962CAF3DAF4EAF5FAFCA
:101EE0006C972C962CAD3DAD4EAD5FAD2C976C969E
:101EF0006CAD7DAD8EAD9FAD6C970E9479864B0128
:101F00005C01A70196016CA57DA58EA59FA50E94E9
:101F10002D8E2B013C01A50194016CA97DA98EA9F0
:101F20009FA90E942D8E9B01AC01C301B2010E94AA
:101F30007A862B013C01A50194016CA57DA58EA597
:101F40009FA50E942D8E4B015C01A70196016CA9F3
:101F50007DA98EA99FA90E942D8E9B01AC01C50170
:101F6000B4010E947986A30192010E94F8866B0158
:101F70007C0120E030E0A9010E94C88D87FF0AC0E3
:101F80002BED3FE049EC50E4C701B6010E947A8690
:101F90006B017C010230110551F42BED3FE049EC5F
:101FA00050E4C701B6010E9479866B017C0120E0F4
:101FB00030E0A901C701B6010E94C88D811128C077
:101FC00068962CAD3DAD4EAD5FAD689768AD79AD0F
:101FD0008AAD9BAD0E94C88D81111AC06C962CAD44
:101FE0003DAD4EAD5FAD6C9724966CAD7DAD8EADC5
:101FF0009FAD24970E94C88D81110AC02BED3FE050
:1020000049EC50E4C701B6010E947A866B017C015D
:10201000A0962CAD3DAD4EAD5FADA097C701B6010A
:102020000E942D8E9B01AC010E942D8E4B015C0104
:102030002CAD3DAD4EAD5FADCA01B9010E942D8EF4
:102040009B01AC01C501B4010E947A860E940B89F4
:102050004B015C012FE632E143E85AE30E94C88D50
:1020600087FD0DC2C501B4010E940C880E94DD8766
:102070001B01672B19F422242394312CB10180E039
:1020800090E00E94CC8D4B015C019B01AC01C7012B
:10209000B6010E94668768AF79AF8AAF9BAFA50192
:1020A00094016CAD7DAD8EAD9FAD0E9466876C9640
:1020B0006CAF7DAF8EAF9FAF6C9764962CAD3DAD8E
:1020C0004EAD5FAD6497A4966CAD7DAD8EAD9FAD0A
:1020D000A4970E947986A50194010E946687A09624
:1020E0006CAF7DAF8EAF9FAFA09728AD39AD4AAD35
:1020F0005BADCA01B9010E942D8E20E030E040E0C6
:102100005FE30E942D8E9B01AC0160E070E080E8EF
:102110009FE30E94798668966CAF7DAF8EAF9FAFCC
:1021200068976096CCACDDACEEACFFAC6097C9862E
:10213000DA86EB86FC866496CCACDDACEEACFFAC0C
:102140006497CD86DE86EF86F88A20E030E040E7AF
:1021500052E4609153027091540280915502909123
:1021600056020E9466876B017C018091510290911A
:102170005202BC01990F880B990B0E94CE8D9B01D6
:10218000AC01C701B6010E942D8E2AE037ED43E273
:102190005CE30E942D8E60966CAF7DAF8EAF9FAFDB
:1021A00060970E94703E9B01AC0128533F4F4F4FF8
:1021B0005F4F64962CAF3DAF4EAF5FAF64974CA4BA
:1021C0005DA46EA47FA41CAE41E050E022965FAFF8
:1021D0004EAF22972296CEACDFAC2297C214D30426
:1021E00009F423C180918C0681110E9411640E9420
:1021F000703E8B019C016496CCACDDACEEACFFACC8
:1022000064970C191D092E093F0937FD0EC09B016B
:10221000AC0128533F4F4F4F5F4F64962CAF3DAFFB
:102220004EAF5FAF64970E94176F3CAD3F5F3CAF0E
:1022300039310CF041C068962CAD3DAD4EAD5FAD6F
:1022400068976CA97DA98EA99FA90E942D8E6B010C
:102250007C0128AD39AD4AAD5BADB201C3010E942E
:102260002D8EA70196010E947A867B018C016896CB
:102270002CAD3DAD4EAD5FAD6897B201C3010E947C
:102280002D8E4B015C0128AD39AD4AAD5BAD6CA91B
:102290007DA98EA99FA90E942D8E9B01AC01C5012D
:1022A000B4010E9479862B013C01A701B8014CAB17
:1022B0005DAB6EAB7FAB52C022964EAD5FAD229749
:1022C000BA0180E090E00E94CC8D28AD39AD4AADD6
:1022D0005BAD0E942D8E4B015C010E9463876B01F8
:1022E0007C01C501B4010E9400894B015C01A7017A
:1022F00096016CA57DA58EA59FA50E942D8E2B0114
:102300003C01A501940168A979A98AA99BA90E9409
:102310002D8E9B01AC01C301B2010E947A862B0174
:102320003C01A50194016CA57DA58EA59FA50E94E9
:102330002D8E4B015C01A701960168A979A98AA994
:102340009BA90E942D8E9B01AC01C501B4010E9486
:1023500079866CAB7DAB8EAB9FAB1CAE9201A301BB
:1023600028966CAD7DAD8EAD9FAD28970E947A8684
:1023700069837A838B839C832CA93DA94EA95FA98D
:102380002C966CAD7DAD8EAD9FAD2C970E947A865C
:102390006D837E838F8398876C962CAD3DAD4EAD5B
:1023A0005FAD6C9769857A858B859C850E947A865E
:1023B00069877A878B879C87A0962CAD3DAD4EAD03
:1023C0005FADA0976D857E858F8598890E947A86FE
:1023D0006D877E878F87988BCE0101960E948D71C5
:1023E000E984FA840B851C852D813E814F815885B7
:1023F00069817A818B819C81E0912807EF936096B7
:102400008CAC9DACAEACBFAC6097DE011D966D018F
:102410000E9473422296EEADFFAD2297319622962E
:10242000FFAFEEAF22970F90D5CEE0903C07F09033
:102430003D0700913E0710913F07209138073091EA
:10244000390740913A0750913B07609134077091EA
:1024500035078091360790913707E0912807EF9371
:1024600060968CAC9DACAEACBFAC6097E0E4CE2E79
:10247000E7E0DE2E0E9473420E943D510F900E94C1
:1024800000560C94B82680E50E945852882371F0BB
:102490008091D6039091D7034AE050E060E070E06D
:1024A00001960E941C8C6B017C0103C0C12CD12CB5
:1024B000760183E50E945852882361F00E94B4524D
:1024C00020E030E04AE754E40E942D8E0E94DD8730
:1024D0006B017C010E94697E0E94005680912C074E
:1024E00090912D07A0912E07B0912F07C80ED91EED
:1024F000EA1EFB1E0E94703EDC01CB018C199D0977
:10250000AE09BF09B7FD02C00C94B8260E94176F30
:10251000F1CF0E94697E80E090E0A0E8BFE3809365
:102520001A0890931B08A0931C08B0931D081092E2
:102530001E0810921F081092200810922108109275
:102540002208109223081092240810922508109255
:1025500026081092270810922808109229088093C4
:102560002A0890932B08A0932C08B0932D08109262
:102570002E0810922F0810923008109231081092F5
:1025800032081092330810923408109235081092D5
:102590003608109237081092380810923908809344
:1025A0003A0890933B08A0933C08B0933D083090C4
:1025B000280721E040E050E0BA0180E00E948267F5
:1025C0000E94865711E010930E0288E50E9458522F
:1025D000E82E89E50E945852082F8AE50E94585239
:1025E000F82EE11004C0011104C0182705C0011124
:1025F00002C010E001C0182F109304020E94335152
:10260000111104C0E11002C00023A9F120E030E064
:1026100040E85FE360916007709161078091620715
:10262000909163070E947A86209154073091550754
:1026300040915607509157070E947A864B015C01E2
:1026400060933C0770933D0780933E0790933F074C
:1026500020917C0730917D0740917E0750917F0744
:102660000E94C28818163CF420E030E0A901C501A0
:10267000B4010E94135180910402811102C0EE2026
:1026800021F080E090E00E94E26C809104028111D0
:1026900002C0002321F081E090E00E94E26C809172
:1026A0000402811103C0F11036C0C2C00E94165549
:1026B00080E090E0A2EFB2E4809334079093350776
:1026C000A0933607B093370780E090E0AEE0B3E424
:1026D0008093380790933907A0933A07B0933B074C
:1026E000E0907C07F0907D0700917E0710917F07B6
:1026F000E0923C07F0923D0700933E0710933F079E
:10270000A12CB12C65019C01AD0160E070E082EF6D
:1027100092E40E94E74F80E00E94967481110C942D
:10272000B826209158073091590740915A07509187
:102730005B0760917407709175078091760790919F
:1027400077070E94798620914C0730914D07409180
:102750004E0750914F070E9479866B017C01809053
:10276000780790907907A0907A07B0907B07409007
:102770005C0750905D0760905E0770905F07209146
:1027800050073091510740915207509153072CA7A1
:102790003DA74EA75FA720E030E048EE51EC0E9435
:1027A000C28887FD2FC020E030E847E853E4C70126
:1027B000B6010E94C88D18162CF1A3019201C50123
:1027C000B4010E9479862CA53DA54EA55FA50E9467
:1027D00079866B017C0120E030E040E051EC0E9402
:1027E000C28887FD0FC020E030E042E953E4C70112
:1027F000B6010E94C88D18162CF082E090E00E946D
:10280000E26C16C00DE511E1F8018491882329F0EE
:102810000E9472730F5F1F4FF7CF08EB11E0F801B2
:102820008491882329F00E9472730F5F1F4FF7CFA6
:102830000E9416558091880680930E021092BD0565
:102840000E946D5721E040E050E0BA01832D0E94C4
:1028500082670E94EF690C94B8260E948D280C9420
:10286000B826F8018491882329F00E9472730F5FC3
:102870001F4FF7CF20E030E0A901609174077091FD
:10288000750780917607909177070E947A8627E1F5
:1028900037EB41ED58E30E947A8642E00E942174B2
:1028A0000FEC11E0F8018491882329F00E947273E3
:1028B0000F5F1F4FF7CF20E030E0A901609178074C
:1028C0007091790780917A0790917B070E947A86B0
:1028D00027E137EB41ED58E30E947A8642E00E94FF
:1028E00021740AEC11E0F8018491882329F00E94F8
:1028F00072730F5F1F4FF7CF27E137EB41ED58E3BE
:10290000C701B6010E947A8642E00E9421748AE0E3
:102910000E9472730E946D570E94EF690C94B82652
:102920001092ED030C94B82681E08093ED030C9493
:10293000B92685E40E945852B82E811102C00E9427
:10294000697E13E7812E12E0912E04E7C02E07E086
:10295000D02E8CE4E82E87E0F82E00E010E0A12CC9
:10296000D4018D914D010E945852882309F44EC024
:10297000F6012081318142815381CF57DF4F288377
:10298000C158D040CE57DF4F3883C258D040CD57C2
:10299000DF4F4883C358D040CC57DF4F5883C458CB
:1029A000D0400E94B452D6016D937D938D939C9339
:1029B0001397CF57DF4F2881C158D040CE57DF4FF4
:1029C0003881C258D040CD57DF4F4881C358D040DE
:1029D000CC57DF4F5881C458D04003301105B1F0B7
:1029E0000E9479869B01AC01F7016081718182812F
:1029F00093810E947A86D7016D937D938D939C93EA
:102A00001397C8010E940D52AA24A3940F5F1F4F71
:102A1000B4E0CB0ED11CE4E0EE0EF11C0430110545
:102A200009F09ECFAA2021F00E9416550C94B826DA
:102A3000BB2011F40C94B826209190073091910797
:102A400040919207509193076091800770918107A0
:102A500080918207909183070E942D8E0E94CD88DD
:102A600060935E0870935F0880936008909361089C
:102A70008FB7F89440915E0850915F0860916008AC
:102A800070916108409370075093710760937207CB
:102A9000709373078FBF10924E0810924F081092D8
:102AA0005008109251080C94B8260237110509F409
:102AB000B7C608F0BFC00135110509F4C1C508F05B
:102AC00077C00A32110509F4E0C170F50B30110529
:102AD00009F4D1C170F40530110509F4BCC10A3004
:102AE000110509F4C2C10330110511F00C94B82688
:102AF0006DC10231110509F4BCC50F31110509F48E
:102B0000C0C10131110511F00C94B8265F988A9864
:102B10009FB7F894809108018E7F809308019FBF32
:102B2000129847980C94B8260B34110509F441C249
:102B300080F50D33110509F4EAC10E33110509F4CE
:102B40000DC20C33110511F00C94B82680E090E012
:102B5000A0E8BFE38093980590939905A0939A0508
:102B6000B0939B0560E08FE30E94063D61E086E044
:102B70000E94063D61E084E00E94063D60E08AE339
:102B80000E94063D6FEF70E089E30E94713D0C9456
:102B9000B8260D34110509F42AC208F40EC2003516
:102BA000110511F00C94B826269A2E980C94B8268C
:102BB0000A36110509F40FC550F50535110509F45C
:102BC0008FC550F40335110509F44EC508F051C501
:102BD0001092EC030C94B8260836110509F40BC2C8
:102BE00008F02EC30C35110511F00C94B82643E7FC
:102BF000842E42E0942E04E817E059EDA52E55E00E
:102C0000B52EA8EFB5E0BDA7ACA7312C84C50E3614
:102C1000110509F426C238F40C36110509F4C0C2B6
:102C200008F4FCC429C30037110509F4BDC208F437
:102C300034C2C2C2053F110511F40C94D21F08F032
:102C400057C00B3C110509F4E9C608F50937110511
:102C500009F4F1C570F40737110509F4F2C508F05D
:102C6000E3C50337110511F00C94B8260BE012E010
:102C7000CCC5083C110509F446C6093C110509F408
:102C8000AAC60C38110511F00C94B826C0C20A3D32
:102C9000110511F40C94571ED0F40D3C110509F4E4
:102CA00048C708F4DAC60E3C110511F00C94B8269A
:102CB000A3E7AA2EA2E0BA2EB4E7CB2EB7E0DB2E14
:102CC00018E5E12E17E0F12E00E010E0A5C70D3D5C
:102CD000110511F40C94AE1E023E110511F40C9472
:102CE000C81E0C3D110511F00C94B8260C949F1EC3
:102CF0000A39F1E01F0709F45BC288F50F3231E0B1
:102D0000130711F40C944320A8F40D3251E0150779
:102D100011F40C94191F10F00C94D81F063F1105E4
:102D200011F00C94B8266FEF70E089E30E94713DBA
:102D30000C94B826013991E0190711F40C9434234E
:102D40000239A1E01A0711F40C943823003911401C
:102D500011F00C94B8260E94697E0C94B826063FA8
:102D6000E1E01E0711F40C94D125E8F4043F21E0C2
:102D7000120711F40C94D22310F00C94CE250C3AC7
:102D8000114011F00C94B82664E7262E67E0362E29
:102D900028E537E03DA72CA744E957E059AB48ABFD
:102DA00000E010E063C7033553E0150711F40C94FD
:102DB000E325073E83E0180711F40C945C26073FD7
:102DC000114011F00C94B8260C94D42560E08BE0EF
:102DD0000E94063D60E085E00E94063D83E50E947A
:102DE0005852882359F10E94B45220E030E0A901E2
:102DF0000E94C88D87FD10C00E94B45220E030E4CC
:102E00004CE156E40E94C28818164CF00E94B4525D
:102E10000E94D787CB0105C080E090E002C080E12E
:102E200097E290937505809374056EE270E00E94BE
:102E300039868CE20E94713D0C94B82688E893E1B3
:102E400090937505809374056CE670E08CE20E94A7
:102E5000713D0C94B82661E08BE00E94063D61E074
:102E600085E00E94063D0C94B82661E08AE30E944A
:102E7000063D0C94B82660E08AE30E94063D0C945F
:102E8000B8260E945A6B0C94B82683E50E945852CB
:102E9000882311F40C94B8260E94A7527C018F3F1E
:102EA000910519F010F00C94B82680E50E94585254
:102EB000882339F00E94A7528C0197FF04C00C941C
:102EC000B8260DE010E0E7E7F2E081919191081754
:102ED000190711F40C94B826B2E0E73DFB07A9F7F7
:102EE00061E0802F0E94353D6E2D802F0E94063DAF
:102EF000B701802F0E94713D0430110511F00C9430
:102F0000B826F092F605E092F5050C94B8261092DA
:102F100098051092990510929A0510929B0560E011
:102F20008FE30E94063D61E086E00E94063D61E07D
:102F300084E00E94063D61E08BE00E94063D61E076
:102F400085E00E94063D60E08AE30E94063D6FEF47
:102F500070E089E30E94713D0C94B82680E090E017
:102F6000A0E8BFE38093980590939905A0939A05F4
:102F7000B0939B0561E08FE30E94063D60E086E030
:102F80000E94063D60E084E00E94063D61E08BE027
:102F90000E94063D61E085E00E94063D60E08AE314
:102FA0000E94063D60E070E089E30E94713D0C9450
:102FB000B8260E9437760C94B826809164089091C8
:102FC0006508019711F00C94B82682E090E0909388
:102FD0006508809364080E94703E60936E08709349
:102FE0006F0880937008909371080C94B8260E9423
:102FF000FB740C94B82688E690E00E94C1558111BC
:103000000C94B8268091F70583FF02C00C94B82673
:1030100083E50E945852882311F40C94B826F0904E
:10302000E8030E94B4520F2D10E0000F111F045648
:10303000194F0E94D787F801718360838F2D0E94FA
:103040004B610E94B45220E030E04AEA52E40E9410
:10305000C88D181614F00E94FB740E94B4520C9490
:10306000B8268EE40E945852882311F40C94B82696
:103070008091D6039091D7034AE050E060E070E081
:1030800001960E94F48A6093D2037093D3038093D5
:10309000D4039093D5030C94B82683E50E9458522C
:1030A000882319F00E946B5201C080E08093F705DD
:1030B0000DE511E1F8018491882329F00E947273D3
:1030C0000F5F1F4FF7CF0AEE11E0F80184918823BC
:1030D00029F00E9472730F5F1F4FF7CF8091F705A1
:1030E000882389F1ACEDEA2EA1E0FA2E00E010E091
:1030F00020E08091F70590E0002E02C0959587951D
:103100000A94E2F780FF16C0BB24B394B20E2223C8
:1031100019F08CE20E947273F701C590D490F60109
:103120008491882331F00E947273FFEFCF1ADF0A77
:10313000F6CF2B2D0F5F1F4FF2E0EF0EF11C053085
:103140001105B9F628C006EE11E0F8018491882334
:1031500011F10E9472730F5F1F4FF7CF08ED13E05C
:1031600080E20E947273D8016D917D918D919D9145
:103170008D0142E00E9421748CE20E947273F8017A
:10318000648175818681978142E00E942174F3E019
:10319000003E1F0729F78AE00E9472730C94B8263C
:1031A000109205020C94B82681EF91E00E94F06E17
:1031B0000E94C5690C94B82683E50E945852882362
:1031C00069F00E946B52809357028D3310F40C9477
:1031D000B8268CE3809357020C94B8260DE511E1D4
:1031E000F8018491882329F00E9472730F5F1F4FAA
:1031F000F7CF4091570250E060E070E08AEF91E035
:103200000E942F558AE00E9472730C94B826809118
:10321000F70583FF02C00C94B82683E50E9458523C
:10322000882311F40C94B8260E94B4520E94D787C8
:1032300070938B0660938A060E94FB600C94B826FC
:1032400089E690E00E94C155811110C001E012E0B2
:10325000F8018491882329F00E9472730F5F1F4F39
:10326000F7CF0E94A76A8AE00E94727310922A0721
:10327000109229070C9473288DE690E00E94C155A6
:1032800081110C94B8268091F70583FF02C00C943D
:10329000B82683E50E9458528CAB811105C082E5A7
:1032A0000E945852882301F1F090E8030E94B45222
:1032B0000F2D10E0000F111F0456194F0E94D787E1
:1032C000D8016D937C938F2D0E944B610E94B45264
:1032D00020E030E04AEA52E40E94C88D181614F447
:1032E0000C94EF260E94FB7486E40E94585280934F
:1032F0002B07882351F00E94B45260935C027093B4
:103300005D0280935E0290935F0283E50E945852B3
:10331000882351F00E94B45260936002709361025E
:10332000809362029093630282E40E945852882341
:1033300051F00E94B45260935802709359028093E6
:103340005A0290935B0281E08093050210922A0753
:103350001092290718AA19AA1AAA1BAA18AE19AE00
:103360001AAE1BAE1CA61CAEFCE32196FFAF219744
:103370002CE125962FAF259736E429963FAF299764
:10338000C12CD12CE0E8EE2EFFEBFF2E812C912CEE
:1033900054010091E80310E0F801EE0FFF1FE4561E
:1033A000F94F60817181072E000C880B990B0E94E8
:1033B000CE8D762E672E582E492E262F372F482F4A
:1033C000592FB601C7010E94C88D8823E1F0000F74
:1033D000111F000F111FF801EC56F94F20813181A8
:1033E00042815381672D762D852D942D0E94C88DA5
:1033F000881F8827881F8CA7CCA8CC2041F0882361
:1034000031F00C94B8267C2C6D2C5E2C4F2C0E9435
:10341000703E6B017C01DC01CB0128AD39AD4AADBA
:103420005BAD821B930BA40BB50BB7FD41C0D7015D
:10343000C60188519C4FAF4FBF4F88AF99AFAAAF1D
:10344000BBAF0E94A76A07E012E0F80184918823CD
:1034500029F00E9472730F5F1F4FF7CF8114910400
:10346000A104B104D1F0D501C401805F984DAF4FE4
:10347000BF4FBC01CD016C197D098E099F0928EE53
:1034800033E040E050E00E94A391CA01B9010E94DC
:10349000FE738AE00E9472730BC004E012E0F80130
:1034A0008491882329F00E9472730F5F1F4FF7CF1A
:1034B0000E94176F0E940056E091E80324E0E29F0B
:1034C000F0011124EC56F94F2080318002811381E4
:1034D0009101A801672D762D852D942D0E94798666
:1034E0009F7781149104A104B10449F420E030E0F5
:1034F00040E85FE30E94C88D87FF0BC008C020E052
:1035000030E040E450E40E94C288181614F44601EA
:1035100057013CA5332309F440C088A999A9AAA959
:10352000BBA9892B8A2B8B2B61F0D701C60128A957
:1035300039A94AA95BA9821B930BA40BB50BB7FD54
:103540002CC09101A8016CAD21967FAD21972596E5
:103550008FAD259729969FAD29970E94798620E007
:1035600030E040EC5FE30E94C88D87FF02C00C94FE
:10357000B826D701C601805A9541AF4FBF4F88ABDF
:1035800099ABAAABBBAB2CAE21963FAE219725964B
:103590000FAF259729961FAF2997809105028823A1
:1035A00011F40C94B82681149104A104B10429F4F7
:1035B000C72CD62CE52CF42CECCE90E1C91A97E25E
:1035C000D90AE108F108C818D908EA08FB08F7FC8D
:1035D000EFCF0C94B82683E50E945852882321F03F
:1035E0000E949A528C0102C00FEF10E080E50E9409
:1035F0005852882331F00E949A52892B11F00C9472
:10360000B82698010F3F110519F010F02FEF30E0A8
:103610003093F6052093F5050C94B82680E50E94BA
:103620005852811106C01092F6051092F5050C94BF
:10363000B8260E949A52892B11F00C94B826F3CF29
:103640000E94A8610E94697E0E94DE6E1092F605BB
:103650001092F50568EE73E080E090E00E94383E3D
:10366000269A2E9A0C94B82681E08093EC030C9451
:10367000B92683E50E9458528823A1F00E94B452D3
:1036800020E030E04AE754E40E942D8E0E94DD875E
:103690006093640270936502809366029093670260
:1036A0000C94B82688E50E94585281110C949026FB
:1036B00089E50E94585281110C9490268AE50E9457
:1036C000585281110C94902685E40E945852811121
:1036D0000C9490260E94697E0E94DE6E0C94B8269F
:1036E00083E50E945852882311F40C94B8260E9456
:1036F000B45220E030E04AE754E40E942D8E0E944C
:10370000DD87609330077093310780933207909381
:1037100033070C94B826F40181914F010E9458524E
:10372000882309F460C0F3E03F1255C00E94B452F0
:103730002B013C0120E030E040EA51E40E94C88DBA
:1037400087FF43C0A3019201D8016D917D918D91B6
:103750009C910E9466876B017C019B01AC0160918A
:10376000C1057091C2058091C3059091C4050E9466
:103770002D8E6093C1057093C2058093C30590930D
:10378000C405A7019601F501608171818281938151
:103790000E942D8ED5016D937D938D939C931397ED
:1037A000ECA5FDA560817181828193810E94CC8D01
:1037B000A70196010E942D8E0E94DD87ACA5BDA5B4
:1037C0006D937D938D939C931397F8014082518262
:1037D0006282738208C00E94B452D8016D937D93B7
:1037E0008D939C93139733940C5F1F4FB4E0AB0EF3
:1037F000B11CECA5FDA53496FDA7ECA7F4E03F12A3
:103800008ACF0E945D410C94B826F80184918823E8
:1038100011F40C94B8260E9472730F5F1F4FF5CFFE
:103820000E94EF690C94B82681E080930E02809389
:1038300088060C94B92610920E02109288060C94F9
:10384000B82607EF12E0F8018491882329F00E943E
:1038500072730F5F1F4FF7CF0FEE12E0F8018491E4
:10386000882329F00E9472730F5F1F4FF7CF659B6B
:1038700003C003E313E002C008E313E0D8018D9115
:103880008D01882319F00E947273F8CF8AE00E949C
:10389000727307EE12E0F8018491882329F00E94E8
:1038A00072730F5F1F4FF7CF8091030180FF03C03A
:1038B00003E313E002C008E313E0D8018D918D010A
:1038C000882319F00E947273F8CF8AE00E94727305
:1038D0000FED12E0F8018491882329F00E947273A1
:1038E0000F5F1F4FF7CF4B9B03C003E313E002C0F2
:1038F00008E313E0D8018D918D01882309F44BCCA6
:103900000E947273F7CF88EC90E00E94C15581113C
:103910000C94B82684E40E945852882311F40C9425
:10392000B8260E94B45211E020E030E0A9010E94C4
:10393000C88D811101C010E010938906112309F48C
:1039400046C00091E80310E00E94B452000F111F1E
:10395000000F111FF801ED5DFD4F608371838283BD
:10396000938320E030E0A90160912302709124024A
:1039700080912502909126020E94C88D81110CC071
:1039800080E090E0A0E4B0E48093230290932402CE
:10399000A0932502B093260220E030E0A9016091B7
:1039A0002702709128028091290290912A020E9498
:1039B000C88D81110CC080E090E0A0E4B0E4809359
:1039C000270290932802A0932902B0932A020E9412
:1039D000596E0C94B82698E0E92E96E0F92E03E78C
:1039E00012E024E0D22ED00EF80181918F010E94C6
:1039F0005852882351F00E94B4520E94DD87D701AB
:103A00006D937D938D939C931397B4E0EB0EF11C13
:103A1000D012EACF0E9415410C94B82609EDE02E91
:103A200005E0F02E03E712E084E0D82ED00EF80176
:103A300081918F010E945852882341F00E94B45214
:103A4000D7016D937D938D939C931397B4E0EB0E08
:103A5000F11CD012ECCF0C94B82683E50E9458528A
:103A60008823D9F00E94B452AB01BC014093D10528
:103A70005093D2056093D3057093D4054093CD0540
:103A80005093CE056093CF057093D0058BE693E0FD
:103A90000E9467558AE00E94727380E50E94585226
:103AA000882399F00E94B452AB01BC014093D10528
:103AB0005093D2056093D3057093D4058EE493E0C0
:103AC0000E9467558AE00E94727382E50E945852F4
:103AD000882399F00E94B452AB01BC014093D505F4
:103AE0005093D6056093D7057093D8058FE293E085
:103AF0000E9467558AE00E94727384E50E945852C2
:103B0000882311F40C94B8260E94B452AB01BC0176
:103B10004093CD055093CE056093CF057093D005AB
:103B200081E193E00E9467558AE00E9472730C94D1
:103B3000B82683E50E945852882351F00E94B4525F
:103B40006093F1057093F2058093F3059093F4056B
:103B500084E50E945852882351F00E94B452609329
:103B6000ED057093EE058093EF059093F00582E4E8
:103B70000E945852882399F08091D6039091D703E0
:103B80004AE050E060E070E001960E941C8C609377
:103B9000E9057093EA058093EB059093EC0588E5C1
:103BA0000E945852882351F00E94B4526093C90574
:103BB0007093CA058093CB059093CC058AE50E944B
:103BC0005852882351F00E94B4526093C5057093F7
:103BD000C6058093C7059093C80585E40E94585296
:103BE000882311F40C94B8260E94B4526093C10546
:103BF0007093C2058093C3059093C4050C94B826B6
:103C00000F5F1F4FF4E0CF0ED11C24E0E20EF11C39
:103C10000330110509F445C0F50181915F010E944F
:103C20005852882369F30E94B4522B013C01D701FA
:103C30002D913D914D915C910E9479869B01AC0143
:103C4000F60160817181828193810E947A86D6011A
:103C50006D937D938D939C931397F70140825182CE
:103C600062827382C8010E940D52CACF88A999A9A5
:103C7000845997409DAB8CABA8A9B9A98D91B9ABDC
:103C8000A8AB8111F9C4F4E02F0E311C0C5F1F4F5B
:103C90002CA53DA52C5F3F4F3DA72CA70C3011054F
:103CA00029F70E9416550E94EF690C94B8268AEDF8
:103CB00090E00E94C15581110C94B82688E50E94BD
:103CC0005852882381F00091E80310E00E94B4521A
:103CD000000F111F000F111FF801E852FC4F608305
:103CE00071838283938389E50E945852882381F0EF
:103CF0000091E80310E00E94B452000F111F000F62
:103D0000111FF801E052FC4F60837183828393831B
:103D10000DE511E1F8018491882329F00E94727366
:103D20000F5F1F4FF7CF03E913E0F8018491882359
:103D300009F414CA0E9472730F5F1F4FF6CF83E518
:103D40000E945852882311F40C94B8260E94A7525E
:103D500090935202809351020C94B8268DED90E01E
:103D60000E94C15581110C94B82683E50E945852D7
:103D7000882309F4FDC70091E80310E00E94A752D0
:103D8000000F111FF801ED5EFD4F91838083F0C796
:103D900080E50E945852882309F4EAC70E94A7527E
:103DA0008C0183E50E945852882321F00E94A7527B
:103DB0007C0103C0EE24EA94FE2CC7010196039710
:103DC00008F0D6C7E7E7F2E081919191801791075B
:103DD00009F4CEC722E0E73DF207B1F717FF01C0B3
:103DE000C7C70E94697ED02E60E0802F0E94353DBB
:103DF0003FEFE316F30631F0EA94EF2871F401E0A7
:103E000010E00DC0802F0E94DE3C31E020E0892BC5
:103E100009F030E0032F122F02C000E010E08D2DDA
:103E20000E94DE3C8017910709F4A2C70E94176F19
:103E3000F6CF85E40E945852811110C080E50E949F
:103E40005852882391F00E94B45260932F027093CD
:103E50003002809331029093320207C00E94A75231
:103E6000029764F30FE818E089C089E40E94585271
:103E7000882381F00E94B4522CE933E549E45EE3E3
:103E80000E942D8E609306027093070280930802B1
:103E90009093090284E40E945852882381F00E9482
:103EA000B4522CE933E549E45EE30E9466876093EF
:103EB00033027093340280933502909336020E944D
:103EC0000F7E0DE511E1F8018491882329F00E940D
:103ED00072730F5F1F4FF7CF0BEA13E0F801849165
:103EE000882329F00E9472730F5F1F4FF7CF6091F4
:103EF0002F0270913002809131029091320242E0A3
:103F00000E94217407EA13E0F8018491882329F0C4
:103F10000E9472730F5F1F4FF7CF2CE933E549E41E
:103F20005EE3609106027091070280910802909111
:103F300009020E94668742E00E94217403EA13E0AE
:103F4000F8018491882329F00E9472730F5F1F4F3C
:103F5000F7CF2CE933E549E45EE3609133027091D9
:103F6000340280913502909136020E942D8E42E0FB
:103F70000E9421748AE00E947273FAC6F80184914B
:103F8000882329F00E9472730F5F1F4FF7CF02E45E
:103F900013E0D8018D918D01882309F4FCC80E949B
:103FA0007273F7CF60E070E089E30E94713DE0C674
:103FB00083E50E945852082F8823A1F00E94B45232
:103FC00060930F027093100280931102909312027B
:103FD00011E020E030E0A9010E94C88D811110E0BD
:103FE0001093C00580E50E945852182F8823C1F015
:103FF00020E030E0A90160910F02709110028091E1
:104000001102909112020E94C88D882331F00E9403
:104010006B5211E0811101C010E01093C005A8C6D9
:104020000111A6C60DE511E1F8018491882329F05C
:104030000E9472730F5F1F4FF7CF61E070E084EC56
:1040400093E00E94A95520E030E040E05FE36091FA
:104050000F027091100280911102909112020E9441
:104060007A860E94D78783EB93E00E94A9550FEAD6
:1040700013E0F8018491882309F47AC60E947273D0
:104080000F5F1F4FF6CF85E40E945852882321F01E
:104090000E94A7528C0102C000E010E083E40E945D
:1040A0005852882339F00E94A752EB969FAF8EAFEB
:1040B000EB9706C025E030E0EB963FAF2EAFEB97D5
:1040C00085E50E945852882341F00E946B5231E0EE
:1040D000E0963FAFE097811103C0E0961FAEE097F6
:1040E00083E50E945852882351F00E94B4526CAF6D
:1040F00021967FAF219725968FAF259714C01CAED0
:1041000021961FAE219717FD09C046E125964FAFB6
:10411000259753E429965FAF299708C08CE8259628
:104120008FAF259792E429969FAF2997023011050A
:1041300010F40093E80310922A07109229070E94B6
:10414000703E4B015C01DC01CB018C53964FAF4FAD
:10415000BF4F80938E0690938F06A0939006B093E6
:1041600091060230110528F453E5E52E53E0F52EB3
:104170000EC006E613E0D8018D918D01882319F059
:104180000E947273F8CF8AE00E947273F1C5F70142
:1041900081917F01882319F00E947273F8CF8AE021
:1041A0000E9472730E94A861F801EE56F94F8FE7E2
:1041B000808381E080930502E5968CAE9DAEAEAE25
:1041C000BFAEE597EF968CAE9DAEAEAEBFAEEF97AD
:1041D00061961FAE619720E465962FAF65973CE12D
:1041E00069963FAF699746E46D964FAF6D97A1967C
:1041F0001FAEA197A5961FAEA597A6961FAEA69730
:10420000A7961FAEA797AF961CAE1DAE1EAE1FAEF3
:10421000AF97AB961CAE1DAE1EAE1FAEAB97C12CBA
:10422000D12C76013FE7432E512C612C712C8FE766
:1042300090E0A0E0B0E088AF99AFAAAFBBAFE9963D
:104240001CAE1DAE1EAE1FAEE99791E0E1969FAF8A
:10425000E1972E961FAE1EAE2E97312C212C18AA58
:104260001CAA000F111F000F111F0C56194FC15827
:10427000DF4FF983E883CF57D04080910502882330
:1042800009F4EBC10E94703E6CA77DA78EA79FA783
:1042900080918C06882309F402C10E94E463D8014E
:1042A0003C9011962C9011971296BC91B8ABF801E6
:1042B000F381FCAB232D322D4B2F5F2FA1966FADD9
:1042C000A197A5967FADA597A6968FADA697A79621
:1042D0009FADA7970E94C288181674F0A1963FAEB2
:1042E000A197A5962FAEA59728A9A6962FAFA6971A
:1042F0003CA9A7963FAFA797232D322D48A95CA9CB
:1043000061966FAD619765967FAD659769968FAD44
:1043100069976D969FAD6D970E94C88D87FD0EC001
:1043200061963FAE619765962FAE659748A96996ED
:104330004FAF69975CA96D965FAF6D9780918E06C0
:1043400090918F06A0919006B09191062CA53DA565
:104350004EA55FA5281B390B4A0B5B0B57FD12C0FE
:104360000E94627D8CA59DA5AEA5BFA58C53964FDE
:10437000AF4FBF4F80938E0690938F06A093900609
:10438000B0939106E1963FADE1972CAD332309F44C
:104390005FC021963FAD219725964FAD2597299671
:1043A0005FAD2997632D722D88A99CA90E94C288B0
:1043B00018160CF074C04CA55DA56EA57FA5481914
:1043C00059096A097B09DB01CA0188589341A1098F
:1043D000B109B7FD64C088AD99ADAAADBBAD841974
:1043E0009509A609B709B595A79597958795C158D9
:1043F000DF4FE881F981CF57D0408083E9964CAFF9
:104400005DAF6EAF7FAFE997FCADA196FFAFA1970F
:1044100021962FAD2197A5962FAFA59725963FAD55
:104420002597A6963FAFA69729964FAD2997A796B1
:104430004FAFA7978CA59DA5AEA5BFA5E5968CAF60
:104440009DAFAEAFBFAFE597E1961FAEE19727C036
:1044500021963FAD219725964FAD259729965FADC3
:104460002997632D722D88A99CA90E94C88D87FF6A
:1044700016C08CA59DA5AEA5BFA5E5962CAD3DADFE
:104480004EAD5FADE597821B930BA40BB50BAC0152
:10449000BD01485853416109710977FFA4C420E068
:1044A00030E040EA51E46CAD21967FAD219725962E
:1044B0008FAD259729969FAD29970E947A869B01FB
:1044C000AC01632D722D88A99CA90E94C288181680
:1044D00064F401E914E0F8018491882309F448C4E4
:1044E0000E9472730F5F1F4FF6CF80E398EFAFEF1C
:1044F000BFEFEF962CAD3DAD4EAD5FADEF97821B9C
:10450000930BA40BB50B2CA53DA54EA55FA5820F63
:10451000931FA41FB51FB7FD0FC00E94A76A8AE0B2
:104520000E9472738CA59DA5AEA5BFA5EF968CAF1A
:104530009DAFAEAFBFAFEF978CA59DA5AEA5BFA5B4
:10454000880F991FAA1FBB1FE5962CAD3DAD4EAD40
:104550005FADE597821B930BA40BB50B88199909E6
:10456000AA09BB0981389F44A241B10560F003E765
:1045700014E0F8018491882309F4FAC30E9472734D
:104580000F5F1F4FF6CF2E962EAD3FAD2E97EB96B9
:104590004EAD5FADEB97421753070CF06ECE06E1C0
:1045A00014E0F8018491882329F00E9472730F5F50
:1045B0001F4FF7CFB701A60181E094E00E94675535
:1045C000AB964CAD5DAD6EAD7FADAB978CEE93E031
:1045D0000E946755AF964CAD5DAD6EAD7FADAF97A8
:1045E00087ED93E00E946755E096FFADE097FF23CB
:1045F00009F4BEC3C0922F02D0923002E092310281
:10460000F09232022CE933E549E45EE3AB966CADFF
:104610007DAD8EAD9FADAB970E942D8E609306024F
:104620007093070280930802909309022CE933E506
:1046300049E45EE3AF966CAD7DAD8EAD9FADAF97B7
:104640000E94668760933302709334028093350230
:10465000909336020E940F7E8BC3809105028111D8
:1046600087C30E94A86184C381E00E94DA5080C39E
:1046700080E00E94DA507CC3F801E75CFD4F2081A6
:10468000318142815381F801EB5BFD4F6081718183
:10469000828193810E947A8620E030E040E05FE3EF
:1046A0000E942D8E9B01AC01F1016081718182819C
:1046B00093810E94C288181634F4C8018A519F4E13
:1046C0000E94075203C060E070E0CB01D1014D9021
:1046D0005D906D907C90ECA5FDA5C080D180E280BE
:1046E000F380A70196010E947A86F801E45BF84FF7
:1046F00020813181428153810E947A869B01AC01E5
:10470000C301B2010E9479864B015C0120E030E0D8
:1047100040EA51EC0E94C28818166CF520E030E0A7
:1047200040EA51E4C501B4010E94C88D87FF23C04F
:10473000A5019401C701B6010E9479864B015C0175
:10474000A70196010E9479869B01AC01C301B201C9
:104750000E947A86D1016D937D938D939C931397DC
:10476000ECA5FDA580829182A282B3828CA99DA92D
:104770000E940D5288CA0FE818E0F801849188233E
:1047800029F00E9472730F5F1F4FF7CF04E015E00E
:10479000F8018491882309F4EBC20E9472730F5FC1
:1047A0001F4FF6CF198A1A8A1B8A1C8A80E390E36E
:1047B000A0E3B0E089839A83AB83BC8384E690E076
:1047C00098A78FA344E0BE016F5F7F4FCE0187960D
:1047D0000E948C6C8FA198A5029698A78FA3109227
:1047E00087061092860640E164E877E0CE0187965E
:1047F0000E948C6C40E169ED75E0CE0187960E94C5
:104800008C6C40E168E076E0CE0187960E948C6C6B
:1048100044E061ED75E0CE0187960E948C6C44E027
:1048200065ED75E0CE0187960E948C6C44E06DECDE
:1048300075E0CE0187960E948C6C44E061EF75E0D4
:10484000CE0187960E948C6C44E06DEE75E0CE013F
:1048500087960E948C6C44E069EE75E0CE018796E5
:104860000E948C6C44E069EC75E0CE0187960E9452
:104870008C6C44E065EC75E0CE0187960E948C6CF0
:1048800044E061EC75E0CE0187960E948C6C4CE0B0
:1048900068E577E0CE0187960E948C6C83E08BA759
:1048A0008AA719A6198A1A8A1B8A1C8A41E0BE01A6
:1048B000675D7F4FCE0187960E948C6C44E0BE01FD
:1048C0006F5E7F4FCE0187960E948C6C41E0BE01E7
:1048D000655D7F4FCE0187960E948C6C41E0BE01E2
:1048E000665D7F4FCE0187960E948C6C10E08BA591
:1048F0009AA5212F30E0899FC001112444E0281798
:1049000039074CF4BE016F5E7F4FCE0187960E943F
:104910008C6C1F5FECCF6FE172E0CE0187960E9436
:104920008C6C198A1A8A1B8A1C8A1AE0115049F069
:1049300044E0BE016F5E7F4FCE0187960E948C6C73
:10494000F5CF84EB90E09EA38DA386E490E09CA33A
:104950008BA38FEF90E09AA389A320EF30E038A3D8
:104960002F8F2EE630E03E8F2D8F9C8F8B8F42E075
:10497000BE016B5D7F4FCE0187960E948C6C42E03A
:10498000BE016D5D7F4FCE0187960E948C6C42E028
:10499000BE016F5D7F4FCE0187960E948C6C42E016
:1049A000BE01615E7F4FCE0187960E948C6C42E013
:1049B000BE01635E7F4FCE0187960E948C6C42E001
:1049C000BE01655E7F4FCE0187960E948C6CC12C24
:1049D00040E8D42E4BE3E42E45E4F42E812C912CB8
:1049E00050E8A52E5FE3B52E123010F544E06FE2DB
:1049F00072E0CE0187960E948C6C44E066E072E023
:104A0000CE0187960E948C6C44E063E372E0CE0195
:104A100087960E948C6C898A9A8AAB8ABC8A44E009
:104A2000BE016F5E7F4FCE0187960E948C6C1CC0CA
:104A3000C98ADA8AEB8AFC8A44E0BE016F5E7F4F46
:104A4000CE0187960E948C6C198A1A8A1B8A1C8A4E
:104A500004E0015049F044E0BE016F5E7F4FCE019B
:104A600087960E948C6CF5CF1F5F143009F0BCCF85
:104A700084E190E09A8F898F42E0BE01675E7F4FAC
:104A8000CE0187960E948C6C80E090E8ABE3B5E4A1
:104A9000898B9A8BAB8BBC8B115049F044E0BE01E3
:104AA0006F5E7F4FCE0187960E948C6CF5CF80E2BF
:104AB00090E0988F8F8B42E0BE01695E7F4FCE0100
:104AC00087960E948C6C80E090E0A0E8BFE3898B21
:104AD0009A8BAB8BBC8B44E0BE016F5E7F4FCE01E7
:104AE00087960E948C6C41E069E876E0CE0187965B
:104AF0000E948C6C33E2E32E32E0F32E123048F445
:104B0000F70180819181A281B381898B9A8BAB8BD4
:104B1000BC8B44E0BE016F5E7F4FCE0187960E9442
:104B20008C6C1F5FF4E0EF0EF11C143039F78091AC
:104B30008606909187069E8B8D8BEFA0F8A484E665
:104B400090E098A78FA344E067E073E0CE018796DA
:104B50000E948C6C42E0BE016B5E7F4FCE01879657
:104B60000E948C6C0DE511E1F8018491882329F0F5
:104B70000E9472730F5F1F4FF7CFB7018BE295E072
:104B80000E94A95502E215E0F8018491882309F4F6
:104B9000EFC00E9472730F5F1F4FF6CF0E94915CAF
:104BA000E7C00E94415BE4C083E50E945852982F01
:104BB000882329F00E946B5291E0811190E0892FA7
:104BC0000E94FC57D5C00DE511E1F80184918823BE
:104BD00029F00E9472730F5F1F4FF7CF00E515E0B9
:104BE000F8018491882329F00E9472730F5F1F4F90
:104BF000F7CF80E20E9472738AE50E9458528823A0
:104C000009F44CC00E94B4526B017C0120E030E0FA
:104C100040EA51EC0E94C28887FD19C020E030E0D4
:104C200040EA51E4C701B6010E94C88D18167CF015
:104C3000C0921F02D0922002E0922102F092220242
:104C400042E0C701B6010E9421740C94CB1808E41D
:104C500015E0F8018491882329F00E9472730F5F98
:104C60001F4FF7CF6CEE7FEF8FEF9FEF0E94FE7329
:104C700080E20E94727300E415E0F80184918823B9
:104C800029F00E9472730F5F1F4FF7CF64E170E04D
:104C900080E090E00E94FE730C94CB1840911F02BC
:104CA0005091200260912102709122028DE395E0E3
:104CB0000E9467550C94CB1881E080932B0283E50A
:104CC0000E945852882309F40BC20E946B52811132
:104CD0004FC006C280912807081769F083E50E943B
:104CE0005852182F882341F00E946B5211E0811115
:104CF00003C010E001C011E086E40E9458528823EE
:104D000029F00E94B452AB01BC0103C040E050E066
:104D1000BA01212F802F0E9482672AC080E029C01B
:104D20000E94697E88E50E945852882319F05F9A94
:104D30001092950589E50E945852882319F08A9AA5
:104D4000109296058AE50E945852882351F09FB729
:104D5000F894809108018160809308019FBF1092B0
:104D6000970585E40E945852882311F0129A479AB9
:104D700081E010922A0710922907882311F40C94DD
:104D8000920D0E941873AFC1F8018491882329F015
:104D90000E9472730F5F1F4FF7CF0CE515E0F8010B
:104DA0008491882329F00E9472730F5F1F4FF7CF01
:104DB0000091760510917705D8018D918D0188239A
:104DC00019F00E947273F8CF09E515E0F80184919B
:104DD0008823B9F20E9472730F5F1F4FF7CF0E94B2
:104DE00037760C9474192E964EAD5FAD2E9714162F
:104DF00015060CF039C1E9968CAC9DACAEACBFACDD
:104E0000E997880E991EAA1EBB1EE9962CAD3DADF2
:104E10004EAD5FADE997281B390B4A0B5B0BCA01FE
:104E2000B901A30192010E949491A50194010E94ED
:104E30004C8648AC59AC6AAC7BAC420E531E641E27
:104E4000751E34E143165104610471040CF14CEEFB
:104E500044165104610471043CF450E845165104B1
:104E6000610471041CF105C0BBEE4B2E512C612C6A
:104E7000712C48AE59AE6AAE7BAE8EEF90E0A0E0EA
:104E8000B0E084199509A609B7092C013D0112C0AB
:104E900024E130E040E050E028AF39AF4AAF5BAFEB
:104EA000A4E14A2E512C612C712C04C048AE59AE9D
:104EB0006AAE7BAE48AD59AD6AAD7BAD8CEF94E088
:104EC0000E948355B301A20187EF94E00E948355AD
:104ED00061964FAD619765965FAD659769966FADC9
:104EE00069976D967FAD6D9780EF94E00E9467554E
:104EF000A1964FADA197A5965FADA597A6966FAD6C
:104F0000A697A7967FADA79789EE94E00E94675574
:104F10002E964EAD5FAD2E97433051050CF4A4C0D4
:104F2000C301B2010E94CE8D20E030E040E850E4A1
:104F30000E942D8E6B017C0161962FAD6197659665
:104F40003FAD659769964FAD69976D965FAD6D976B
:104F5000A1966FADA197A5967FADA597A6968FADAB
:104F6000A697A7969FADA7970E9479862BED3FE065
:104F700049E450E40E942D8E20E030E040E05FE301
:104F80000E942D8E9B01AC01C701B6010E9466876D
:104F90006B017C01C501B4010E94CE8D2FE632E188
:104FA00043E85AE30E942D8E4B015C01B701A60134
:104FB00083EE94E00E946755B501A4018DED94E065
:104FC0000E9467552AE939E949E15FE3C701B60163
:104FD0000E942D8E6B017C019B01AC010E947A86A0
:104FE000A50194010E946687AB966CAF7DAF8EAF32
:104FF0009FAFAB97A5019401C701B6010E942D8E0A
:1050000020E030E040E05EE30E942D8EAF966CAF72
:105010007DAF8EAF9FAFAF97FEECAF2EF4E0BF2E0B
:10502000F5018491882331F00E9472735FEFA51A15
:10503000B50AF6CFB701A60188EC94E00E94675547
:10504000AB964CAD5DAD6EAD7FADAB9782EC94E0B1
:105050000E946755AF964CAD5DAD6EAD7FADAF971D
:105060008CEB94E00E94675588AD99ADAAADBBADBD
:10507000840D951DA61DB71DB595A7959795879588
:10508000C158DF4FE881F981CF57D04080832E96F9
:105090002EAD3FAD2E972F5F3F4F2E963FAF2EAFD9
:1050A0002E973CAD61963FAF619721964FAD21970A
:1050B00065964FAF659725965FAD259769965FAF6B
:1050C000699729968FAD29976D968FAF6D978CA4B0
:1050D0009DA4AEA4BFA491E0E1969FAFE197DFC984
:1050E0000E94347345CECC57DF4F0FB6F894DEBF25
:1050F0000FBECDBFDF91CF911F910F91FF90EF9029
:10510000DF90CF90BF90AF909F908F907F906F90E7
:105110005F904F903F902F9008952F923F924F9223
:105120005F926F927F928F929F92AF92BF92CF9237
:10513000DF92EF92FF920F931F93CF93DF93CDB740
:10514000DEB7C25AD1090FB6F894DEBF0FBECDBF8D
:105150000DB71EB7C857DF4F19830883C858D04012
:1051600081E00E94967481110C94333C86E50E9484
:105170005852882339F00E94A752A9969FAF8EAF4C
:10518000A99706C021E030E0A9963FAF2EAFA997BE
:10519000A9964EAD5FADA9974530510568F000E284
:1051A00017E0F8018491882311F40C94333C0E9499
:1051B00072730F5F1F4FF5CF84E40E945852EA9636
:1051C0008FAFEA9785E40E945852A2968FAFA297BC
:1051D000A9960EAD1FADA997033011055CF484E5C7
:1051E0000E945852C057DF4F8883C059D040012BCE
:1051F00011F106C011E0C057DF4F1883C059D040ED
:1052000009E017E0F8018491882329F00E94727365
:105210000F5F1F4FF7CFEA96FFADEA97FF2359F0D4
:1052200000EF16E0F8018491882329F00E94727340
:105230000F5F1F4FF7CF80E50E9458528823A9F0D7
:105240000E94A75267969FAF8EAF679702979CF414
:1052500008EB16E0F8018491882311F40C94333C98
:105260000E9472730F5F1F4FF5CF03E010E0679647
:105270001FAF0EAF679783E50E945852882329F02D
:105280000E94B4520E94D78702C060E177E2709317
:105290003802609337028CE40E945852882319F038
:1052A0000E94B45218C020E030E040E751E4609121
:1052B00058077091590780915A0790915B070E9497
:1052C000798620914C0730914D0740914E075091BF
:1052D0004F070E947A860E94D7877AAF69AF82E52E
:1052E0000E945852882319F00E94B45218C020E03E
:1052F00030E04BE653E46091580770915907809174
:105300005A0790915B070E947A8620914C07309152
:105310004D0740914E0750914F070E947A860E9498
:10532000D7876B0186E40E945852882319F00E94A7
:10533000B45218C020E030E040EA50E460915C07CD
:1053400070915D0780915E0790915F070E9479865A
:1053500020915007309151074091520750915307C7
:105360000E947A860E94D7871B0182E40E945852CD
:10537000882319F00E94B45218C020E030E042E5C2
:1053800053E460915C0770915D0780915E07909196
:105390005F070E947A862091500730915107409113
:1053A0005207509153070E947A860E94D7877B014B
:1053B000409058075090590760905A0770905B07CB
:1053C00080904C0790904D07A0904E07B0904F07EB
:1053D00029AD3AADB901330F880B990B0E94CE8DE0
:1053E00021966CAF7DAF8EAF9FAF219720E030E06C
:1053F00048EE51E4C301B2010E947986A5019401EF
:105400000E947A869B01AC0121966CAD7DAD8EAD7C
:105410009FAD21970E94C88D01E00DAF87FD08C0A8
:10542000C601099729AD3AAD281739070CF41DAE0E
:10543000B6010D2C000C880B990B0E94CE8D6DAB24
:105440007EAB8FAB98AF20E030E847E853E4C30170
:10545000B2010E947A86A50194010E947A869B017E
:10546000AC016DA97EA98FA998AD0E94C28801E008
:1054700018163CF089AD9AAD09968C159D050CF473
:1054800000E040905C0750905D0760905E07709070
:105490005F078090500790905107A0905207B090FE
:1054A0005307B101032C000C880B990B0E94CE8D81
:1054B0006DAB7EAB8FAB98AF20E030E040E051E4C5
:1054C000C301B2010E947986A50194010E947A86E7
:1054D0009B01AC016DA97EA98FA998AD0E94C88DD2
:1054E00011E087FD06C0C7010997281639060CF49C
:1054F00010E0B7010F2C000C880B990B0E94CE8D89
:105500006DAB7EAB8FAB98AF20E030E042E953E467
:10551000C301B2010E947A86A50194010E947A8695
:105520009B01AC016DA97EA98FA998AD0E94C2888C
:10553000BB24B394181634F0C10109968E159F054B
:105540000CF4B12C2DAD21110CC0002329F089EAF7
:1055500096E00E94C04F0BC0111109C0B1100DC0E0
:1055600016C081EB96E00E94C04F0111F0CF1123CD
:1055700021F081EA96E00E94C04FBB2011F40C9408
:10558000333C8AE996E00E94C04F0C94333CEA9683
:105590003FADEA97311176C080E090E0A0E8BFE32C
:1055A00080931A0890931B08A0931C08B0931D08C1
:1055B00010921E0810921F081092200810922108C5
:1055C00010922208109223081092240810922508A5
:1055D0001092260810922708109228081092290885
:1055E00080932A0890932B08A0932C08B0932D0841
:1055F00010922E0810922F08109230081092310845
:105600001092320810923308109234081092350824
:105610001092360810923708109238081092390804
:1056200080933A0890933B08A0933C08B0933D08C0
:10563000CE0101960E949C4189819A81AB81BC81F7
:105640008093740790937507A0937607B0937707BC
:105650008D819E81AF81B88580937807909379077B
:10566000A0937A07B0937B0789859A85AB85BC8523
:1056700080937C0790937D07A0937E07B0937F076C
:105680000E9416550E94697E0E94865781E00E9402
:10569000DA5081110C94333C81E080937805679651
:1056A0004EAD5FAD679741505109AD965FAF4EAFBC
:1056B000AD97C601A9ADBAAD8A1B9B0BBA010E947A
:1056C000398661967FAF6EAF619767960EAD1FAD5D
:1056D0006797009FF001019FF00DF00D1124FEAFC0
:1056E000EDAFEE0FFF1F6996FFAFEEAF6997CF01E9
:1056F0002DAD3EAD820F931FAC01440F551F440FDB
:10570000551FAB965FAF4EAFAB978DB79EB7841B5F
:10571000950B0FB6F8949EBF0FBE8DBFADB7BEB749
:105720001196AF96BFAFAEAFAF9721503109C657B4
:10573000DF4F39832883CA58D040EDADFEADEE0F60
:10574000FF1FEE0FFF1FFEABEDAB0DB71EB70E1B1D
:105750001F0B0FB6F8941EBF0FBE0DBF2DB73EB77F
:105760002F5F3F4FC258DF4F39832883CE57D04039
:105770004DB75EB78DAD9EAD481B590B0FB6F89473
:105780005EBF0FBE4DBFADB7BEB71196CA57DF4F54
:10579000B983A883C658D04066961FAD669711702E
:1057A000C70182199309AD966EAD7FADAD970E948A
:1057B0003986E7967FAF6EAFE7972F963FAE2EAE56
:1057C0002F9727961FAE1EAE2797212C312CCE5730
:1057D000DF4F188219821A821B82C258D0402F963E
:1057E000EEADFFAD2F97BF01FF0F880B990B0E9405
:1057F000CE8D4B015C01111111C0AD96CEACDFAC6A
:10580000AD972FEF3FEF2B963FAF2EAF2B974FEF7C
:105810005FEF65965FAF4EAF659710C067968EAD30
:105820009FAD679765969FAF8EAF6597A1E0B0E09B
:105830002B96BFAFAEAF2B97C12CD12CB1E01B275D
:105840002B962EAD3FAD2B9761964EAD5FAD619718
:10585000249FF001259FF00D349FF00D1124A79691
:10586000FFAFEEAFA797C49EC001C59E900DD49E1A
:10587000900D1124A9ADBAAD8A0F9B1F9C012E1B60
:105880003F0BE3963FAF2EAFE397A101440F551FA7
:10589000440F551F6F965FAF4EAF6F978DAD9EADA6
:1058A000820D931DDC01AA0FBB1FAA0FBB1FE5963B
:1058B000BFAFAEAFE59769968EAD9FAD6997820D8C
:1058C000931DFC01EE0FFF1FEE0FFF1FE196FFAFD0
:1058D000EEAFE19723961FAE1EAE2397A5961FAE9F
:1058E0001EAEA597CA57DF4F28813981C658D040D0
:1058F00027964EAD5FAD2797240F351FE9963FAF32
:105900002EAFE997A5962EAD3FADA597A7964EADC4
:105910005FADA797240F351FA5963FAF2EAFA59774
:1059200065968EAD9FAD6597C816D90609F4ACC0D3
:10593000E3966EAD7FADE397A5968EAD9FADA5972F
:10594000680F791F072E000C880B990B0E94CE8DD3
:105950002B013C01A996EEACFFACA997A2960FAD26
:10596000A297A50194010E940B566D966CAF7DAF76
:105970008EAF9FAF6D979B01AC01CE57DF4F688113
:1059800079818A819B81C258D0400E947A86CE5705
:10599000DF4F688379838A839B83C258D0402396E4
:1059A0008EAD9FAD23976F96AEADBFAD6F978A0F4B
:1059B0009B1FC258DF4FE881F981CE57D040E80FD6
:1059C000F91F6D962CAD3DAD4EAD5FAD6D9720834B
:1059D000318342835383AF96EEADFFADAF97E80FAF
:1059E000F91F40825182628273822396EEADFFAD31
:1059F0002397E5964EAD5FADE597E40FF51FAF96A3
:105A00008EAD9FADAF97E80FF91F80829182A28281
:105A1000B3822396EEADFFAD2397E196AEADBFAD59
:105A2000E197EA0FFB1FE80FF91F20E030E040E8A4
:105A30005FE3208331834283538367964EAD5FAD2E
:105A40006797C49EF001C59EF00DD49EF00D112401
:105A5000E9968EAD9FADE997E80FF91F20829FEF81
:105A6000291A390A0E94176F2B96AEADBFAD2B973E
:105A7000CA0EDB1E2396EEADFFAD23973496239618
:105A8000FFAFEEAF23973ECF2796AEADBFAD2797C2
:105A900011962796BFAFAEAF27972F96EEADFFAD0D
:105AA0002F97E7962EAD3FADE797E20FF31F2F96A6
:105AB000FFAFEEAF2F9767964EAD5FAD6797A41718
:105AC000B5070CF48CCE80E00E94DA5081110C9462
:105AD000333C0E946D578DB79EB7CF56DF4F9983E9
