:100000000C944B0C0C947C0C0C947C0C0C947C0C81
:100010000C947C0C0C947C0C0C947C0C0C947C0C40
:100020000C947C0C0C947C0C0C947C0C0C947C0C30
:100030000C947C0C0C947C0C0C947C0C0C947C0C20
:100040000C947C0C0C946D580C947C0C0C947C0CD3
:100050000C947C0C0C947C0C0C9433520C94B64F86
:100060000C947C0C0C94D9330C947C0C0C947C0C6C
:100070000C947C0C0C947C0C0C947C0C0C947C0CE0
:100080000C947C0C0C947C0C0C947C0C0C947C0CD0
:100090000C947C0C0C947C0C0C947C0C0C947C0CC0
:1000A0000C947C0C0C947C0C0C947C0C0C947C0CB0
:1000B0000C947C0C0C947C0C0C947C0C0C947C0CA0
:1000C0000C947C0C0C947C0C0C947C0C0C947C0C90
:1000D0000C947C0C0C947C0C0C947C0C0C947C0C80
:1000E0000C947C0C22342534143418341E345C34C3
:1000F00029342D34333437343B3441344534493496
:100100005C344F34533457343C35413546355035E3
:100110005A35D33564356C3574357E35883592352E
:10012000A135AB35D335B535BF35C935A952B75231
:10013000D652D952DC52EA52055308530B530E5390
:10014000115314531E53084AD73B3BCE016E84BC57
:10015000BFFDC12F3D6C74319ABD56833DDA3D0021
:10016000C77F11BED9E4BB4C3E916BAAAABE00006A
:1001700000803F05A84CCDB2D44EB93836A9020C48
:1001800050B9918688083CA6AAAA2ABE0000008021
:100190003F00434F4D4D554E49434154494F4E004A
:1001A00044525952554E004552524F525300494EF7
:1001B000464F004543484F005A206E6F7420656ECD
:1001C00074657265642E0A005A206E6F7420656E25
:1001D00074657265642E0A0059206F7574206F660D
:1001E0002072616E67652028312D33292E0A00594F
:1001F000206E6F7420656E74657265642E0A0058F7
:10020000206F7574206F662072616E6765202831DB
:100210002D33292E0A0058206E6F7420656E746588
:100220007265642E0A00473238004D65736820708D
:10023000726F62696E6720646F6E652E0A00537478
:10024000617274206D6573682070726F62696E6789
:100250002077697468202247323920533122206682
:10026000697273742E0A004732380A4732392053B4
:1002700032002020000A4D6561737572656420703C
:100280006F696E74733A0A000A5A206F6666736566
:10029000743A20000A5A20736561726368206865A9
:1002A000696768743A20000A4E756D20582C593AD7
:1002B000200053746174653A20004D6573682062B4
:1002C0006564206C6576656C696E67206E6F74205E
:1002D0006163746976652E0A0053206F7574206F10
:1002E000662072616E67652028302D35292E0A0040
:1002F0002569730025696D202569730025696820CB
:1003000025696D20256973002569642025696820A9
:1003100025696D2025697300256979202569642088
:100320002569682025696D20256973005072696E02
:10033000742074696D653A2000B301AE01A701A075
:100340000192016F66660044454255473A004B49A9
:100350004C4C45442E20004D3131332053006F6BFF
:10036000003F0A0020573A004649524D5741524536
:100370005F4E414D453A4D61726C696E20312E31B0
:100380002E302D5243372028476974687562292022
:10039000534F555243455F434F44455F55524C3A86
:1003A00068747470733A2F2F6769746875622E636E
:1003B0006F6D2F4D61726C696E4669726D776172F7
:1003C000652F4D61726C696E2050524F544F434FF0
:1003D0004C5F56455253494F4E3A312E30204D41D5
:1003E0004348494E455F545950453A5665727361CA
:1003F000334420627920437265617465416C6C20DE
:1004000045585452554445525F434F554E543A3225
:1004100020555549443A36323661376632302D65BB
:100420006534352D313165352D396365392D3565A7
:10043000353531373530376336360A007A5F6D69C6
:100440006E3A2000795F6D696E3A2000785F6D69C1
:100450006E3A20005265706F7274696E6720656E27
:100460006473746F70207374617475730A00206410
:100470003A0020693A0020703A0043290A0061627C
:100480006C656420286D696E2074656D7020004372
:100490006F6C642065787472756465732061726531
:1004A000200023646566696E6520204445464155F9
:1004B0004C545F4B64200023646566696E652020A0
:1004C00044454641554C545F4B69200023646566A2
:1004D000696E65202044454641554C545F4B702061
:1004E00000504944204175746F74756E65206669CB
:1004F0006E69736865642120507574207468652086
:100500006C617374204B702C204B6920616E6420E9
:100510004B6420636F6E7374616E74732066726FC8
:100520006D2062656C6F7720696E746F20436F6E0B
:1005300066696775726174696F6E2E680A0050494A
:1005400044204175746F74756E65206661696C65D1
:1005500064212074696D656F75740A0050494420E8
:100560004175746F74756E65206661696C65642190
:100570002054656D706572617475726520746F6F5B
:1005800020686967680A00204B643A2000204B69A4
:100590003A2000204B703A200020436C617373694D
:1005A0006320504944200A002054753A2000204B13
:1005B000753A2000206D61783A2000206D696E3A0E
:1005C000200020643A200020626961733A20004DC7
:1005D0003432312072657175697265732058595AC9
:1005E000206F7220494A5A20706172616D6574658E
:1005F00072730A004D657368205859206F72204944
:100600004A2063616E6E6F74206265207265736F3D
:100610006C7665640A004D657368205859206F72C6
:1006200020494A2063616E6E6F7420626520726596
:10063000736F6C7665640A00546F6F206661722078
:1006400066726F6D207265666572656E6365207097
:100650006F696E740A00220A00556E6B6E6F776EBA
:1006600020636F6D6D616E643A202200220A00657E
:100670006E7175657565696E672022004E6F204C3E
:10068000696E65204E756D626572207769746820A9
:10069000636865636B73756D2C204C617374204CBB
:1006A000696E653A20004B494C4C45442E20005061
:1006B00072696E7465722073746F70706564206403
:1006C000756520746F206572726F72732E20466993
:1006D0007820746865206572726F7220616E642084
:1006E000757365204D39393920746F2072657374C4
:1006F0006172742E202854656D7065726174757214
:10070000652069732072657365742E2053657420AB
:1007100069742061667465722072657374617274A5
:10072000696E67290A004E6F20436865636B7375B5
:100730006D2077697468206C696E65206E756D62D6
:1007400065722C204C617374204C696E653A2000F0
:10075000636865636B73756D206D69736D61746338
:10076000682C204C617374204C696E653A20004CF3
:10077000696E65204E756D626572206973206E6FBB
:1007800074204C617374204C696E65204E756D62E7
:1007900065722B312C204C617374204C696E653A64
:1007A00020004D3131300020496E76616C69642043
:1007B000657874727564657220000080874300005C
:1007C000924300005C430000E8C1000000C100004B
:1007D000000020400020403A00202F00205400203C
:1007E0002F0020543A00205A3A0020593A00204362
:1007F0006F756E7420583A200020453A00205A3A0E
:100800000020593A00583A0053657474696E6720A5
:1008100054726176656C20416363656C65726174C6
:10082000696F6E3A200053657474696E6720526573
:10083000747261637420416363656C65726174698D
:100840006F6E3A200053657474696E672050726948
:100850006E7420416363656C65726174696F6E3A92
:10086000200053657474696E67205072696E74203D
:10087000616E642054726176656C20416363656CBF
:1008800065726174696F6E3A2000486F74656E64BA
:10089000206F6666736574733A00206669727374BC
:1008A0000A005A0059005800486F6D6520004163E6
:1008B000746976652045787472756465723A2000B3
:1008C0004E6F206D6F7665206F6E20746F6F6C6356
:1008D00068616E67650A0000002100240027002A75
:1008E000002D003000330001010000040107010A5F
:1008F0000100002200250028002B002E00310034CA
:100900000002010000050108010B01000020002386
:1009100000260029002C002F0032000001000003F7
:100920000106010901050505050705080808080273
:100930000202020A0A080804040404010101010178
:100940000101010303030303030303040707070C67
:100950000C0C0C0C0C0C0C0202020206060606061D
:100960000606060B0B0B0B0B0B0B0B0102102020CA
:1009700008081020401020408002010201080402F3
:100980000101020408102040808040201008040269
:1009900001800402018040201008040201080402C2
:1009A00001010204081020408001020408102040C8
:1009B0008000000A0B02090C0D0E08070304010059
:1009C0000000000000000000000000000000000027
:1009D00000000000000000000000000000121110E4
:1009E0000000000000000000000000000000000007
:1009F000000000000000004B494C4C45442E2000F4
:100A0000202D20496E76616C69642065787472755A
:100A1000646572206E756D62657220210A004572F0
:100A2000726F723A002020506C616E6E6572427572
:100A30006666657242797465733A20002046726575
:100A400065204D656D6F72793A20004F63742020E8
:100A50003220323031360A00436F6D70696C656444
:100A60003A200028526963686172642048617264A8
:100A70006D616E290A00207C20417574686F723A9E
:100A80002000323031362D30372D33312031323A9B
:100A9000303000204C61737420557064617465645B
:100AA0003A200020312E312E302D5243370A004D8E
:100AB00061726C696E0020536F6674776172652095
:100AC00052657365740A00205761746368646F67C8
:100AD0002052657365740A002042726F776E206F32
:100AE00075742052657365740A00204578746572C8
:100AF0006E616C2052657365740A00506F77657281
:100B000055700A0073746172740A00205A3A00200A
:100B1000593A0020583A00656E6473746F70732000
:100B20006869743A20006563686F3A0020746F6FDB
:100B3000206C6F6E6720657874727573696F6E20B4
:100B400070726576656E7465640A0020636F6C640C
:100B500020657874727573696F6E20707265766542
:100B60006E7465640A00627573793A2070617573FA
:100B7000656420666F7220696E7075740A00627514
:100B800073793A2070617573656420666F722075A1
:100B90007365720A00627573793A2070726F6365CB
:100BA0007373696E670A004B494C4C45442E200014
:100BB0005072696E7465722068616C7465642E2071
:100BC0006B696C6C28292063616C6C6564210A0078
:100BD0000000E8C100009243000000005761726EFF
:100BE000696E673A20486F6D696E672042756D7057
:100BF0002044697669736F72203C20310A0000003E
:100C0000A0400000A040000000400000964300000B
:100C1000964300005C43FF01FF48617264636F64A8
:100C200065642044656661756C74205365747469ED
:100C30006E6773204C6F616465640A0020204D323A
:100C400030302044300A0020204D323030205431E2
:100C500020440020204D323030204400204469736D
:100C600061626C65640A0046696C616D656E742032
:100C700073657474696E67733A00204400204900FC
:100C800020204D33303120500020440020490020E6
:100C9000500020204D33303120450050494420730E
:100CA000657474696E67733A0A00205A002059000F
:100CB0002020473239205333205800205900205833
:100CC0000020204D3432302053004D65736820627F
:100CD0006564206C6576656C696E673A0A00205A17
:100CE0000020590020204D323036205800486F6DCA
:100CF00065206F666673657420286D6D290A002073
:100D00004500205A00205800204200205400202096
:100D10004D323035205300416476616E6365642046
:100D20007661726961626C65733A20533D4D696EFC
:100D300020666565647261746520286D6D2F732966
:100D40002C20543D4D696E2074726176656C20666E
:100D50006565647261746520286D6D2F73292C2080
:100D6000423D6D696E696D756D207365676D656E69
:100D7000742074696D6520286D73292C20583D6D91
:100D80006178696D756D205859206A65726B2028ED
:100D90006D6D2F73292C20205A3D6D6178696D751A
:100DA0006D205A206A65726B20286D6D2F73292C77
:100DB0002020453D6D6178696D756D2045206A651F
:100DC000726B20286D6D2F73290A00205400205269
:100DD0000020204D323034205000416363656C6543
:100DE000726174696F6E733A20503D7072696E74EF
:100DF000696E672C20523D72657472616374206164
:100E00006E6420543D74726176656C0A0020450062
:100E1000205A0020590020204D3230312058004DFA
:100E20006178696D756D20416363656C657261748D
:100E3000696F6E20286D6D2F7332293A0A002045A4
:100E400000205A0020590020204D32303320580015
:100E50004D6178696D756D20666565647261746554
:100E60007320286D6D2F73293A0A00204500205AFF
:100E70000020590020204D393220580053746570ED
:100E8000732070657220756E69743A0A0020746F61
:100E90006F206C6F6E6720657874727573696F6E02
:100EA0002070726576656E7465640A0020636F6CED
:100EB0006420657874727573696F6E2070726576E0
:100EC000656E7465640A001000AA03F0013A01908F
:100ED00002220130031001D00302017004F7001058
:100EE00005ED00B005E5005006DD00F006D70090E6
:100EF00007D1003008CC00D008C7007009C300102B
:100F00000ABE00B00ABB00500BB700F00BB3009054
:100F10000CB000D00DAA00100FA5005010A000903A
:100F2000119B00D0129600B014900090168B0070A8
:100F3000188500501A8000301C7B00B01E750030F0
:100F4000216F00B02369003026640010285F0090F4
:100F50002A5A00702C5500F02E4F0070314800B016
:100F6000324500F0334100703639001037370050F9
:100F700038330090392D00D03A2700B03C1C005087
:100F80003D1700F03D1100903E0900D03FE5FF62A3
:100F900065640A002C2073797374656D2073746F17
:100FA0007070656421204865617465725F49443AD8
:100FB00020004572723A204D415854454D50004D25
:100FC000415854454D502074726967676572656475
:100FD000004572723A204D494E54454D50004D49DE
:100FE0004E54454D502074726967676572656400A0
:100FF000544845524D414C2052554E41574159009D
:10100000546865726D616C2052756E61776179000C
:1010100048656174696E67206661696C6564004843
:10102000656174696E67206661696C656400486516
:101030006174696E67206661696C6564004865610A
:1010400074696E67206661696C65640024F4D4304D
:1010500050C38E20C2A24017828B7011127A910D5C
:10106000816CD90AA861E108C75866076151430637
:101070001E4B5D05C145A7041A411104093D9803A3
:10108000713931034036DB0265339102D4305402AA
:10109000802E1D02632CEE01752AC501B028A00127
:1010A000102781018F2564012B244B01E02234019C
:1010B000AC211F018D200D01801FFC00841EED005E
:1010C000971DDF00B81CD200E61BC600201BBC0029
:1010D000641AB200B219A8000A19A0006A1899008F
:1010E000D117910040178B00B516840031167E0091
:1010F000B31579003A157300C7146F0058146A00CD
:10110000EE1366008813630025135E00C7125B00B0
:101110006C12570015125400C111510070114F008C
:1011200021114B00D61049008D1047004610440095
:1011300002104200C00F4000800F3E00420F3C00F2
:10114000060F3B00CB0E3800930E37005C0E3500C7
:10115000270E3400F30D3200C10D3100900D300028
:10116000600D2E00320D2D00050D2C00D90C2B002A
:10117000AE0C2900850C29005C0C2700350C2700DB
:101180000E0C2600E80B2400C40B2400A00B230047
:101190007D0B23005A0B2100390B2100180B200076
:1011A000F80A1F00D90A1E00BB0A1E009D0A1D0076
:1011B000800A1D00630A1C00470A1B002C0A1B0042
:1011C000110A1A00F7091A00DD091900C4091900EB
:1011D000AB091900920917007B0918006309170071
:1011E0004C09160036091600200916000A091500D8
:1011F000F5081500E0081400CC081400B808140025
:10120000A4081400900813007D0812006B08130056
:101210005808120046081200340811002308110073
:101220001208110001081100F0071000E00710007B
:10123000D0071000C0071000B0070F00A107100072
:1012400091070E0083070F0074070F0065070E005B
:1012500057070E0049070E003B070D002E070E0032
:1012600020070D0013070D0006070D00F9060C00FE
:10127000ED060D00E0060C00D4060C00C8060C00BC
:10128000BC060C00B0060C00A4060B0099060C006E
:101290008D060B0082060B0077060B006C060B0018
:1012A00061060A0057060B004C060A0042060A00B7
:1012B00038060A002E060A0024060A001A060A004A
:1012C0001006090007060A00FD050900F4050900DB
:1012D000EB050900E2050900D9050900D005090060
:1012E000C7050900BE050900B5050800AD050800E1
:1012F000A50509009C050800940508008C05080058
:10130000840508007C050800740508006C050700CA
:10131000650508005D050700560508004E05070035
:10132000470507004005080038050700310507009C
:101330002A050700230507001C05060016050700FF
:101340000F0507000805060002050700FB0406005C
:10135000F5040700EE040600E8040600E2040700B6
:10136000DB040600D5040600CF040600C90406000D
:10137000C3040600BD040600B7040600B10405005E
:10138000AC040600A6040600A00405009B040600A9
:1013900095040500900406008A04050085040500F4
:1013A000800406007A040500750405007004050039
:1013B0006B04050066040500610405005C0405007B
:1013C00057040500520405004D04050048040500BB
:1013D000430405003E0404003A04050035040500FA
:1013E000300404002C040500270404002304050035
:1013F0001E0404001A04040016040500110404006D
:101400000D040400090405000404040000040400A1
:10141000FC030400F8030400F4030400F0030400D8
:10142000EC030400E8030400E4030400E003040008
:10143000DC030400D8030400D4030400D003040038
:10144000CC030400C8030300C503030024F404D93B
:10145000201BC40C5C0E9804C4095F02650771016F
:10146000F405F900FB04B30048048700C1036900D8
:101470005803550003034500BE023A0084023100C0
:1014800053022A002902250004022000E4011C0066
:10149000C8011900AF01170098011400840113005E
:1014A000710110006101100051010E0043010D0097
:1014B00036010B002B010B0020010B001501090068
:1014C0000C01090003010800FB000800F3000800FC
:1014D000EB000700E4000600DE000600D80006006E
:1014E000D2000600CC000500C7000500C2000500C0
:1014F000BD000400B9000400B5000400B100040000
:10150000AD000400A9000400A5000300A200030030
:101510009F0004009B000300980003009500020058
:1015200093000300900003008D0002008B00030075
:10153000880002008600020084000300810002008F
:101540007F0002007D0002007B00020079000200A3
:1015500077000100760002007400020072000100B2
:10156000710002006F0002006D0001006C000200BB
:101570006A000100690002006700010066000100C6
:1015800065000100640002006200010061000100CA
:10159000600001005F0002005D0001005C000100CE
:1015A0005B0001005A0001005900010058000100D1
:1015B00057000100560001005500010054000100D1
:1015C00053000000530001005200010051000100CF
:1015D000500001004F0001004E0000004E000100CD
:1015E0004D0001004C0001004B0000004B000100C9
:1015F0004A000100490001004800000048000100C5
:1016000047000100460000004600010045000000C0
:1016100045000100440001004300000043000100B8
:1016200042000000420001004100000041000100B2
:10163000400001003F0000003F0001003E000000AC
:101640003E0001003D0000003D0001003C000000A4
:101650003C0000003C0001003B0000003B0001009A
:101660003A0000003A000100390000003900010092
:10167000380000003800000038000100370000008A
:10168000370001003600000036000000360001007F
:101690003500000035000000350001003400000076
:1016A000340000003400010033000000330000006B
:1016B000330001003200000032000000320001005F
:1016C0003100000031000000310001003000000056
:1016D00030000000300001002F0000002F0000004B
:1016E0002F0000002F0001002E0000002E0000003F
:1016F0002E0001002D0000002D0000002D00000034
:101700002D0001002C0000002C0000002C00000027
:101710002C0001002B0000002B0000002B0000001B
:101720002B0001002A0000002A0000002A0000000F
:101730002A00010029000000290000002900000003
:1017400029000000290001002800000028000000F6
:1017500028000000280000002800010027000000E9
:1017600027000000270000002700000027000100DC
:1017700026000000260000002600000026000000D1
:1017800026000100250000002500000025000000C3
:1017900025000000250000002500010024000000B5
:1017A00024000000240000002400000024000100A8
:1017B000230000002300000023000000230000009D
:1017C000230000002300000023000100220000008D
:1017D0002200000022000000220000002200000081
:1017E0002200010021000000210000002100000073
:1017F0002100000021000000210000002100010064
:101800002000000020000000200000002000000058
:101810002000000020000000200000002000010047
:101820001F0000001F0000001F0000001F0000003C
:101830001F0000001F0000001F0001001E0000002C
:101840001E0000001E0000001E00000052657365AF
:101850006E643A20006F6B004E414E494E49545918
:10186000494E46CDCCCC3D0AD7233C17B7D138776B
:10187000CC2B329595E6241FB14F0A000020410081
:1018800000C84200401C4620BCBE4CCA1B0E5AAECB
:10189000C59D7400786A11241FBECFEFD1E2DEBF70
:1018A000CDBF00E00CBF13E0A0E0B2E0EEEBFCEE39
:1018B00000E00BBF02C007900D92AA3AB107D9F71A
:1018C0002DE0AAEAB3E001C01D92AA34B207E1F705
:1018D0001CE0CBE4DCE000E006C021970109802F8A
:1018E000FE010E94006BCA34D10780E00807A9F707
:1018F0000E9496660C945D760C9400002F923F92A5
:101900004F925F926F927F928F929F92AF92BF920F
:10191000CF92DF92EF92FF920F931F93CF93DF93BB
:10192000CDB7DEB7CE56D1090FB6F894DEBF0FBEE5
:10193000CDBF0091FC0520E6029F800111240654D2
:101940001C4F109347050093460580915E0680FF6B
:1019500019C0A6E2EA2EABE0FA2EF70184918823A3
:1019600031F00E942F5F3FEFE31AF30AF6CFD80160
:101970008D918D01882319F00E942F5FF8CF8AE0A6
:101980000E942F5F2091460530914705F901808123
:101990002F5F3F4F8032D1F3F0934705E093460528
:1019A0008E3469F010914605009147056AE270E0B7
:1019B000812F902F0E94086E0097D1F420C0818162
:1019C00090ED980F9A3010F08D3261F73296DF016A
:1019D00031962C9120532A30D0F3CD01FC01019691
:1019E00020812032D9F3F0934705E0934605DACF02
:1019F000FC0131968291803231F08A3221F0A12FA0
:101A0000B02F9D9102C01082F5CFFD01808111960B
:101A10008032D9F380538A3020F006E21BE00C9428
:101A2000C42600E010E04AE0409F9001419F300D45
:101A300011248901005311098191080F111D87FD9F
:101A40001A95808180538A3078F3DF0131968C912A
:101A50008032D9F3B093B903A093B80321E030E00A
:101A6000309300062093FF059D3411F40C94D91790
:101A7000943511F40C947326973411F00C9492263B
:101A80000430110509F41BC438F480914C02023073
:101A9000110508F063C01CC00A35110511F40C943F
:101AA000251750F40C31110509F446C40D31110508
:101AB00009F4EBC60C94B8260B35110511F40C94FF
:101AC00029170C35110511F40C942E170C94B82617
:101AD000882309F43FC00E941C2C20E030E040E83D
:101AE0005FE36091D7057091D8058091D9059091F9
:101AF000DA050E945D7281112DC080E090E0AAEFAE
:101B0000B4E480933A0590933B05A0933C05B093D1
:101B10003D058093000290930102A0930202B093CE
:101B200003028AE50E94FA2A8823A1F080E090E06F
:101B3000A0E7B3E480933A0590933B05A0933C055E
:101B4000B0933D058093000290930102A09302029E
:101B5000B09303020E941F3F0C94B826882311F40F
:101B60000C94B82620E030E040E85FE36091D705B0
:101B70007091D8058091D9059091DA050E945D7227
:101B8000811118C020E030E04AEF54E46091000277
:101B90007091010280910202909103020E945D7295
:101BA000811108C010923A0510923B0510923C0535
:101BB00010923D050E941C2C89E40E94FA2A882379
:101BC00029F00E94612B6B017C0103C0C12CD12C38
:101BD00076018AE40E94FA2A882339F00E94612B58
:101BE0006A8F7B8F8C8F9D8F04C01A8E1B8E1C8EEC
:101BF0001D8EA7019601C701B6010E94C2724B015A
:101C00005C012A8D3B8D4C8D5D8DCA01B9010E940E
:101C1000C2729B01AC01C501B4010E941D6B0E9400
:101C2000AE6D2A966CAF7DAF8EAF9FAF2A97209195
:101C3000280C3091290C40912A0C50912B0C2AA38E
:101C40003BA34CA35DA3A70196016AA17BA18CA134
:101C50009DA10E941D6B6EA77FA788AB99AB809159
:101C60002C0C90912D0CA0912E0CB0912F0C8AA7CA
:101C70009BA7ACA7BDA72A8D3B8D4C8D5D8DBC016C
:101C8000CD010E941D6B6AAB7BAB8CAB9DAB2091F1
:101C9000300C3091310C4091320C5091330C2EAB02
:101CA0003FAB48AF59AF6091150670911606809111
:101CB0001706909118060E941C6B6EA37FA388A73D
:101CC00099A78091190690911A06A0911B06B091D0
:101CD0001C062E968CAF9DAFAEAFBFAF2E97209156
:101CE000340C3091350C4091360C5091370C2AAFA2
:101CF0003BAF4CAF5DAFD701C601B0588E8B9F8B09
:101D0000A88FB98F2A8D3B8D4C8D5D8D50582E8FAD
:101D10003F8F48A359A3C0900D06D0900E06E090C7
:101D20000F06F09010062296CCAEDDAEEEAEFFAE02
:101D300022972EA53FA548A959A9C701B6010E941F
:101D40001C6B6B017C0120911106309112064091B1
:101D500013065091140626962CAF3DAF4EAF5FAFE1
:101D600026972AA93BA94CA95DA926966CAD7DAD05
:101D70008EAD9FAD26970E941C6B4B015C01A701A5
:101D800096016E897F89888D998D0E94C2722B0180
:101D90003C01A50194016E8D7F8D88A199A10E94BF
:101DA000C2729B01AC01C301B2010E941D6B2B01E9
:101DB0003C01A50194016E897F89888D998D0E94CF
:101DC000C2724B015C01A70196016E8D7F8D88A1C7
:101DD00099A10E94C2729B01AC01C501B4010E948D
:101DE0001C6BA30192010E949B6B6B017C0120E0A4
:101DF00030E0A9010E945D7287FF0AC02BED3FE031
:101E000049EC50E4C701B6010E941D6B6B017C01D7
:101E10000230110551F42BED3FE049EC50E4C701CD
:101E2000B6010E941C6B6B017C0120E030E0A9012F
:101E3000C701B6010E945D72811126C022962CADA9
:101E40003DAD4EAD5FAD22976AA17BA18CA19DA156
:101E50000E945D72811118C026962CAD3DAD4EAD2D
:101E60005FAD26976AA57BA58CA59DA50E945D7296
:101E700081110AC02BED3FE049EC50E4C701B601E7
:101E80000E941D6B6B017C012A962CAD3DAD4EADC1
:101E90005FAD2A97C701B6010E94C2729B01AC01D7
:101EA0000E94C2724B015C012EA13FA148A559A519
:101EB000CA01B9010E94C2729B01AC01C501B40103
:101EC0000E941D6B0E94AE6D4B015C012FE632E15A
:101ED00043E85AE30E945D7287FDEDC1C501B4017C
:101EE0000E94AF6C0E94806C1B01672B19F42224A6
:101EF0002394312CB10180E090E00E9461724B018B
:101F00005C019B01AC01C701B6010E94096C6AA388
:101F10007BA38CA39DA3A50194016EA17FA188A59D
:101F200099A50E94096C26966CAF7DAF8EAF9FAFCE
:101F300026972AAD3BAD4CAD5DAD2E966CAD7DAD1B
:101F40008EAD9FAD2E970E941C6BA50194010E943F
:101F5000096C2A966CAF7DAF8EAF9FAF2A972AA1EE
:101F60003BA14CA15DA1CA01B9010E94C27220E04F
:101F700030E040E05FE30E94C2729B01AC0160E090
:101F800070E080E89FE30E941C6B22966CAF7DAFEF
:101F90008EAF9FAF2297CEA8DFA8E8ACF9ACC98678
:101FA000DA86EB86FC86CAACDBACECACFDACCD864D
:101FB000DE86EF86F88A20E030E040E752E4609168
:101FC0001F027091200280912102909122020E94B2
:101FD000096C6B017C0180911D0290911E02BC0175
:101FE000990F880B990B0E9463729B01AC01C7018A
:101FF000B6010E94C2722AE037ED43E25CE30E9420
:10200000C2726EAB7FAB88AF99AF0E94AA4F9B01A3
:10201000AC0128533F4F4F4F5F4F2AAF3BAF4CAF00
:102020005DAF4E885F88688C798C1EA241E050E0DD
:102030005BA74AA7CAA4DBA4C214D30409F413C142
:102040008091890681110E94B9540E94AA4F8B0188
:102050009C01CAACDBACECACFDAC0C191D092E0923
:102060003F0937FD0CC09B01AC0128533F4F4F4F38
:102070005F4F2AAF3BAF4CAF5DAF0E94DE3C3EA14D
:102080003F5F3EA339310CF041C022962CAD3DADEF
:102090004EAD5FAD22976E8D7F8D88A199A10E9474
:1020A000C2726B017C012AA13BA14CA15DA1B201CE
:1020B000C3010E94C272A70196010E941D6B7B01A1
:1020C0008C0122962CAD3DAD4EAD5FAD2297B20195
:1020D000C3010E94C2724B015C012AA13BA14CA129
:1020E0005DA16E8D7F8D88A199A10E94C2729B0116
:1020F000AC01C501B4010E941C6B2B013C01A7017E
:10210000B8014E8F5F8F68A379A350C04AA55BA525
:10211000BA0180E090E00E9461722AA13BA14CA12B
:102120005DA10E94C2724B015C010E94066C6B01B2
:102130007C01C501B4010E94A36D4B015C01A701A4
:1021400096016E897F89888D998D0E94C2722B01BC
:102150003C01A50194016A8D7B8D8C8D9D8D0E9423
:10216000C2729B01AC01C301B2010E941D6B2B0125
:102170003C01A50194016E897F89888D998D0E940B
:10218000C2724B015C01A70196016A8D7B8D8C8D1B
:102190009D8D0E94C2729B01AC01C501B4010E94D9
:1021A0001C6B6E8F7F8F88A399A31EA29201A3013F
:1021B0006EA57FA588A999A90E941D6B69837A8362
:1021C0008B839C832E8D3F8D48A159A16AA97BA941
:1021D0008CA99DA90E941D6B6D837E838F83988738
:1021E00026962CAD3DAD4EAD5FAD269769857A85BF
:1021F0008B859C850E941D6B69877A878B879C875E
:102200002A962CAD3DAD4EAD5FAD2A976D857E858E
:102210008F8598890E941D6B6D877E878F87988B2D
:10222000CE0101960E940766E984FA840B851C851D
:102230002D813E814F81588569817A818B819C8176
:10224000E091FE05EF938EA89FA8A8ACB9ACDE0183
:102250001D966D010E946543EAA5FBA53196FBA77B
:10226000EAA70F90E7CEE0901506F09016060091D1
:102270001706109118062091110630911206409110
:1022800013065091140660910D0670910E06809110
:102290000F0690911006E091FE05EF938EA89FA87F
:1022A000A8ACB9ACE9E1CE2EE6E0DE2E0E94654393
:1022B0000E94A2290F900E94CE330C94B82680E58C
:1022C0000E94FA2A882329F00E94562B6B017C0178
:1022D00003C0C12CD12C760183E50E94FA2A882301
:1022E00061F00E94612B20E030E04AE754E40E9454
:1022F000C2720E94806C6B017C010E9463580E9434
:10230000CE338091020690910306A0910406B0910D
:102310000506C80ED91EEA1EFB1E0E94AA4FDC014C
:10232000CB018C199D09AE09BF09B7FD02C00C9401
:10233000B8260E94DE3CF1CF0E9463586090FE05F3
:1023400021E040E050E0BA0180E00E94342D10917D
:10235000090D11FF70C080910A06882309F459C045
:1023600080910B06882309F454C080910C068823C1
:1023700009F44FC0C090300CD090310CE090320C7A
:10238000F090330C2091580C3091590C40915A0C1C
:1023900050915B0C60912C0C70912D0C80912E0C47
:1023A00090912F0C0E941C6B20914C0C30914D0C85
:1023B00040914E0C50914F0C0E941C6B4B015C01E4
:1023C0002091540C3091550C4091560C5091570C63
:1023D0006091280C7091290C80912A0C90912B0C03
:1023E0000E941C6B2091480C3091490C40914A0C82
:1023F00050914B0C0E941C6BA50194010E946C60D3
:102400009B01AC01C701B6010E941D6B6B017C01F1
:1024100006C0C12CD12C60E8E62E60E4F62E1D7FAC
:102420001093090DC092300CD092310CE092320C16
:10243000F092330C06C0C12CD12C50E8E52E50E4AC
:10244000F52E80911F0290912002A0912102B0915F
:1024500022028093400590934105A0934205B093DA
:10246000430580911D0290911E0290933F05809339
:102470003E0584E690E090931E0280931D020E9428
:10248000CE33BB24B394B0921C0288E50E94FA2A92
:10249000082F89E50E94FA2A182F8AE50E94FA2A55
:1024A000782E011104C0111104C0B82605C0111105
:1024B00002C0B12C01C0B82EB09204020E9498292B
:1024C000B11005C0011103C0112309F4CBC020E0F5
:1024D00030E040EA50E460915C0C70915D0C8091BA
:1024E0005E0C90915F0C0E941D6B2091500C3091FE
:1024F000510C4091520C5091530C0E941D6B4B019A
:102500005C016093150670931606809317069093EE
:1025100018062090300C3090310C4090320C5090C6
:10252000330CA20191010E94656D18160CF09AC03F
:1025300020912C0C30912D0C40912E0C50912F0C91
:102540002E8B3F8B488F598F8091280C9091290CAE
:10255000A0912A0CB0912B0C8A8F9B8FAC8FBD8FD2
:1025600020911F02309120024091210250912202BD
:102570002E8F3F8F48A359A3A5019401C201B10139
:102580000E945D7287FF16C080E090E0A0E7B3E490
:1025900080931F0290932002A0932102B093220205
:1025A0008092300C9092310CA092320CB092330C8D
:1025B0000E946C2A80E090E0AAEFB5E480931F02AD
:1025C00090932002A0932102B09322028A8D9B8DCA
:1025D000AC8DBD8D8093280C9093290CA0932A0C70
:1025E000B0932B0C2E893F89488D598D20932C0C4C
:1025F00030932D0C40932E0C50932F0C0E946C2A7C
:10260000A50194016091300C7091310C8091320CD5
:102610009091330C0E94656D1816B4F480E090E040
:10262000A0E7B3E480931F0290932002A0932102BD
:10263000B09322028092300C9092310CA092320C16
:10264000B092330C0E946C2A0E9463588E8D9F8D2D
:10265000A8A1B9A180931F0290932002A093210208
:10266000B093220280910402811102C0002321F064
:1026700080E090E00E94BB3980910402811102C089
:10268000772021F082E090E00E94BB390E941B2D50
:1026900080911D0680931C021092FB058091090D0C
:1026A00080FFCEC08091040281110DC080910A0686
:1026B000882309F4C5C080910B06882309F4C0C0A3
:1026C000772009F458C080E090E0A0E8B0E480935F
:1026D000300C9093310CA093320CB093330C0E94C9
:1026E0001B2D8091090D82608093090D2091580C5B
:1026F0003091590C40915A0C50915B0C60912C0C0C
:1027000070912D0C80912E0C90912F0C0E941C6BBF
:1027100020914C0C30914D0C40914E0C50914F0C2F
:102720000E941C6B6B017C012091540C3091550C64
:102730004091560C5091570C6091280C7091290CC7
:1027400080912A0C90912B0C0E941C6B2091480CBC
:102750003091490C40914A0C50914B0C0E941C6BDB
:10276000A70196010E946C609B01AC0160E070E0E3
:1027700080E890E45BC080910C06882309F460C077
:10278000011103C0112309F45BC0C092300CD09238
:10279000310CE092320CF092330C0E941B2D809190
:1027A000090D82608093090D2091580C3091590CCD
:1027B00040915A0C50915B0C60912C0C70912D0C37
:1027C00080912E0C90912F0C0E941C6B20914C0C30
:1027D00030914D0C40914E0C50914F0C0E941C6B4F
:1027E0004B015C012091540C3091550C4091560CDA
:1027F0005091570C6091280C7091290C80912A0CF3
:1028000090912B0C0E941C6B2091480C3091490C2C
:1028100040914A0C50914B0C0E941C6BA5019401F5
:102820000E946C609B01AC01C701B6010E941C6B49
:102830006093300C7093310C8093320C9093330C76
:102840008091400590914105A0914205B0914305CA
:1028500080931F0290932002A0932102B093220242
:1028600080913E0590913F0590931E0280931D023A
:102870000E94CE3321E040E050E0BA01862D0E9454
:10288000342D0E94E0280C94B82683E50E94FA2A91
:10289000882399F00E940D2B90E08630910578F006
:1028A00009ED12E0F8018491882311F40C94B82604
:1028B0000E942F5F0F5F1F4FF5CF80E090E08330C5
:1028C000910509F4C9C144F48130910509F486C029
:1028D000029709F48CC007C08430910509F431C215
:1028E000059709F44BC28091090D80FF6BC061E030
:1028F00070E082EB92E00E945E3263E070E087EA73
:1029000092E00E945E328CE20E942F5F63E070E0F2
:1029100080E090E00E94BB5F64E070E084E992E0B8
:102920000E945E3208E812E0F8018491882329F0C1
:102930000E942F5F0F5F1F4FF7CF60910A0D7091BC
:102940000B0D80910C0D90910D0D45E00E94DE5F06
:1029500005E712E0F8018491882329F00E942F5F97
:102960000F5F1F4FF7CF39E0C32E3DE0D32E43E07A
:10297000F42E00E010E022E7A22E22E0B22EF501B4
:102980008491882331F00E942F5FFFEFAF1ABF0AB6
:10299000F6CFF601E00FF11F658176818781908582
:1029A00045E00E94DE5F0C5F1F4F0C30110519F7E8
:1029B0008AE00E942F5FFA94FCE0CF0ED11CF11048
:1029C000D8CF3FC20AEB12E0F8018491882309F4C2
:1029D00038C20E942F5F0F5F1F4FF6CF0E94076320
:1029E000109206021092050287E692E02EC1009135
:1029F00005021091060217FF0DC00EE312E0F80168
:102A00008491882311F40C94B8260E942F5F0F5FE5
:102A10001F4FF5CF0115110579F480E090E0A0E893
:102A2000B0E48093300C9093310CA093320CB093AF
:102A3000330C0E941B2D2CC0C090300CD090310C58
:102A4000E090320CF090330C8FEF800F63E00E9427
:102A5000AF6A80FF03C022E0291B922F282F880F26
:102A6000330BF901EE0FFF1FE20FF31FE90FF11D0A
:102A700097FDFA95EE0FFF1FEE0FFF1FE75FF24F76
:102A8000C582D682E782F086093011050CF0B5C008
:102A9000802F63E00E94AF6AB82E192F80FF03C019
:102AA00082E0891B182FC0901F02D0902002E09076
:102AB0002102F090220280E090E8ABE3B5E480933D
:102AC0001F0290932002A0932102B093220280E083
:102AD00090E0A0E1B1E48093300C9093310CA0938E
:102AE000320CB093330C0E946C2A0CE81003B00136
:102AF000112463517109072E000C880B990B0E9459
:102B000063722091540C3091550C4091560C5091A9
:102B1000570C0E941D6B2091480C3091490C40913C
:102B20004A0C50914B0C0E941D6B6093280C7093C3
:102B3000290C80932A0C90932B0C2B2D2003B00191
:102B400011246E5F7F4F072E000C880B990B0E949B
:102B500063722091580C3091590C40915A0C50914D
:102B60005B0C0E941D6B20914C0C30914D0C4091E0
:102B70004E0C50914F0C0E941D6B60932C0C709367
:102B80002D0C80932E0C90932F0C0E946C2A20E029
:102B900030E040E850E460915C0C70915D0C8091F5
:102BA0005E0C90915F0C0E941D6B2091500C309137
:102BB000510C4091520C5091530C0E941D6B60932C
:102BC000300C7093310C8093320C9093330C0E9434
:102BD0006C2AC0921F02D0922002E0922102F09251
:102BE00022020E946358809105029091060201968C
:102BF000909306028093050224C180E090E0A0E15A
:102C0000B1E48093300C9093310CA093320CB093CC
:102C1000330C0E946C2A0E9463580AE212E0F80109
:102C20008491882329F00E942F5F0F5F1F4FF7CFF9
:102C30008FEF9FEF90930602809305028091090D1C
:102C400081608093090D86E292E09093AB038093BC
:102C5000AA030E94852CF5C088E50E94FA2A8823E1
:102C600099F00E94492B0FEF080F0330D0F00FEFBF
:102C700011E0F8018491882311F40C94B8260E9485
:102C80002F5F0F5F1F4FF5CF06E112E0F80184912F
:102C9000882311F40C94B8260E942F5F0F5F1F4FFA
:102CA000F5CF89E50E94FA2A882399F00E94492BE2
:102CB0001FEF180F1330D0F008ED11E0F8018491E8
:102CC000882311F40C94B8260E942F5F0F5F1F4FCA
:102CD000F5CF0FEE11E0F8018491882311F40C94E4
:102CE000B8260E942F5F0F5F1F4FF5CF8AE50E9425
:102CF000FA2A8823C9F00E94612B212F110F330B70
:102D0000F901EE0FFF1FE20FF31FE00FF11D07FDAA
:102D1000FA95EE0FFF1FEE0FFF1FE75FF24F65837F
:102D20007683878390878DC008EC11E0F801849149
:102D3000882311F40C94B8260E942F5F0F5F1F4F59
:102D4000F5CF8AE50E94FA2A882359F00E94612B68
:102D500060930A0D70930B0D80930C0D90930D0DE5
:102D600070C008EB11E0F8018491882311F40C94F1
:102D7000B8260E942F5F0F5F1F4FF5CF8091090D7E
:102D800081FF5DC02091580C3091590C40915A0C34
:102D900050915B0C60912C0C70912D0C80912E0C3D
:102DA00090912F0C0E941C6B20914C0C30914D0C7B
:102DB00040914E0C50914F0C0E941C6B6B017C019A
:102DC0002091540C3091550C4091560C5091570C59
:102DD0006091280C7091290C80912A0C90912B0CF9
:102DE0000E941C6B2091480C3091490C40914A0C78
:102DF00050914B0C0E941C6BA70196010E946C60C5
:102E000020E030E040E850E40E941C6B9B01AC01E4
:102E10006091300C7091310C8091320C9091330C98
:102E20000E941D6B6093300C7093310C8093320CB8
:102E30009093330C0E9407630E941B2D02C00E94D6
:102E400007630E94E0280C94B8261092B7030C94F4
:102E5000B82681E08093B7030C94B92685E40E94DC
:102E6000FA2AB82E811102C00E9463584FE6842EC0
:102E700042E0942E58E2C52E5CE0D52E68E4E62EA2
:102E80006CE0F62E00E010E0A12CD4018D914D01F4
:102E90000E94FA2A8823F1F1F601208131814281D2
:102EA0005381AC962FAFAC97AD963FAFAD97AE9632
:102EB0004FAFAE97AF965FAFAF970E94612BD60131
:102EC0006D937D938D939C931397AC962FADAC9798
:102ED000AD963FADAD97AE964FADAE97AF965FADA9
:102EE000AF9703301105B1F00E941C6B9B01AC0140
:102EF000F70160817181828193810E941D6BD701EE
:102F00006D937D938D939C931397C8010E94AF2A74
:102F1000AA24A3940F5F1F4FB4E0CB0ED11CE4E0B2
:102F2000EE0EF11C0430110509F0AFCFAA2021F0FC
:102F30000E941B2D0C94B826BB2011F40C94B826CB
:102F40002091440C3091450C4091460C5091470C17
:102F50006091340C7091350C8091360C9091370C47
:102F60000E94C2720E94706D6093030D7093040DF5
:102F70008093050D9093060D8FB7F8944091030D43
:102F80005091040D6091050D7091060D4093240C35
:102F90005093250C6093260C7093270C8FBF1092D2
:102FA000F30C1092F40C1092F50C1092F60C0C9499
:102FB000B8260137110509F447C408F0A0C0003550
:102FC000110509F473C608F052C00F31110509F458
:102FD00094C158F50A30110509F47BC198F4033007
:102FE000110509F431C10530110511F00C94B82612
:102FF00061E08BE00E94AA3461E085E00E94AA347F
:103000000C94B8260131110509F469C1023111058A
:1030100009F459C60B30110511F00C94B82660E084
:103020008AE30E94AA340C94B8260E33110509F4E1
:1030300001C360F40C33110509F4B2C208F0D3C225
:103040000A32110509F46AC20C94B8260C34110531
:1030500009F41BC30D34110509F431C30B341105F8
:1030600011F00C94B8260E9416630C94B826093609
:10307000110509F42DC468F50435110509F423C6BA
:10308000D0F40235110509F415C608F017C60E94E0
:10309000A3510E9463580E94A43C10925D061092B6
:1030A0005C0668EE73E080E090E00E94DC35269AD2
:1030B0002E9A0C94B8260C35110509F456C608361C
:1030C000110509F400C30535110511F00C94B8265B
:1030D00031C60D36110509F417C450F40B3611052D
:1030E00009F4D2C508F4ADC5109213020C94B826A9
:1030F0000F36110509F43AC308F41CC39DC30D3DF6
:10310000110509F4B2C708F047C0083C110509F4DD
:103110002EC7E8F40737110509F4C7C660F4023773
:10312000110509F4B4C60337110511F00C94B82643
:1031300008E613E0A2C60937110509F4B1C608F480
:10314000A9C60C38110509F4AAC30C94B8260D3C85
:10315000110509F477C778F40B3C110509F46CC725
:1031600008F06DC7093C110511F00C94B8260E94B7
:10317000F92B0C94B8260A3D110509F466C70C3DDD
:10318000110509F465C70E3C110511F00C94B82621
:103190000E9432310C94B8260A39F1E01F0709F475
:1031A0004FC340F50D3231E0130709F4C7C780F46F
:1031B000053F110511F40C945721063F110511F438
:1031C0000C945D21023E110511F00C94B82666C7DF
:1031D0000F3251E0150711F40C94CE2110F40C9429
:1031E00063210039114011F00C94B8260E946358F5
:1031F0000C94B826053FA1E01A0711F40C9451264F
:1032000098F4053AE1E01E0711F40C94AE240C3A50
:10321000F1E01F0711F40C948F25043A114011F0CE
:103220000C94B8260C948524073F31E0130711F461
:103230000C945A2610F40C945726073E134011F4B0
:103240000C9467260C94B82660E08BE00E94AA34A8
:1032500060E085E00E94AA3483E50E94FA2A882370
:1032600059F10E94612B20E030E0A9010E945D72BB
:1032700087FD10C00E94612B20E030E44CE156E451
:103280000E94656D18164CF00E94612B0E947A6CAA
:10329000CB0105C080E090E002C080E197E290930E
:1032A0004505809344056EE270E00E94D06A8CE28E
:1032B0000E9415350C94B82688E893E19093450553
:1032C000809344056CE670E08CE20E9415350C9406
:1032D000B82661E08AE30E94AA340C94B8265F986D
:1032E0008A989FB7F894809108018E7F8093080197
:1032F0009FBF129847980C94B8268091320D9091F8
:10330000330D019719F40E94AA4F08C060913C0D3B
:1033100070913D0D80913E0D90913F0D0091380DC3
:103320001091390D20913A0D30913B0D601B710BBE
:10333000820B930B28EE33E040E050E00E942276AF
:103340008091340D9091350DA091360DB091370DCF
:10335000BC01CD01620F731F841F951F3CE3C32E78
:10336000D12CE12CF12CA70196010E942276762E19
:10337000672ECA01B901A70196010E9422766B014E
:103380007C01CA01B90128E130E040E050E00E9430
:1033900022764B015C01C9016DE671E00E94BC6AB6
:1033A0008E010F5F1F4F6115710599F06F927F922B
:1033B000DF92CF929F928F929F938F937F936F9381
:1033C00088E193E09F938F931F930F930E942E7237
:1033D00026C0009789F06F927F92DF92CF929F92E2
:1033E0008F929F938F9388E093E09F938F931F9387
:1033F0000F930E942E7213C081149104A104B10492
:10340000C1F06F927F92DF92CF929F928F928CEF5A
:1034100092E09F938F931F930F930E942E720FB68B
:10342000F894DEBF0FBECDBF26E2E22E2BE0F22ED7
:1034300023C0C114D104E104F10469F06F927F92BA
:10344000DF92CF9284EF92E09F938F931F930F931D
:103450000E942E72E4CF6F927F9280EF92E09F9352
:103460008F931F930F930E942E720F900F900F90C7
:103470000F900F900F90D8CFF7018491882331F0EF
:103480000E942F5F3FEFE31AF30AF6CF9CE2E92E8A
:1034900093E0F92EF7018491882331F00E942F5F89
:1034A000FFEFEF1AFF0AF6CFD8018D918D01882327
:1034B00019F00E942F5FF8CF8AE00E942F5F809161
:1034C0000106882311F40C94B82610920106F0909E
:1034D000FE050F2D10E0000F111F0756194FF801C0
:1034E00060817181072E000C880B990B0E9463721A
:1034F00020912C0230912D0240912E0250912F02EA
:103500000E94656D181614F00C94B826D8011D920F
:103510001C928F2D0E9447510C94B82683E50E947F
:10352000FA2A882311F40C94B8260E94492B7C01B6
:103530008F3F910519F010F00C94B82680E50E9499
:10354000FA2A882339F00E94492B8C0197FF04C086
:103550000C94B8260DE010E0E3E7F2E08191919140
:103560000817190711F40C94B82622E0E33DF2077E
:10357000A9F761E0802F0E94D9346E2D802F0E9420
:10358000AA34B701802F0E9415350430110511F0BF
:103590000C94B826F0925D06E0925C060C94B82676
:1035A00080E090E0A0E8BFE38093D7059093D80532
:1035B000A093D905B093DA0560E08FE30E94AA34A6
:1035C00061E086E00E94AA3461E084E00E94AA34AF
:1035D00060E08AE30E94AA346FEF70E089E30E9402
:1035E00015350C94B8261092D7051092D805109274
:1035F000D9051092DA0560E08FE30E94AA3461E0F9
:1036000086E00E94AA3461E084E00E94AA3461E06E
:103610008BE00E94AA3461E085E00E94AA3460E059
:103620008AE30E94AA346FEF70E089E30E941535A7
:103630000C94B82680E090E0A0E8BFE38093D70523
:103640009093D805A093D905B093DA0561E08FE394
:103650000E94AA3460E086E00E94AA3460E084E020
:103660000E94AA3461E08BE00E94AA3461E085E008
:103670000E94AA3460E08AE30E94AA3460E070E00D
:1036800089E30E9415350C94B8268091320D9091F3
:10369000330D019711F00C94B82682E090E09093DE
:1036A000330D8093320D0E94AA4F60933C0D7093AE
:1036B0003D0D80933E0D90933F0D0C94B8260E94D3
:1036C00053600C94B82688E690E00E94263381115E
:1036D0000C94B82680915E0683FF02C00C94B82635
:1036E00083E50E94FA2A882311F40C94B826F090FE
:1036F000B0030E94612B2F2D30E0220F331F890170
:103700000756194F0E947A6CD8016D937C938F2DC8
:103710000E9447510E94612B20E030E04AEA52E4C7
:103720000E945D72181614F00E9453600E94612B73
:103730000C94B8268EE40E94FA2A882311F40C9483
:10374000B8268091B1039091B2034AE050E060E066
:1037500070E001960E94896F6093AC037093AD0393
:103760008093AE039093AF030C94B82683E50E9438
:10377000FA2A882319F00E940D2B01C080E0809363
:103780005E0606E21BE0F8018491882329F00E947E
:103790002F5F0F5F1F4FF7CF07E413E0F80184910D
:1037A000882329F00E942F5F0F5F1F4FF7CF809172
:1037B0005E06882389F1A9E3EA2EA3E0FA2E00E051
:1037C00010E020E080915E0690E0002E02C095950A
:1037D00087950A94E2F780FF16C0BB24B394B20E1B
:1037E000222319F08CE20E942F5FF701C590D4903C
:1037F000F6018491882331F00E942F5FFFEFCF1AEA
:10380000DF0AF6CF2B2D0F5F1F4FF2E0EF0EF11CFA
:1038100005301105B9F60BC003E413E0F8018491FB
:10382000882329F00E942F5F0F5F1F4FF7CF8AE098
:103830000E942F5F0C94B8268EE493E00E94B63C61
:103840000E94802F0C94B82683E50E94FA2A8823D0
:1038500069F00E940D2B809323028D3310F40C9499
:10386000B8268CE3809323020C94B82606E21BE072
:10387000F8018491882329F00E942F5F0F5F1F4F6A
:10388000F7CF4091230250E060E070E087E593E0DD
:103890000E9487318AE00E942F5F0C94B8268091A5
:1038A0005E0683FF02C00C94B82683E50E94FA2AC4
:1038B000882311F40C94B8260E94612B0E947A6C24
:1038C00070938806609387060E94F8500C94B8267F
:1038D00089E690E00E942633811110C00EE513E0C6
:1038E000F8018491882329F00E942F5F0F5F1F4FFA
:1038F000F7CF0E9476328AE00E942F5F1092000676
:103900001092FF050C9464288DE690E00E94263307
:1039100081110C94B82680915E0683FF02C00C943E
:10392000B82683E50E94FA2A8E8F811105C082E5B0
:103930000E94FA2A882309F1F090B0030E94612BBB
:103940002F2D30E0220F331F89010756194F0E9497
:103950007A6CD8016D937C938F2D0E9447510E9401
:10396000612B20E030E04AEA52E40E945D721816B2
:1039700014F40C94EF260E94536086E40E94FA2A05
:1039800080930106882351F00E94612B60932802E6
:103990007093290280932A0290932B0283E50E9460
:1039A000FA2A882351F00E94612B60932C027093B5
:1039B0002D0280932E0290932F0282E40E94FA2A15
:1039C000882351F00E94612B60932402709325029A
:1039D000809326029093270281E080931302109235
:1039E00000061092FF051A8E1B8E1C8E1D8E1AA2C9
:1039F0001BA21CA21DA21E8A1EA2FCE3FAA72CE198
:103A00002EA736E43AABC12CD12CE0E8EE2EFFEB2A
:103A1000FF2E812C912C54010091B00310E0F8018D
:103A2000EE0FFF1FE756F94F60817181072E000CE2
:103A3000880B990B0E946372762E672E582E492EA2
:103A4000262F372F482F592FB601C7010E945D72CC
:103A50008823E1F0000F111F000F111FF801EF562E
:103A6000F94F2081318142815381672D762D852D3B
:103A7000942D0E945D72881F8827881F8E8BCE8CA4
:103A8000CC2041F0882331F00C94B8267C2C6D2C8E
:103A90005E2C4F2C0E94AA4F6B017C01DC01CB01F4
:103AA0002AA13BA14CA15DA1821B930BA40BB50BDA
:103AB000B7FD41C0D701C60188519C4FAF4FBF4FE2
:103AC0008AA39BA3ACA3BDA30E94763204E613E0B5
:103AD000F8018491882329F00E942F5F0F5F1F4F08
:103AE000F7CF81149104A104B104D1F0D501C40130
:103AF000805F984DAF4FBF4FBC01CD016C197D0960
:103B00008E099F0928EE33E040E050E00E942276C3
:103B1000CA01B9010E94BB5F8AE00E942F5F0BC0FF
:103B200001E613E0F8018491882329F00E942F5FB9
:103B30000F5F1F4FF7CF0E94DE3C0E94CE33E09113
:103B4000B00324E0E29FF0011124EF56F94F2080EA
:103B50003180028113819101A801672D762D852D79
:103B6000942D0E941C6B9F7781149104A104B104D1
:103B700049F420E030E040E85FE30E945D7287FF97
:103B80000BC008C020E030E040E450E40E94656DC6
:103B9000181614F4460157013E893323A1F18A8D8A
:103BA0009B8DAC8DBD8D892B8A2B8B2B61F0D70122
:103BB000C6012A8D3B8D4C8D5D8D821B930BA40B12
:103BC000B50BB7FD20C09101A8016EA17AA58EA505
:103BD0009AA90E941C6B20E030E040EC5FE30E9459
:103BE0005D7287FF02C00C94B826D701C601805AC7
:103BF0009541AF4FBF4F8A8F9B8FAC8FBD8F2EA249
:103C00003AA60EA71AAB80911302882311F40C94E4
:103C1000B82681149104A104B10429F4C72CD62C30
:103C2000E52CF42CF9CE90E1C91A97E2D90AE10803
:103C3000F108C818D908EA08FB08F7FCEFCF0C9484
:103C4000B82683E50E94FA2A882321F00E943C2BA3
:103C50008C0102C00FEF10E080E50E94FA2A882351
:103C600031F00E943C2B892B11F00C94B82698015E
:103C70000F3F110519F010F02FEF30E030935D0683
:103C800020935C060C94B82680E50E94FA2A8111E4
:103C900006C010925D0610925C060C94B8260E9435
:103CA0003C2B892B11F00C94B826F3CF269A2E9832
:103CB0000C94B8261092B6030C94B82681E0809339
:103CC000B6030C94B92683E50E94FA2A8823A1F052
:103CD0000E94612B20E030E04AE754E40E94C27267
:103CE0000E94806C609330027093310280933202A4
:103CF000909333020C94B82688E50E94FA2A811129
:103D00000C94942689E50E94FA2A81110C94942639
:103D10008AE50E94FA2A81110C94942685E40E9477
:103D2000FA2A81110C9494260E9463580E94A43CA4
:103D30000C94B82683E50E94FA2A882311F40C9487
:103D4000B8260E94612B20E030E04AE754E40E944C
:103D5000C2720E94806C609306067093070680937F
:103D60000806909309060C94B8264FE6842E42E08C
:103D7000942E08E31CE050E4A52E56E0B52EAFE5E6
:103D8000B6E0BF8BAE8B312CF40181914F010E94C4
:103D9000FA2A882309F460C0F3E03F1255C00E945C
:103DA000612B2B013C0120E030E040EA51E40E940D
:103DB0005D7287FF43C0A3019201D8016D917D918F
:103DC0008D919C910E94096C6B017C019B01AC015F
:103DD000609128067091290680912A0690912B0601
:103DE0000E94C272609328067093290680932A0667
:103DF00090932B06A7019601F50160817181828164
:103E000093810E94C272D5016D937D938D939C9393
:103E10001397EE89FF8960817181828193810E946D
:103E20006172A70196010E94C2720E94806CAE89E5
:103E3000BF896D937D938D939C931397F801408276
:103E400051826282738208C00E94612BD8016D93F7
:103E50007D938D939C93139733940C5F1F4FB4E025
:103E6000AB0EB11CEE89FF893496FF8BEE8BF4E02C
:103E70003F128ACF0E9426437BC7F8018491882392
:103E800009F476C70E942F5F0F5F1F4FF6CF0E9485
:103E9000E0286EC781E080931C0280931D0669C7ED
:103EA00010921C0210921D0663C704E514E0F8018D
:103EB0008491882329F00E942F5F0F5F1F4FF7CF57
:103EC0000CE414E0F8018491882329F00E942F5F0C
:103ED0000F5F1F4FF7CF659B03C00BE213E002C0DB
:103EE00000E313E0D8018D918D01882319F00E9421
:103EF0002F5FF8CF8AE00E942F5F04E414E0F801FE
:103F00008491882329F00E942F5F0F5F1F4FF7CF06
:103F10008091030181FD03C00BE213E002C000E3C6
:103F200013E0D8018D918D01882319F00E942F5F35
:103F3000F8CF8AE00E942F5F0CE314E0F80184912F
:103F4000882329F00E942F5F0F5F1F4FF7CF4B9BF5
:103F500003C00BE213E002C000E313E0D8018D912F
:103F60008D01882309F463CC0E942F5FF7CF88EC82
:103F700090E00E9426338111FBC684E40E94FA2A55
:103F8000882309F4F5C60E94612B11E020E030E09F
:103F9000A9010E945D72811101C010E010931E06FC
:103FA000112309F446C00091B00310E00E94612B78
:103FB000000F111F000F111FF801EC5CFD4F608313
:103FC00071838283938320E030E0A9016091340201
:103FD0007091350280913602909137020E945D7295
:103FE00081110CC080E090E0A0E4B0E48093340242
:103FF00090933502A0933602B093370220E030E070
:10400000A901609138027091390280913A02909131
:104010003B020E945D7281110CC080E090E0A0E440
:10402000B0E48093380290933902A0933A02B0939F
:104030003B020E94DC3A9CC60E94D92B99C60E9482
:10404000DB3196C60E948A2B93C60E94693390C6C4
:1040500083E50E94FA2A882309F48AC60E94492B24
:1040600090931E0280931D0283C68DED90E00E9406
:10407000263381117DC683E50E94FA2A882309F43C
:1040800077C60091B00310E00E94492B000F111F6A
:10409000F801E05CFD4F918380836AC680E50E9451
:1040A000FA2A882309F464C60E94492B8C0183E50F
:1040B0000E94FA2A882321F00E94492B7C0103C028
:1040C000EE24EA94FE2CC7010196039708F050C62F
:1040D000E3E7F2E0819191918017910709F448C6D6
:1040E000B2E0E33DFB07B1F717FD42C60E946358FB
:1040F000D02E60E0802F0E94D934EFEFEE16FE063E
:1041000031F0EA94EF2871F401E010E00DC0802F47
:104110000E94823431E020E0892B09F030E0032F47
:10412000122F02C000E010E08D2D0E948234801713
:10413000910709F41DC60E94DE3CF6CF85E40E947B
:10414000FA2A811110C080E50E94FA2A882391F092
:104150000E94612B6093500270935102809352022F
:104160009093530207C00E94492B029764F30EE11B
:104170001AE089C089E40E94FA2A882381F00E940B
:10418000612B2CE933E549E45EE30E94C27260933F
:10419000140270931502809316029093170284E420
:1041A0000E94FA2A882381F00E94612B2CE933E5D2
:1041B00049E45EE30E94096C6093540270935502D7
:1041C00080935602909357020E94275806E21BE004
:1041D000F8018491882329F00E942F5F0F5F1F4F01
:1041E000F7CF06E714E0F8018491882329F00E94B4
:1041F0002F5F0F5F1F4FF7CF6091500270915102F8
:10420000809152029091530242E00E94DE5F02E7E9
:1042100014E0F8018491882329F00E942F5F0F5F3A
:104220001F4FF7CF2CE933E549E45EE360911402B8
:104230007091150280911602909117020E94096CEC
:1042400042E00E94DE5F0EE614E0F80184918823CC
:1042500029F00E942F5F0F5F1F4FF7CF2CE933E546
:1042600049E45EE3609154027091550280915602D8
:10427000909157020E94C27242E00E94DE5F8AE083
:104280000E942F5F75C5F8018491882329F00E9450
:104290002F5F0F5F1F4FF7CF0AE313E0D8018D9117
:1042A0008D01882309F4C3CA0E942F5FF7CF60E015
:1042B00070E089E30E9415355BC56FEF70E089E31C
:1042C0000E94153555C583E50E94FA2A082F8823D8
:1042D000A1F00E94612B60933C0270933D02809399
:1042E0003E0290933F0211E020E030E0A9010E94DD
:1042F0005D72811110E01093270680E50E94FA2A72
:10430000182F8823C1F020E030E0A90160913C0221
:1043100070913D0280913E0290913F020E945D7239
:10432000882331F00E940D2B11E0811101C010E0B3
:10433000109327061DC501111BC506E21BE0F801FD
:104340008491882329F00E942F5F0F5F1F4FF7CFC2
:1043500061E070E08FE894E00E945E3220E030E09F
:1043600040E05FE360913C0270913D0280913E022B
:1043700090913F020E941D6B0E947A6C8EE794E040
:104380000E945E320AE714E0F8018491882309F460
:10439000EFC40E942F5F0F5F1F4FF6CF85E40E948E
:1043A000FA2A882321F00E94492B8C0102C000E0E8
:1043B00010E083E40E94FA2A882339F00E94492BF6
:1043C000A5969FAF8EAFA59706C025E030E0A596D5
:1043D0003FAF2EAFA59785E50E94FA2A882341F0CA
:1043E0000E940D2B31E06A963FAF6A97811103C09E
:1043F0006A961FAE6A9783E50E94FA2A882331F0F5
:104400000E94612B6EA37AA78EA70CC01EA21AA6CB
:1044100017FD05C046E14EA753E45AAB04C08CE833
:104420008EA792E49AAB0230110510F40093B0030A
:10443000109200061092FF050E94AA4F4B015C01EA
:10444000DC01CB018C53964FAF4FBF4F80938B064F
:1044500090938C06A0938D06B0938E0602301105C2
:1044600028F48BE4E82E83E0F82E0EC00EE513E06E
:10447000D8018D918D01882319F00E942F5FF8CF0C
:104480008AE00E942F5F74C4F70181917F01882325
:1044900019F00E942F5FF8CF8AE00E942F5F0E94E0
:1044A000A351F801E157F94F8FE7808381E08093B2
:1044B00013026F968CAE9DAEAEAEBFAE6F97A9964F
:1044C0008CAE9DAEAEAEBFAEA9971AAE20E42EAFB5
:1044D0003CE123963FAF239746E427964FAF2797BB
:1044E0002B961FAE2B972F961FAE2F9760961FAE61
:1044F000609761961FAE619769961CAE1DAE1EAEA9
:104500001FAE699765961CAE1DAE1EAE1FAE6597B9
:10451000C12CD12C7601AFE74A2E512C612C712C85
:104520008FE790E0A0E0B0E08AA39BA3ACA3BDA37B
:10453000A3961CAE1DAE1EAE1FAEA39791E06B9668
:104540009FAF6B971FAA1EAA312C212C1A8E1E8E8C
:10455000000F111F000F111F0F56194FAB96FFAF21
:10456000EEAFAB9780911302882309F4C7C10E9474
:10457000AA4F6E8B7F8B888F998F809189068823B5
:1045800009F4E6C00E94DF53D8013C9011962C90AC
:1045900011971296BC91BA8FF801F381FE8F232DEB
:1045A000322D4B2F5F2F2B966FAD2B972F967FAD14
:1045B0002F9760968FAD609761969FAD61970E942F
:1045C000656D181674F02B963FAE2B972F962FAE75
:1045D0002F972A8D60962FAF60973E8D61963FAFE3
:1045E0006197232D322D4A8D5E8D6AAD7EAD239667
:1045F0008FAD239727969FAD27970E945D7287FD09
:104600000AC03AAE2EAE4A8D23964FAF23975E8DE9
:1046100027965FAF279780918B0690918C06A0918B
:104620008D06B0918E062E893F89488D598D281BA5
:10463000390B4A0B5B0B57FD12C00E940C548E893C
:104640009F89A88DB98D8C53964FAF4FBF4F8093E4
:104650008B0690938C06A0938D06B0938E066B9676
:104660003FAD6B972EA1332309F451C03AA54EA557
:104670005AA9632D722D8A8D9E8D0E94656D181624
:104680000CF066C04E895F89688D798D481959098B
:104690006A097B09DB01CA0188589341A109B10964
:1046A000B7FD56C08AA19BA1ACA1BDA184199509F3
:1046B000A609B709B595A79597958795AB96EEADE1
:1046C000FFADAB978083A3964CAF5DAF6EAF7FAF6E
:1046D000A397FEA12B96FFAF2B972AA52F962FAF5E
:1046E0002F973EA560963FAF60974AA961964FAF5E
:1046F00061978E899F89A88DB98D6F968CAF9DAF7C
:10470000AEAFBFAF6F976B961FAE6B9721C03AA548
:104710004EA55AA9632D722D8A8D9E8D0E945D72C1
:1047200087FF16C08E899F89A88DB98D6F962CAD95
:104730003DAD4EAD5FAD6F97821B930BA40BB50BD8
:10474000AC01BD01485853416109710977FF4BC362
:1047500020E030E040EA51E46EA17AA58EA59AA946
:104760000E941D6B9B01AC01632D722D8A8D9E8D65
:104770000E94656D181664F40CE515E0F80184914B
:10478000882309F4F5C20E942F5F0F5F1F4FF6CFF9
:1047900080E398EFAFEFBFEFA9962CAD3DAD4EADE6
:1047A0005FADA997821B930BA40BB50B2E893F8994
:1047B000488D598D820F931FA41FB51FB7FD0FC0E1
:1047C0000E9476328AE00E942F5F8E899F89A88D91
:1047D000B98DA9968CAF9DAFAEAFBFAFA9978E89AB
:1047E0009F89A88DB98D880F991FAA1FBB1F6F962F
:1047F0002CAD3DAD4EAD5FAD6F97821B930BA40BFF
:10480000B50B88199909AA09BB0981389F44A241AF
:10481000B10560F00EE315E0F8018491882309F4F6
:10482000A7C20E942F5F0F5F1F4FF6CF2EA93FA98F
:10483000A5964EAD5FADA597421753070CF092CEEB
:1048400001EE14E0F8018491882329F00E942F5F83
:104850000F5F1F4FF7CFB701A6018CEC94E00E94C9
:10486000BF3165964CAD5DAD6EAD7FAD659787EBA5
:1048700094E00E94BF3169964CAD5DAD6EAD7FADE9
:10488000699782EA94E00E94BF316A96FFAD6A9709
:10489000FF2309F46DC2C0925002D0925102E092FF
:1048A0005202F09253022CE933E549E45EE3659647
:1048B0006CAD7DAD8EAD9FAD65970E94C272609369
:1048C00014027093150280931602909317022CE93C
:1048D00033E549E45EE369966CAD7DAD8EAD9FAD89
:1048E00069970E94096C60935402709355028093FB
:1048F0005602909357020E9427583AC280911302A1
:10490000811136C20E94A35133C283E573D6882336
:1049100009F42EC2E091B103F091B203818121E04C
:1049200030E0803239F42F5F3F4FDF01A20FB31F19
:104930008C91F7CF8D3211F08B3231F42F5F3F4FD6
:10494000DF01A20FB31F8C918E3219F4E20FF31F17
:10495000818180538A3008F4A7C30AC288E54AD609
:10496000B82E8823C9F0ADD620E030E048E951E404
:104970000E941D6B20E030E04CE852E40E941D6B69
:104980000E947A6CCB016CE870E00E94D06A062F1E
:10499000633018F00FEF01C000E089E52BD6C82E78
:1049A0008823C9F08ED620E030E040E050E40E9439
:1049B0001C6B20E030E04CE852E40E941D6B0E942A
:1049C0007A6CCB016CE870E00E94D06A162F6330DD
:1049D00018F01FEF01C010E089E40CD6D82E882310
:1049E00021F06FD60E947A6C062F8AE403D6E82E57
:1049F000882321F066D60E947A6C162F8AE5FAD5B4
:104A0000F82E882311F05DD603C060E070E0CB0182
:104A1000BB20B1F1CC20A1F1FF2091F107FD19C01D
:104A200017FD17C0212F110F330BF901EE0FFF1FD8
:104A3000E20FF31FE00FF11D07FDFA95EE0FFF1FC8
:104A4000EE0FFF1FE75FF24F6583768387839087C2
:104A50008FC10EE11AE0F8018491882329F00E94A9
:104A60002F5F0F5F1F4FF7CF06E116E0F80184912B
:104A7000882309F47DC10E942F5F0F5F1F4FF6CF7F
:104A8000DD20B1F1EE20A1F1FF2091F10330C8F457
:104A90001330B8F4212F110F330BF901EE0FFF1F64
:104AA000E20FF31FE00FF11D07FDFA95EE0FFF1F58
:104AB000EE0FFF1FE75FF24F658376838783908752
:104AC00057C10EE11AE0F8018491882329F00E9471
:104AD0002F5F0F5F1F4FF7CF04EF15E0F8018491B0
:104AE000882309F445C10E942F5F0F5F1F4FF6CF47
:104AF0000EE11AE0F8018491882329F00E942F5FCB
:104B00000F5F1F4FF7CF0FEC15E0F801849188235A
:104B100009F42EC10E942F5F0F5F1F4FF6CF58E29E
:104B2000252E5CE0352E24E53CE03F8B2E8B4AE0C1
:104B300056E05B8F4A8F00E010E08A8D9B8D8A5093
:104B400096409F8F8E8FAA8DBB8D8D91BB8FAA8F24
:104B5000882309F494C0F801E35AFD4F2081318184
:104B600042815381F801E95FFD4F6081718182814B
:104B700093810E941D6B20E030E040E05FE30E94E3
:104B8000C2729B01AC01F1016081718182819381CC
:104B90000E94656D18162CF4C8018053944FD9D427
:104BA00003C060E070E0CB01D1014D905D906D904D
:104BB0007C90EE89FF89C080D180E280F380A701DC
:104BC00096010E941D6BF801E85BF34F2081318153
:104BD000428153810E941D6B9B01AC01C301B20154
:104BE0000E941C6B4B015C0120E030E040EA51EC7C
:104BF0000E94656D181664F520E030E040EA51E44B
:104C0000C501B4010E945D7287FF22C0A501940115
:104C1000C701B6010E941C6B4B015C01A701960104
:104C20000E941C6B9B01AC01C301B2010E941D6B71
:104C3000D1016D937D938D939C931397EE89FF899A
:104C400080829182A282B3828E8D9F8D88D417C07C
:104C50000EE11AE0F8018491882329F00E942F5F69
:104C60000F5F1F4FF7CF08E316E0F8018491882308
:104C700009F47EC00E942F5F0F5F1F4FF6CFF4E054
:104C80002F0E311C0C5F1F4F2E893F892C5F3F4F29
:104C90003F8B2E8B0C30110509F04FCFCCD690D224
:104CA00067C00E94613B80E00E94143661C00E9490
:104CB000613B5EC083E59ED4982F882321F0ADD45C
:104CC00091E0811190E0892F0E94143651C081E05B
:104CD00080934C0283E58ED4882309F4F2C19DD4DD
:104CE000811146C0EEC18091FE05081759F083E599
:104CF00081D4182F882339F090D411E0811103C09A
:104D000010E001C011E086E475D4882321F0D9D4E5
:104D1000AB01BC0103C040E050E0BA01212F802F5D
:104D2000A3D626C080E025C00E94635888E562D4DF
:104D3000882319F05F9A1092D40589E55BD4882303
:104D400019F08A9A1092D5058AE554D4882351F037
:104D50009FB7F894809108018160809308019FBFFC
:104D60001092D60585E446D4882311F0129A479A0A
:104D700081E0109200061092FF05882311F40C9434
:104D80000D0D0E945466A0C1F8018491882329F07A
:104D90000E942F5F0F5F1F4FF7CF09E516E0F80164
:104DA0008491882329F00E942F5F0F5F1F4FF7CF58
:104DB0000091460510914705D8018D918D018823FA
:104DC00019F00E942F5FF8CF06E516E0F8018491F4
:104DD0008823B9F20E942F5F0F5F1F4FF7CF0E9409
:104DE00016630C94BD1C4EA95FA9141615060CF091
:104DF0002FC1A3968CAC9DACAEACBFACA397880E74
:104E0000991EAA1EBB1EA3962CAD3DAD4EAD5FAD47
:104E1000A397281B390B4A0B5B0BCA01B901A301ED
:104E200092010E941376A50194010E94E36A4AA0B0
:104E30005BA06CA07DA0420E531E641E751E34E163
:104E400043165104610471040CF14CEE44165104F4
:104E5000610471043CF450E8451651046104710486
:104E60001CF105C06BEE462E512C612C712C4AA210
:104E70005BA26CA27DA28EEF90E0A0E0B0E084196E
:104E80009509A609B7092C013D0112C024E130E0C3
:104E900040E050E02AA33BA34CA35DA354E1452E80
:104EA000512C612C712C04C04AA25BA26CA27DA281
:104EB0004AA15BA16CA17DA187EC95E00E943832EC
:104EC000B301A20182EC95E00E9438324AAD5EAD9A
:104ED00023966FAD239727967FAD27978BEB95E0B1
:104EE0000E94BF312B964FAD2B972F965FAD2F971A
:104EF00060966FAD609761967FAD619784EB95E0AA
:104F00000E94BF314EA95FA9433051050CF4A0C0E7
:104F1000C301B2010E94637220E030E040E850E437
:104F20000E94C2726B017C012AAD3EAD23964FAD4B
:104F3000239727965FAD27972B966FAD2B972F96CC
:104F40007FAD2F9760968FAD609761969FAD61970B
:104F50000E941C6B2BED3FE049E450E40E94C272BA
:104F600020E030E040E05FE30E94C2729B01AC01B0
:104F7000C701B6010E94096C6B017C01C501B40137
:104F80000E9463722FE632E143E85AE30E94C27244
:104F90004B015C01B701A6018EEA95E00E94BF318A
:104FA000B501A40188EA95E00E94BF312AE939E9F8
:104FB00049E15FE3C701B6010E94C2726B017C0147
:104FC0009B01AC010E941D6BA50194010E94096C1C
:104FD00065966CAF7DAF8EAF9FAF6597A5019401CD
:104FE000C701B6010E94C27220E030E040E05EE3FB
:104FF0000E94C27269966CAF7DAF8EAF9FAF69970A
:1050000049E9A42E45E0B42EF5018491882331F0BE
:105010000E942F5F5FEFA51AB50AF6CFB701A60170
:1050200083E995E00E94BF3165964CAD5DAD6EADF4
:105030007FAD65978DE895E00E94BF3169964CADD4
:105040005DAD6EAD7FAD699787E895E00E94BF3199
:105050008AA19BA1ACA1BDA1840D951DA61DB71D64
:10506000B595A79597958795AB96EEADFFADAB97A8
:1050700080832EA93FA92F5F3F4F3FAB2EAB3EA1B0
:105080003AAF4AA54EAF5EA523965FAF23978AA994
:1050900027968FAF27978E889F88A88CB98C91E030
:1050A0006B969FAF6B9754CBB8D29091090D882324
:1050B00021F091609093090D5BCE9E7F9093090D36
:1050C00057CE0E94706654CEC259DF4F0FB6F89487
:1050D000DEBF0FBECDBFDF91CF911F910F91FF902B
:1050E000EF90DF90CF90BF90AF909F908F907F9088
:1050F0006F905F904F903F902F900895FF920F9385
:105100001F93CF93DF93EC01F62E0EE11AE0F80126
:105110008491882329F00E942F5F0F5F1F4FF7CFE4
:10512000FE018491882321F00E942F5F2196F8CF01
:105130006091400D7091410D8091420D9091430D11
:105140000E94BB5F8AE00E942F5FF1100E94706690
:105150001092AA051092A905DF91CF911F910F918E
:10516000FF9008950F931F93CF93DF93FC0120814D
:105170002B3301F11091FD051430E0F4062FBC0132
:1051800090914805C92FD0E0F0E69F9FC0011124FF
:1051900086549C4F0E941C6EFE01E552FA4F00831C
:1051A0002196C370DD27C09348051F5F1093FD054E
:1051B00081E001C080E0DF91CF911F910F910895B0
:1051C0004F925F926F927F928F929F92AF92BF9217
:1051D000CF92DF92EF92FF92CF93DF93C5E0D8E0BA
:1051E000FE018491882321F00E942F5F2196F8CF41
:1051F0006091280C7091290C80912A0C90912B0CB5
:1052000042E00E94DE5FC1E0D8E0FE018491882385
:1052100021F00E942F5F2196F8CF60912C0C7091A5
:105220002D0C80912E0C90912F0C42E00E94DE5F9D
:10523000CDEFD7E0FE018491882321F00E942F5FFB
:105240002196F8CF6091300C7091310C8091320C26
:105250009091330C42E00E94DE5FC9EFD7E0FE017F
:105260008491882321F00E942F5F2196F8CF6091CE
:10527000340C7091350C8091360C9091370C42E0D3
:105280000E94DE5F8FB7F8944090180C5090190C74
:1052900060901A0C70901B0C80901C0C90901D0C50
:1052A000A0901E0CB0901F0CC090200CD090210C30
:1052B000E090220CF090230C8FBFCEEED7E0FE01E1
:1052C0008491882321F00E942F5F2196F8CFC3019B
:1052D000B2010E94BB5FCAEED7E0FE018491882331
:1052E00021F00E942F5F2196F8CFC501B4010E94E2
:1052F000BB5FC6EED7E0FE018491882321F00E94B7
:105300002F5F2196F8CFC701B6010E94BB5F8AE0EC
:10531000DF91CF91FF90EF90DF90CF90BF90AF9053
:105320009F908F907F906F905F904F900C942F5F25
:1053300080E1E8E2FCE0ADE0B6E001900D928A95F4
:10534000E1F7089580E1EDE0F6E0A8E2BCE001902D
:105350000D928A95E1F708958F929F92AF92BF9236
:10536000CF92DF92EF92FF920F931F9320E030E0F5
:1053700040E752E40E94096C4B015C01EDE0F6E06D
:10538000E084F1840285138524813581468157812B
:105390006081718182819381E091FE05EF93E9E163
:1053A000CE2EE6E0DE2E0E9465430F901F910F91F6
:1053B000FF90EF90DF90CF90BF90AF909F908F9035
:1053C00008954F925F926F927F928F929F92AF92C9
:1053D000BF92CF92DF92EF92FF920F931F93CF93E2
:1053E000DF93790140901F025090200260902102CB
:1053F00070902202EC01CC0FDD1FCC0FDD1FFE01EF
:10540000E85DF34F408351836283738320E030E093
:10541000A901B801C7010E945D72811108C0FE0197
:10542000E75FFC4F00811181A281E38102C0AE2DB4
:10543000EF2DA8016A2F7E2F40931F025093200268
:10544000609321027093220220E030E040E752E4B2
:10545000B8018A2F9E2F0E94096C4B015C01E090DD
:10546000300CF090310C0091320C1091330C2091E3
:105470002C0C30912D0C40912E0C50912F0C6091E2
:10548000280C7091290C80912A0C90912B0CE091A2
:10549000FE05EF93E4E3CE2EECE0DE2E0E946543A2
:1054A0000E94635840921F02509220026092210293
:1054B000709222020F90DF91CF911F910F91FF9078
:1054C000EF90DF90CF90BF90AF909F908F907F90A4
:1054D0006F905F904F9008958F929F92AF92BF927E
:1054E000CF92DF92EF92FF920F931F9320E030E074
:1054F00040E752E460911F027091200280912102E6
:10550000909122020E94096C4B015C01E8E2FCE0F0
:10551000E084F18402851385248135814681578199
:105520006081718182819381E091FE05EF93E4E3D4
:10553000CE2EECE0DE2E0E9465430F901F910F915E
:10554000FF90EF90DF90CF90BF90AF909F908F90A3
:105550000895FC0165917591859194910895CF927C
:10556000DF92EF92FF920F931F93CF93DF93EC01A3
:10557000CC0FDD1FCC0FDD1FFE01EC5AF34F20E0F6
:1055800030E0A90160817181828193810E941D6B4D
:10559000FE01E85BF34F20813181428153810E94FB
:1055A0001D6B6B017C01CE018A53984FD2DF8E01B7
:1055B000095F1D4FA70196010E941D6BF8016083D2
:1055C000718382839383CE018654984FC2DFC35A7E
:1055D000DD4FA70196010E941D6B688379838A8342
:1055E0009B83DF91CF911F910F91FF90EF90DF9000
:1055F000CF900895682F880F770B8091B803909112
:10560000B9030E94086E9C019093B2038093B1038A
:1056100081E0232B09F480E008958091B1039091FB
:10562000B2034AE050E060E070E001960E94896FAA
:1056300097FD1EC08091B1039091B2034AE050E003
:1056400060E070E001960E94896F6F3F71058105EF
:10565000910509F07CF48091B1039091B2034AE086
:1056600050E060E070E001960E94896F862F0895F7
:1056700080E008958FEF08958091B1039091B20377
:105680004AE050E060E070E001960E94B170CB010A
:1056900008958091B1039091B2034AE050E060E038
:1056A00070E001960E94896FCB0108958091B1034B
:1056B0009091B2034AE050E060E070E001960C94F3
:1056C000B1700F931F93CF93DF93C091B103D0912B
:1056D000B20365E470E0CE010E94086E8C01CE0139
:1056E00001960115110571F0F801108260E070E07B
:1056F0000E94236E25E4F8012083DF91CF911F9152
:105700000F91089560E070E0DF91CF911F910F91AC
:105710000C94236E83E56EDF882349F0D2DF60931B
:1057200058067093590680935A0690935B0684E559
:1057300061DF882349F0C5DF6093540670935506F6
:10574000809356069093570682E454DF882349F0ED
:10575000ADDF60935006709351068093520690938C
:10576000530688E547DF882349F0ABDF60933006B6
:105770007093310680933206909333068AE53ADFC0
:10578000882349F09EDF60932C0670932D0680934A
:105790002E0690932F0685E42DDF882349F091DFB4
:1057A000609328067093290680932A0690932B060F
:1057B0000895FF920F931F93CF93DF9300E416E0B9
:1057C000CFE6D2E0FC2E84E0F80E899113DF882327
:1057D00031F077DFF80160837183828393830C5FFC
:1057E0001F4FFC12F2CFDF91CF911F910F91FF90CD
:1057F0000895FF920F931F93CF93DF930FE616E068
:10580000CFE6D2E0FC2E84E0F80E8991F3DE882307
:1058100041F057DF0E94806CF801608371838283BE
:1058200093830C5F1F4FFC12F0CFDF91CF911F913C
:105830000F91FF900C94DE42BF92CF92DF92EF92D5
:10584000FF920F931F93CF93DF938DE0E82E86E0B6
:10585000F82E08E21CE093EBC92E93E0D92ECFE698
:10586000D2E0BC2E84E0B80E8991C4DE8823D1F04A
:1058700028DFF6012081211104C02091B7032223E3
:1058800031F0F801208131814281538103C020E051
:1058900030E0A9010E941D6BF70160837183828350
:1058A00093830AC0F80180819181A281B381F701BD
:1058B00080839183A283B383F4E0EF0EF11C0C5F2D
:1058C0001F4F8FEFC81AD80ABC12CECF86E492DEE3
:1058D000882389F0F6DE20E030E0A9010E94656DA2
:1058E00018164CF4EEDE60931F0270932002809332
:1058F000210290932202DF91CF911F910F91FF908F
:10590000EF90DF90CF90BF900895AF92BF92DF925B
:10591000EF92FF920F931F93CF93DF93CDB7DEB734
:105920006E970FB6F894DEBF0FBECDBF6091AA038D
:105930007091AB036115710519F14DE150E0CE0195
:1059400001967C010E9405721E8E5701F7018F019E
:105950000E191F09D190DD20E9F09AE0D912F7CF96
:1059600019C0DD2009F452C00F5F1F4F8091AA03B8
:105970009091AB03080F191F1093AB030093AA0378
:1059800081E02091AA033091AB03232B09F043C09F
:1059900080E041C0F701E00FF11F108260E0C70115
:1059A000E1DB882369F326E2E22E2BE0F22EF701F9
:1059B0008491882331F00E942F5FEFEFEE1AFE0AE8
:1059C000F6CF9FE6E92E96E0F92EF7018491882321
:1059D00031F00E942F5FFFEFEF1AFF0AF6CFF501BB
:1059E00081915F01882319F00E942F5FF8CF8CE628
:1059F000E82E86E0F82EF7018491882309F4B1CFD0
:105A00000E942F5FFFEFEF1AFF0AF5CF1092AB0352
:105A10001092AA03B5CF6E960FB6F894DEBF0FBEF4
:105A2000CDBFDF91CF911F910F91FF90EF90DF904D
:105A3000BF90AF900895EF92FF920F931F93E8E20B
:105A4000FCE0E084F1840285138524813581468160
:105A5000578160817181828193810E94E8611F91E9
:105A60000F91FF90EF9008952F923F924F925F9287
:105A70006F927F928F929F92AF92BF92CF92DF925E
:105A8000EF92FF920F931F93CF93DF93CDB7DEB7C3
:105A90002A970FB6F894DEBF0FBECDBF89876A0183
:105AA0007B012A87823008F106E21BE0F80184912D
:105AB000882329F00E942F5F0F5F1F4FF7CF84E5E7
:105AC0000E942F5FF9856F2F70E080E090E04AE040
:105AD0000E94365F0AE313E0F80181918F01882369
